{
  "contractName": "VotingSystem",
  "abi": [
    {
      "anonymous": false,
      "inputs": [
        {
          "indexed": false,
          "internalType": "string",
          "name": "username",
          "type": "string"
        },
        {
          "indexed": false,
          "internalType": "address",
          "name": "adminAddress",
          "type": "address"
        }
      ],
      "name": "AdminRegistered",
      "type": "event"
    },
    {
      "anonymous": false,
      "inputs": [
        {
          "indexed": false,
          "internalType": "string",
          "name": "ballotId",
          "type": "string"
        },
        {
          "indexed": false,
          "internalType": "string",
          "name": "title",
          "type": "string"
        },
        {
          "indexed": true,
          "internalType": "address",
          "name": "admin",
          "type": "address"
        }
      ],
      "name": "BallotCreated",
      "type": "event"
    },
    {
      "anonymous": false,
      "inputs": [
        {
          "indexed": true,
          "internalType": "address",
          "name": "voter",
          "type": "address"
        },
        {
          "indexed": false,
          "internalType": "string",
          "name": "ballotId",
          "type": "string"
        },
        {
          "indexed": false,
          "internalType": "uint256",
          "name": "positionIndex",
          "type": "uint256"
        },
        {
          "indexed": false,
          "internalType": "uint256",
          "name": "candidateIndex",
          "type": "uint256"
        }
      ],
      "name": "VoteCasted",
      "type": "event"
    },
    {
      "anonymous": false,
      "inputs": [
        {
          "indexed": true,
          "internalType": "address",
          "name": "voter",
          "type": "address"
        },
        {
          "indexed": false,
          "internalType": "string",
          "name": "ballotId",
          "type": "string"
        }
      ],
      "name": "VoterRegistered",
      "type": "event"
    },
    {
      "anonymous": false,
      "inputs": [
        {
          "indexed": false,
          "internalType": "string",
          "name": "ballotId",
          "type": "string"
        },
        {
          "indexed": false,
          "internalType": "address",
          "name": "admin",
          "type": "address"
        }
      ],
      "name": "VotingEnded",
      "type": "event"
    },
    {
      "inputs": [
        {
          "internalType": "string",
          "name": "",
          "type": "string"
        }
      ],
      "name": "ballots",
      "outputs": [
        {
          "internalType": "string",
          "name": "id",
          "type": "string"
        },
        {
          "internalType": "string",
          "name": "title",
          "type": "string"
        },
        {
          "internalType": "address",
          "name": "adminAddress",
          "type": "address"
        },
        {
          "internalType": "bool",
          "name": "isClosed",
          "type": "bool"
        }
      ],
      "stateMutability": "view",
      "type": "function",
      "constant": true
    },
    {
      "inputs": [
        {
          "internalType": "address",
          "name": "",
          "type": "address"
        }
      ],
      "name": "isAdminRegistered",
      "outputs": [
        {
          "internalType": "bool",
          "name": "",
          "type": "bool"
        }
      ],
      "stateMutability": "view",
      "type": "function",
      "constant": true
    },
    {
      "inputs": [
        {
          "internalType": "string",
          "name": "",
          "type": "string"
        },
        {
          "internalType": "address",
          "name": "",
          "type": "address"
        }
      ],
      "name": "registeredVoters",
      "outputs": [
        {
          "internalType": "bytes32",
          "name": "hashedPassword",
          "type": "bytes32"
        },
        {
          "internalType": "string",
          "name": "ballotId",
          "type": "string"
        },
        {
          "internalType": "bool",
          "name": "isRegistered",
          "type": "bool"
        },
        {
          "internalType": "bool",
          "name": "hasVoted",
          "type": "bool"
        }
      ],
      "stateMutability": "view",
      "type": "function",
      "constant": true
    },
    {
      "inputs": [
        {
          "internalType": "string",
          "name": "_username",
          "type": "string"
        },
        {
          "internalType": "string",
          "name": "_password",
          "type": "string"
        }
      ],
      "name": "registerAdmin",
      "outputs": [],
      "stateMutability": "nonpayable",
      "type": "function"
    },
    {
      "inputs": [
        {
          "internalType": "string",
          "name": "_username",
          "type": "string"
        },
        {
          "internalType": "string",
          "name": "_password",
          "type": "string"
        }
      ],
      "name": "adminLogin",
      "outputs": [
        {
          "internalType": "bool",
          "name": "",
          "type": "bool"
        },
        {
          "internalType": "string[]",
          "name": "",
          "type": "string[]"
        },
        {
          "internalType": "string[]",
          "name": "",
          "type": "string[]"
        }
      ],
      "stateMutability": "view",
      "type": "function",
      "constant": true
    },
    {
      "inputs": [
        {
          "internalType": "string",
          "name": "_ballotId",
          "type": "string"
        },
        {
          "internalType": "string",
          "name": "_title",
          "type": "string"
        },
        {
          "internalType": "string[]",
          "name": "_positionNames",
          "type": "string[]"
        },
        {
          "internalType": "string[][]",
          "name": "_candidateNames",
          "type": "string[][]"
        }
      ],
      "name": "createBallot",
      "outputs": [],
      "stateMutability": "nonpayable",
      "type": "function"
    },
    {
      "inputs": [
        {
          "internalType": "address",
          "name": "_voter",
          "type": "address"
        },
        {
          "internalType": "string",
          "name": "_ballotId",
          "type": "string"
        },
        {
          "internalType": "bytes32",
          "name": "_hashedPassword",
          "type": "bytes32"
        }
      ],
      "name": "registerVoter",
      "outputs": [],
      "stateMutability": "nonpayable",
      "type": "function"
    },
    {
      "inputs": [
        {
          "internalType": "string",
          "name": "_ballotId",
          "type": "string"
        },
        {
          "internalType": "address",
          "name": "_voter",
          "type": "address"
        }
      ],
      "name": "getVoterStatus",
      "outputs": [
        {
          "internalType": "bool",
          "name": "isRegistered",
          "type": "bool"
        },
        {
          "internalType": "bool",
          "name": "hasVoted",
          "type": "bool"
        }
      ],
      "stateMutability": "view",
      "type": "function",
      "constant": true
    },
    {
      "inputs": [
        {
          "internalType": "address[]",
          "name": "_voterAddresses",
          "type": "address[]"
        },
        {
          "internalType": "string",
          "name": "_ballotId",
          "type": "string"
        },
        {
          "internalType": "bytes32[]",
          "name": "_hashedPasswords",
          "type": "bytes32[]"
        }
      ],
      "name": "registerMultipleVoters",
      "outputs": [],
      "stateMutability": "nonpayable",
      "type": "function"
    },
    {
      "inputs": [
        {
          "internalType": "string",
          "name": "_ballotId",
          "type": "string"
        }
      ],
      "name": "getVotersForBallot",
      "outputs": [
        {
          "internalType": "address[]",
          "name": "",
          "type": "address[]"
        }
      ],
      "stateMutability": "view",
      "type": "function",
      "constant": true
    },
    {
      "inputs": [
        {
          "internalType": "string",
          "name": "_ballotId",
          "type": "string"
        },
        {
          "internalType": "string",
          "name": "_password",
          "type": "string"
        }
      ],
      "name": "authenticateVoter",
      "outputs": [
        {
          "internalType": "bool",
          "name": "isAuthenticated",
          "type": "bool"
        },
        {
          "internalType": "bool",
          "name": "hasVoted",
          "type": "bool"
        },
        {
          "internalType": "string",
          "name": "ballotId",
          "type": "string"
        }
      ],
      "stateMutability": "view",
      "type": "function",
      "constant": true
    },
    {
      "inputs": [
        {
          "internalType": "string",
          "name": "_ballotId",
          "type": "string"
        },
        {
          "internalType": "uint256[]",
          "name": "_positionIndexes",
          "type": "uint256[]"
        },
        {
          "internalType": "uint256[]",
          "name": "_candidateIndexes",
          "type": "uint256[]"
        }
      ],
      "name": "voteMultiple",
      "outputs": [],
      "stateMutability": "nonpayable",
      "type": "function"
    },
    {
      "inputs": [],
      "name": "getMyBallots",
      "outputs": [
        {
          "internalType": "string[]",
          "name": "",
          "type": "string[]"
        },
        {
          "internalType": "string[]",
          "name": "",
          "type": "string[]"
        }
      ],
      "stateMutability": "view",
      "type": "function",
      "constant": true
    },
    {
      "inputs": [
        {
          "internalType": "string",
          "name": "_ballotId",
          "type": "string"
        }
      ],
      "name": "getBallotDetails",
      "outputs": [
        {
          "internalType": "string",
          "name": "",
          "type": "string"
        },
        {
          "internalType": "string",
          "name": "",
          "type": "string"
        },
        {
          "internalType": "string[]",
          "name": "",
          "type": "string[]"
        },
        {
          "internalType": "string[][]",
          "name": "",
          "type": "string[][]"
        }
      ],
      "stateMutability": "view",
      "type": "function",
      "constant": true
    },
    {
      "inputs": [
        {
          "internalType": "string",
          "name": "_ballotId",
          "type": "string"
        }
      ],
      "name": "getResults",
      "outputs": [
        {
          "internalType": "string[]",
          "name": "",
          "type": "string[]"
        },
        {
          "internalType": "string[][]",
          "name": "",
          "type": "string[][]"
        },
        {
          "internalType": "uint256[][]",
          "name": "",
          "type": "uint256[][]"
        }
      ],
      "stateMutability": "view",
      "type": "function",
      "constant": true
    },
    {
      "inputs": [
        {
          "internalType": "string",
          "name": "_ballotId",
          "type": "string"
        }
      ],
      "name": "isBallotClosed",
      "outputs": [
        {
          "internalType": "bool",
          "name": "",
          "type": "bool"
        }
      ],
      "stateMutability": "view",
      "type": "function",
      "constant": true
    },
    {
      "inputs": [
        {
          "internalType": "string",
          "name": "_ballotId",
          "type": "string"
        }
      ],
      "name": "endVoting",
      "outputs": [],
      "stateMutability": "nonpayable",
      "type": "function"
    }
  ],
  "bytecode": "0x608060405234801561001057600080fd5b50615e4f80620000216000396000f3fe608060405234801561001057600080fd5b506004361061010b5760003560e01c806374098f46116100a2578063bbbb2dba11610071578063bbbb2dba146102e5578063c715408014610318578063e5d6b2031461034a578063e6598e2d1461037b578063f8f98b79146103ab5761010b565b806374098f46146102475780637437ffa1146102665780638634602e14610282578063a1b35bea146102b55761010b565b80633b00a3e3116100de5780633b00a3e3146101ad5780634bba734f146101c95780636a2d6877146101f95780636bdc838e146102155761010b565b806311e4e0a61461011057806313e52b4e146101435780632ff20f011461015f5780633329187214610191575b600080fd5b61012a60048036038101906101259190614436565b6103c7565b60405161013a949392919061542d565b60405180910390f35b61015d600480360381019061015891906142f7565b6104bc565b005b610179600480360381019061017491906143f5565b610866565b604051610188939291906152e3565b60405180910390f35b6101ab60048036038101906101a6919061458d565b61105e565b005b6101c760048036038101906101c291906143f5565b611552565b005b6101e360048036038101906101de91906142ce565b611756565b6040516101f09190615366565b60405180910390f35b610213600480360381019061020e919061448a565b611776565b005b61022f600480360381019061022a9190614521565b611cf8565b60405161023e939291906153ef565b60405180910390f35b61024f612010565b60405161025d92919061532f565b60405180910390f35b610280600480360381019061027b919061435e565b612461565b005b61029c600480360381019061029791906143f5565b6129af565b6040516102ac9493929190615555565b60405180910390f35b6102cf60048036038101906102ca91906143f5565b613081565b6040516102dc9190615366565b60405180910390f35b6102ff60048036038101906102fa91906143f5565b613128565b60405161030f9493929190615502565b60405180910390f35b610332600480360381019061032d9190614521565b6132ab565b60405161034193929190615381565b60405180910390f35b610364600480360381019061035f9190614436565b6138d6565b6040516103729291906153c6565b60405180910390f35b610395600480360381019061039091906143f5565b6139d8565b6040516103a291906152c1565b60405180910390f35b6103c560048036038101906103c09190614521565b613af4565b005b6006828051602081018201805184825260208301602085012081835280955050505050506020528060005260406000206000915091505080600001549080600101805461041390615c80565b80601f016020809104026020016040519081016040528092919081815260200182805461043f90615c80565b801561048c5780601f106104615761010080835404028352916020019161048c565b820191906000526020600020905b81548152906001019060200180831161046f57829003601f168201915b5050505050908060020160009054906101000a900460ff16908060020160019054906101000a900460ff16905084565b600260003373ffffffffffffffffffffffffffffffffffffffff1673ffffffffffffffffffffffffffffffffffffffff16815260200190815260200160002060009054906101000a900460ff16610548576040517f08c379a000000000000000000000000000000000000000000000000000000000815260040161053f906155f4565b60405180910390fd5b600882511461058c576040517f08c379a0000000000000000000000000000000000000000000000000000000008152600401610583906158b4565b60405180910390fd5b600060048360405161059e9190615293565b908152602001604051809103902060000180546105ba90615c80565b9050116105fc576040517f08c379a00000000000000000000000000000000000000000000000000000000081526004016105f390615754565b60405180910390fd5b60068260405161060c9190615293565b908152602001604051809103902060008473ffffffffffffffffffffffffffffffffffffffff1673ffffffffffffffffffffffffffffffffffffffff16815260200190815260200160002060020160009054906101000a900460ff16156106a8576040517f08c379a000000000000000000000000000000000000000000000000000000000815260040161069f90615614565b60405180910390fd5b6040518060800160405280828152602001838152602001600115158152602001600015158152506006836040516106df9190615293565b908152602001604051809103902060008573ffffffffffffffffffffffffffffffffffffffff1673ffffffffffffffffffffffffffffffffffffffff168152602001908152602001600020600082015181600001556020820151816001019080519060200190610750929190613eb4565b5060408201518160020160006101000a81548160ff02191690831515021790555060608201518160020160016101000a81548160ff0219169083151502179055509050506005826040516107a49190615293565b9081526020016040518091039020839080600181540180825580915050600190039060005260206000200160009091909190916101000a81548173ffffffffffffffffffffffffffffffffffffffff021916908373ffffffffffffffffffffffffffffffffffffffff1602179055508273ffffffffffffffffffffffffffffffffffffffff167fffeb7702be7dcd8fee170d954b70afb9a7c78f7f5cff232d037e7b9d8243356a836040516108599190615479565b60405180910390a2505050565b6060806060600060048560405161087d9190615293565b9081526020016040518091039020600001805461089990615c80565b9050116108db576040517f08c379a00000000000000000000000000000000000000000000000000000000081526004016108d290615754565b60405180910390fd5b60006004856040516108ed9190615293565b9081526020016040518091039020905060008160030180549050905060008167ffffffffffffffff81111561094b577f4e487b7100000000000000000000000000000000000000000000000000000000600052604160045260246000fd5b60405190808252806020026020018201604052801561097e57816020015b60608152602001906001900390816109695790505b50905060008267ffffffffffffffff8111156109c3577f4e487b7100000000000000000000000000000000000000000000000000000000600052604160045260246000fd5b6040519080825280602002602001820160405280156109f657816020015b60608152602001906001900390816109e15790505b50905060008367ffffffffffffffff811115610a3b577f4e487b7100000000000000000000000000000000000000000000000000000000600052604160045260246000fd5b604051908082528060200260200182016040528015610a6e57816020015b6060815260200190600190039081610a595790505b50905060005b8481101561104857856003018181548110610ab8577f4e487b7100000000000000000000000000000000000000000000000000000000600052603260045260246000fd5b90600052602060002090600202016000018054610ad490615c80565b80601f0160208091040260200160405190810160405280929190818152602001828054610b0090615c80565b8015610b4d5780601f10610b2257610100808354040283529160200191610b4d565b820191906000526020600020905b815481529060010190602001808311610b3057829003601f168201915b5050505050848281518110610b8b577f4e487b7100000000000000000000000000000000000000000000000000000000600052603260045260246000fd5b60200260200101819052506000866003018281548110610bd4577f4e487b7100000000000000000000000000000000000000000000000000000000600052603260045260246000fd5b90600052602060002090600202016001018054905090508067ffffffffffffffff811115610c2b577f4e487b7100000000000000000000000000000000000000000000000000000000600052604160045260246000fd5b604051908082528060200260200182016040528015610c5e57816020015b6060815260200190600190039081610c495790505b50848381518110610c98577f4e487b7100000000000000000000000000000000000000000000000000000000600052603260045260246000fd5b60200260200101819052508067ffffffffffffffff811115610ce3577f4e487b7100000000000000000000000000000000000000000000000000000000600052604160045260246000fd5b604051908082528060200260200182016040528015610d115781602001602082028036833780820191505090505b50838381518110610d4b577f4e487b7100000000000000000000000000000000000000000000000000000000600052603260045260246000fd5b602002602001018190525060005b8181101561103357876003018381548110610d9d577f4e487b7100000000000000000000000000000000000000000000000000000000600052603260045260246000fd5b90600052602060002090600202016001018181548110610de6577f4e487b7100000000000000000000000000000000000000000000000000000000600052603260045260246000fd5b90600052602060002090600202016000018054610e0290615c80565b80601f0160208091040260200160405190810160405280929190818152602001828054610e2e90615c80565b8015610e7b5780601f10610e5057610100808354040283529160200191610e7b565b820191906000526020600020905b815481529060010190602001808311610e5e57829003601f168201915b5050505050858481518110610eb9577f4e487b7100000000000000000000000000000000000000000000000000000000600052603260045260246000fd5b60200260200101518281518110610ef9577f4e487b7100000000000000000000000000000000000000000000000000000000600052603260045260246000fd5b6020026020010181905250876003018381548110610f40577f4e487b7100000000000000000000000000000000000000000000000000000000600052603260045260246000fd5b90600052602060002090600202016001018181548110610f89577f4e487b7100000000000000000000000000000000000000000000000000000000600052603260045260246000fd5b906000526020600020906002020160010154848481518110610fd4577f4e487b7100000000000000000000000000000000000000000000000000000000600052603260045260246000fd5b60200260200101518281518110611014577f4e487b7100000000000000000000000000000000000000000000000000000000600052603260045260246000fd5b602002602001018181525050808061102b90615cb2565b915050610d59565b5050808061104090615cb2565b915050610a74565b5082828297509750975050505050509193909250565b60088451146110a2576040517f08c379a0000000000000000000000000000000000000000000000000000000008152600401611099906156d4565b60405180910390fd5b60008351116110e6576040517f08c379a00000000000000000000000000000000000000000000000000000000081526004016110dd906156b4565b60405180910390fd5b600082511161112a576040517f08c379a0000000000000000000000000000000000000000000000000000000008152600401611121906158f4565b60405180910390fd5b600060048560405161113c9190615293565b9081526020016040518091039020600001805461115890615c80565b90501461119a576040517f08c379a000000000000000000000000000000000000000000000000000000000815260040161119190615814565b60405180910390fd5b60006004856040516111ac9190615293565b90815260200160405180910390209050848160000190805190602001906111d4929190613eb4565b50838160010190805190602001906111ed929190613eb4565b50338160020160006101000a81548173ffffffffffffffffffffffffffffffffffffffff021916908373ffffffffffffffffffffffffffffffffffffffff16021790555060008160040160006101000a81548160ff02191690831515021790555060005b835181101561148157816003016001816001815401808255809150500390600052602060002090505060008260030182815481106112b8577f4e487b7100000000000000000000000000000000000000000000000000000000600052603260045260246000fd5b90600052602060002090600202019050848281518110611301577f4e487b7100000000000000000000000000000000000000000000000000000000600052603260045260246000fd5b6020026020010151816000019080519060200190611320929190613eb4565b5060005b84838151811061135d577f4e487b7100000000000000000000000000000000000000000000000000000000600052603260045260246000fd5b60200260200101515181101561146c578160010160405180604001604052808786815181106113b5577f4e487b7100000000000000000000000000000000000000000000000000000000600052603260045260246000fd5b602002602001015184815181106113f5577f4e487b7100000000000000000000000000000000000000000000000000000000600052603260045260246000fd5b6020026020010151815260200160008152509080600181540180825580915050600190039060005260206000209060020201600090919091909150600082015181600001908051906020019061144c929190613eb4565b50602082015181600101555050808061146490615cb2565b915050611324565b5050808061147990615cb2565b915050611251565b50600360003373ffffffffffffffffffffffffffffffffffffffff1673ffffffffffffffffffffffffffffffffffffffff168152602001908152602001600020859080600181540180825580915050600190039060005260206000200160009091909190915090805190602001906114fa929190613eb4565b503373ffffffffffffffffffffffffffffffffffffffff167f5d4ff6bed055bb6bb40742ad27d6df7113d8c7b79e6d1c37071a20e2cef7326886866040516115439291906154cb565b60405180910390a25050505050565b60006004826040516115649190615293565b9081526020016040518091039020600001805461158090615c80565b9050116115c2576040517f08c379a00000000000000000000000000000000000000000000000000000000081526004016115b990615754565b60405180910390fd5b6004816040516115d29190615293565b908152602001604051809103902060020160009054906101000a900473ffffffffffffffffffffffffffffffffffffffff1673ffffffffffffffffffffffffffffffffffffffff163373ffffffffffffffffffffffffffffffffffffffff1614611671576040517f08c379a000000000000000000000000000000000000000000000000000000000815260040161166890615714565b60405180910390fd5b6004816040516116819190615293565b908152602001604051809103902060040160009054906101000a900460ff16156116e0576040517f08c379a00000000000000000000000000000000000000000000000000000000081526004016116d790615694565b60405180910390fd5b60016004826040516116f29190615293565b908152602001604051809103902060040160006101000a81548160ff0219169083151502179055507f3ab689f5e761cb0d1f72addf7bf809ffc9e3651e8df6cd97c3a9f30db8b7026f813360405161174b92919061549b565b60405180910390a150565b60026020528060005260406000206000915054906101000a900460ff1681565b60006004846040516117889190615293565b908152602001604051809103902060000180546117a490615c80565b9050116117e6576040517f08c379a00000000000000000000000000000000000000000000000000000000081526004016117dd90615914565b60405180910390fd5b6004836040516117f69190615293565b908152602001604051809103902060040160009054906101000a900460ff1615611855576040517f08c379a000000000000000000000000000000000000000000000000000000000815260040161184c90615734565b60405180910390fd5b60006006846040516118679190615293565b908152602001604051809103902060003373ffffffffffffffffffffffffffffffffffffffff1673ffffffffffffffffffffffffffffffffffffffff16815260200190815260200160002090508060020160009054906101000a900460ff16611905576040517f08c379a00000000000000000000000000000000000000000000000000000000081526004016118fc906156f4565b60405180910390fd5b8060020160019054906101000a900460ff1615611957576040517f08c379a000000000000000000000000000000000000000000000000000000000815260040161194e90615774565b60405180910390fd5b815183511461199b576040517f08c379a0000000000000000000000000000000000000000000000000000000008152600401611992906158d4565b60405180910390fd5b60005b8351811015611c0057600033868684815181106119e4577f4e487b7100000000000000000000000000000000000000000000000000000000600052603260045260246000fd5b60200260200101516040516020016119fe9392919061525a565b6040516020818303038152906040528051906020012090506007600082815260200190815260200160002060009054906101000a900460ff1615611a77576040517f08c379a0000000000000000000000000000000000000000000000000000000008152600401611a6e90615674565b60405180910390fd5b600486604051611a879190615293565b9081526020016040518091039020600301858381518110611ad1577f4e487b7100000000000000000000000000000000000000000000000000000000600052603260045260246000fd5b602002602001015181548110611b10577f4e487b7100000000000000000000000000000000000000000000000000000000600052603260045260246000fd5b9060005260206000209060020201600101848381518110611b5a577f4e487b7100000000000000000000000000000000000000000000000000000000600052603260045260246000fd5b602002602001015181548110611b99577f4e487b7100000000000000000000000000000000000000000000000000000000600052603260045260246000fd5b90600052602060002090600202016001016000815480929190611bbb90615cb2565b919050555060016007600083815260200190815260200160002060006101000a81548160ff021916908315150217905550508080611bf890615cb2565b91505061199e565b5060018160020160016101000a81548160ff0219169083151502179055503373ffffffffffffffffffffffffffffffffffffffff167f73b0bbe16a2a3b202c20b72e73b4566642f8949c86e403a6e5bcc63cf05cd1638585600081518110611c91577f4e487b7100000000000000000000000000000000000000000000000000000000600052603260045260246000fd5b602002602001015185600081518110611cd3577f4e487b7100000000000000000000000000000000000000000000000000000000600052603260045260246000fd5b6020026020010151604051611cea939291906155b6565b60405180910390a250505050565b60008060606008855114611d41576040517f08c379a0000000000000000000000000000000000000000000000000000000008152600401611d38906158b4565b60405180910390fd5b6000600486604051611d539190615293565b90815260200160405180910390206000018054611d6f90615c80565b905011611db1576040517f08c379a0000000000000000000000000000000000000000000000000000000008152600401611da890615754565b60405180910390fd5b6000600686604051611dc39190615293565b908152602001604051809103902060003373ffffffffffffffffffffffffffffffffffffffff1673ffffffffffffffffffffffffffffffffffffffff16815260200190815260200160002090508060020160009054906101000a900460ff16611e61576040517f08c379a0000000000000000000000000000000000000000000000000000000008152600401611e58906157f4565b60405180910390fd5b85604051602001611e729190615293565b6040516020818303038152906040528051906020012081600101604051602001611e9c91906152aa565b6040516020818303038152906040528051906020012014611ef2576040517f08c379a0000000000000000000000000000000000000000000000000000000008152600401611ee990615874565b60405180910390fd5b84604051602001611f039190615293565b60405160208183030381529060405280519060200120816000015414611f5e576040517f08c379a0000000000000000000000000000000000000000000000000000000008152600401611f5590615634565b60405180910390fd5b60018160020160019054906101000a900460ff1682600101808054611f8290615c80565b80601f0160208091040260200160405190810160405280929190818152602001828054611fae90615c80565b8015611ffb5780601f10611fd057610100808354040283529160200191611ffb565b820191906000526020600020905b815481529060010190602001808311611fde57829003601f168201915b50505050509050935093509350509250925092565b6060806000600360003373ffffffffffffffffffffffffffffffffffffffff1673ffffffffffffffffffffffffffffffffffffffff16815260200190815260200160002080549050905060008167ffffffffffffffff81111561209c577f4e487b7100000000000000000000000000000000000000000000000000000000600052604160045260246000fd5b6040519080825280602002602001820160405280156120cf57816020015b60608152602001906001900390816120ba5790505b50905060008267ffffffffffffffff811115612114577f4e487b7100000000000000000000000000000000000000000000000000000000600052604160045260246000fd5b60405190808252806020026020018201604052801561214757816020015b60608152602001906001900390816121325790505b50905060005b83811015612453576000600360003373ffffffffffffffffffffffffffffffffffffffff1673ffffffffffffffffffffffffffffffffffffffff16815260200190815260200160002082815481106121ce577f4e487b7100000000000000000000000000000000000000000000000000000000600052603260045260246000fd5b9060005260206000200180546121e390615c80565b80601f016020809104026020016040519081016040528092919081815260200182805461220f90615c80565b801561225c5780601f106122315761010080835404028352916020019161225c565b820191906000526020600020905b81548152906001019060200180831161223f57829003601f168201915b505050505090506004816040516122739190615293565b9081526020016040518091039020600001805461228f90615c80565b80601f01602080910402602001604051908101604052809291908181526020018280546122bb90615c80565b80156123085780601f106122dd57610100808354040283529160200191612308565b820191906000526020600020905b8154815290600101906020018083116122eb57829003601f168201915b5050505050848381518110612346577f4e487b7100000000000000000000000000000000000000000000000000000000600052603260045260246000fd5b60200260200101819052506004816040516123619190615293565b9081526020016040518091039020600101805461237d90615c80565b80601f01602080910402602001604051908101604052809291908181526020018280546123a990615c80565b80156123f65780601f106123cb576101008083540402835291602001916123f6565b820191906000526020600020905b8154815290600101906020018083116123d957829003601f168201915b5050505050838381518110612434577f4e487b7100000000000000000000000000000000000000000000000000000000600052603260045260246000fd5b602002602001018190525050808061244b90615cb2565b91505061214d565b508181945094505050509091565b600260003373ffffffffffffffffffffffffffffffffffffffff1673ffffffffffffffffffffffffffffffffffffffff16815260200190815260200160002060009054906101000a900460ff166124ed576040517f08c379a00000000000000000000000000000000000000000000000000000000081526004016124e4906155f4565b60405180910390fd5b6008825114612531576040517f08c379a0000000000000000000000000000000000000000000000000000000008152600401612528906158b4565b60405180910390fd5b60006004836040516125439190615293565b9081526020016040518091039020600001805461255f90615c80565b9050116125a1576040517f08c379a000000000000000000000000000000000000000000000000000000000815260040161259890615754565b60405180910390fd5b80518351146125e5576040517f08c379a00000000000000000000000000000000000000000000000000000000081526004016125dc90615854565b60405180910390fd5b60005b83518110156129a9576006836040516126019190615293565b9081526020016040518091039020600085838151811061264a577f4e487b7100000000000000000000000000000000000000000000000000000000600052603260045260246000fd5b602002602001015173ffffffffffffffffffffffffffffffffffffffff1673ffffffffffffffffffffffffffffffffffffffff16815260200190815260200160002060020160009054906101000a900460ff16156126dd576040517f08c379a00000000000000000000000000000000000000000000000000000000081526004016126d490615614565b60405180910390fd5b6040518060800160405280838381518110612721577f4e487b7100000000000000000000000000000000000000000000000000000000600052603260045260246000fd5b60200260200101518152602001848152602001600115158152602001600015158152506006846040516127549190615293565b9081526020016040518091039020600086848151811061279d577f4e487b7100000000000000000000000000000000000000000000000000000000600052603260045260246000fd5b602002602001015173ffffffffffffffffffffffffffffffffffffffff1673ffffffffffffffffffffffffffffffffffffffff168152602001908152602001600020600082015181600001556020820151816001019080519060200190612805929190613eb4565b5060408201518160020160006101000a81548160ff02191690831515021790555060608201518160020160016101000a81548160ff0219169083151502179055509050506005836040516128599190615293565b90815260200160405180910390208482815181106128a0577f4e487b7100000000000000000000000000000000000000000000000000000000600052603260045260246000fd5b60200260200101519080600181540180825580915050600190039060005260206000200160009091909190916101000a81548173ffffffffffffffffffffffffffffffffffffffff021916908373ffffffffffffffffffffffffffffffffffffffff160217905550838181518110612941577f4e487b7100000000000000000000000000000000000000000000000000000000600052603260045260246000fd5b602002602001015173ffffffffffffffffffffffffffffffffffffffff167fffeb7702be7dcd8fee170d954b70afb9a7c78f7f5cff232d037e7b9d8243356a8460405161298e9190615479565b60405180910390a280806129a190615cb2565b9150506125e8565b50505050565b60608060608060006004866040516129c79190615293565b908152602001604051809103902060000180546129e390615c80565b905011612a25576040517f08c379a0000000000000000000000000000000000000000000000000000000008152600401612a1c90615754565b60405180910390fd5b6000600486604051612a379190615293565b9081526020016040518091039020905060008160030180549050905060008167ffffffffffffffff811115612a95577f4e487b7100000000000000000000000000000000000000000000000000000000600052604160045260246000fd5b604051908082528060200260200182016040528015612ac857816020015b6060815260200190600190039081612ab35790505b50905060008267ffffffffffffffff811115612b0d577f4e487b7100000000000000000000000000000000000000000000000000000000600052604160045260246000fd5b604051908082528060200260200182016040528015612b4057816020015b6060815260200190600190039081612b2b5790505b50905060005b83811015612f4b57846003018181548110612b8a577f4e487b7100000000000000000000000000000000000000000000000000000000600052603260045260246000fd5b90600052602060002090600202016000018054612ba690615c80565b80601f0160208091040260200160405190810160405280929190818152602001828054612bd290615c80565b8015612c1f5780601f10612bf457610100808354040283529160200191612c1f565b820191906000526020600020905b815481529060010190602001808311612c0257829003601f168201915b5050505050838281518110612c5d577f4e487b7100000000000000000000000000000000000000000000000000000000600052603260045260246000fd5b60200260200101819052506000856003018281548110612ca6577f4e487b7100000000000000000000000000000000000000000000000000000000600052603260045260246000fd5b90600052602060002090600202016001018054905090508067ffffffffffffffff811115612cfd577f4e487b7100000000000000000000000000000000000000000000000000000000600052604160045260246000fd5b604051908082528060200260200182016040528015612d3057816020015b6060815260200190600190039081612d1b5790505b50838381518110612d6a577f4e487b7100000000000000000000000000000000000000000000000000000000600052603260045260246000fd5b602002602001018190525060005b81811015612f3657866003018381548110612dbc577f4e487b7100000000000000000000000000000000000000000000000000000000600052603260045260246000fd5b90600052602060002090600202016001018181548110612e05577f4e487b7100000000000000000000000000000000000000000000000000000000600052603260045260246000fd5b90600052602060002090600202016000018054612e2190615c80565b80601f0160208091040260200160405190810160405280929190818152602001828054612e4d90615c80565b8015612e9a5780601f10612e6f57610100808354040283529160200191612e9a565b820191906000526020600020905b815481529060010190602001808311612e7d57829003601f168201915b5050505050848481518110612ed8577f4e487b7100000000000000000000000000000000000000000000000000000000600052603260045260246000fd5b60200260200101518281518110612f18577f4e487b7100000000000000000000000000000000000000000000000000000000600052603260045260246000fd5b60200260200101819052508080612f2e90615cb2565b915050612d78565b50508080612f4390615cb2565b915050612b46565b5083600001846001018383838054612f6290615c80565b80601f0160208091040260200160405190810160405280929190818152602001828054612f8e90615c80565b8015612fdb5780601f10612fb057610100808354040283529160200191612fdb565b820191906000526020600020905b815481529060010190602001808311612fbe57829003601f168201915b50505050509350828054612fee90615c80565b80601f016020809104026020016040519081016040528092919081815260200182805461301a90615c80565b80156130675780601f1061303c57610100808354040283529160200191613067565b820191906000526020600020905b81548152906001019060200180831161304a57829003601f168201915b505050505092509750975097509750505050509193509193565b6000806004836040516130949190615293565b908152602001604051809103902060000180546130b090615c80565b9050116130f2576040517f08c379a00000000000000000000000000000000000000000000000000000000081526004016130e990615754565b60405180910390fd5b6004826040516131029190615293565b908152602001604051809103902060040160009054906101000a900460ff169050919050565b60048180516020810182018051848252602083016020850120818352809550505050505060009150905080600001805461316190615c80565b80601f016020809104026020016040519081016040528092919081815260200182805461318d90615c80565b80156131da5780601f106131af576101008083540402835291602001916131da565b820191906000526020600020905b8154815290600101906020018083116131bd57829003601f168201915b5050505050908060010180546131ef90615c80565b80601f016020809104026020016040519081016040528092919081815260200182805461321b90615c80565b80156132685780601f1061323d57610100808354040283529160200191613268565b820191906000526020600020905b81548152906001019060200180831161324b57829003601f168201915b5050505050908060020160009054906101000a900473ffffffffffffffffffffffffffffffffffffffff16908060040160009054906101000a900460ff16905084565b600060608060006001866040516132c29190615293565b908152602001604051809103902060009054906101000a900473ffffffffffffffffffffffffffffffffffffffff169050600073ffffffffffffffffffffffffffffffffffffffff168173ffffffffffffffffffffffffffffffffffffffff161415613363576040517f08c379a000000000000000000000000000000000000000000000000000000000815260040161335a90615894565b60405180910390fd5b3373ffffffffffffffffffffffffffffffffffffffff168173ffffffffffffffffffffffffffffffffffffffff16146133d1576040517f08c379a00000000000000000000000000000000000000000000000000000000081526004016133c890615834565b60405180910390fd5b60008060008373ffffffffffffffffffffffffffffffffffffffff1673ffffffffffffffffffffffffffffffffffffffff1681526020019081526020016000209050856040516020016134249190615293565b6040516020818303038152906040528051906020012081600101541461347f576040517f08c379a000000000000000000000000000000000000000000000000000000000815260040161347690615634565b60405180910390fd5b6000600360008473ffffffffffffffffffffffffffffffffffffffff1673ffffffffffffffffffffffffffffffffffffffff16815260200190815260200160002080549050905060008167ffffffffffffffff811115613508577f4e487b7100000000000000000000000000000000000000000000000000000000600052604160045260246000fd5b60405190808252806020026020018201604052801561353b57816020015b60608152602001906001900390816135265790505b50905060008267ffffffffffffffff811115613580577f4e487b7100000000000000000000000000000000000000000000000000000000600052604160045260246000fd5b6040519080825280602002602001820160405280156135b357816020015b606081526020019060019003908161359e5790505b50905060005b838110156138bf576000600360008873ffffffffffffffffffffffffffffffffffffffff1673ffffffffffffffffffffffffffffffffffffffff168152602001908152602001600020828154811061363a577f4e487b7100000000000000000000000000000000000000000000000000000000600052603260045260246000fd5b90600052602060002001805461364f90615c80565b80601f016020809104026020016040519081016040528092919081815260200182805461367b90615c80565b80156136c85780601f1061369d576101008083540402835291602001916136c8565b820191906000526020600020905b8154815290600101906020018083116136ab57829003601f168201915b505050505090506004816040516136df9190615293565b908152602001604051809103902060000180546136fb90615c80565b80601f016020809104026020016040519081016040528092919081815260200182805461372790615c80565b80156137745780601f1061374957610100808354040283529160200191613774565b820191906000526020600020905b81548152906001019060200180831161375757829003601f168201915b50505050508483815181106137b2577f4e487b7100000000000000000000000000000000000000000000000000000000600052603260045260246000fd5b60200260200101819052506004816040516137cd9190615293565b908152602001604051809103902060010180546137e990615c80565b80601f016020809104026020016040519081016040528092919081815260200182805461381590615c80565b80156138625780601f1061383757610100808354040283529160200191613862565b820191906000526020600020905b81548152906001019060200180831161384557829003601f168201915b50505050508383815181106138a0577f4e487b7100000000000000000000000000000000000000000000000000000000600052603260045260246000fd5b60200260200101819052505080806138b790615cb2565b9150506135b9565b506001828297509750975050505050509250925092565b60008060006004856040516138eb9190615293565b9081526020016040518091039020600001805461390790615c80565b905011613949576040517f08c379a000000000000000000000000000000000000000000000000000000000815260040161394090615754565b60405180910390fd5b600060068560405161395b9190615293565b908152602001604051809103902060008573ffffffffffffffffffffffffffffffffffffffff1673ffffffffffffffffffffffffffffffffffffffff16815260200190815260200160002090508060020160009054906101000a900460ff168160020160019054906101000a900460ff1692509250509250929050565b606060006004836040516139ec9190615293565b90815260200160405180910390206000018054613a0890615c80565b905011613a4a576040517f08c379a0000000000000000000000000000000000000000000000000000000008152600401613a4190615754565b60405180910390fd5b600582604051613a5a9190615293565b9081526020016040518091039020805480602002602001604051908101604052809291908181526020018280548015613ae857602002820191906000526020600020905b8160009054906101000a900473ffffffffffffffffffffffffffffffffffffffff1673ffffffffffffffffffffffffffffffffffffffff1681526020019060010190808311613a9e575b50505050509050919050565b6000825111613b38576040517f08c379a0000000000000000000000000000000000000000000000000000000008152600401613b2f90615654565b60405180910390fd5b6000815111613b7c576040517f08c379a0000000000000000000000000000000000000000000000000000000008152600401613b73906157b4565b60405180910390fd5b600073ffffffffffffffffffffffffffffffffffffffff16600183604051613ba49190615293565b908152602001604051809103902060009054906101000a900473ffffffffffffffffffffffffffffffffffffffff1673ffffffffffffffffffffffffffffffffffffffff1614613c29576040517f08c379a0000000000000000000000000000000000000000000000000000000008152600401613c2090615794565b60405180910390fd5b600260003373ffffffffffffffffffffffffffffffffffffffff1673ffffffffffffffffffffffffffffffffffffffff16815260200190815260200160002060009054906101000a900460ff1615613cb6576040517f08c379a0000000000000000000000000000000000000000000000000000000008152600401613cad906157d4565b60405180910390fd5b600081604051602001613cc99190615293565b60405160208183030381529060405280519060200120905060405180606001604052808481526020018281526020013373ffffffffffffffffffffffffffffffffffffffff168152506000803373ffffffffffffffffffffffffffffffffffffffff1673ffffffffffffffffffffffffffffffffffffffff1681526020019081526020016000206000820151816000019080519060200190613d6c929190613eb4565b506020820151816001015560408201518160020160006101000a81548173ffffffffffffffffffffffffffffffffffffffff021916908373ffffffffffffffffffffffffffffffffffffffff16021790555090505033600184604051613dd29190615293565b908152602001604051809103902060006101000a81548173ffffffffffffffffffffffffffffffffffffffff021916908373ffffffffffffffffffffffffffffffffffffffff1602179055506001600260003373ffffffffffffffffffffffffffffffffffffffff1673ffffffffffffffffffffffffffffffffffffffff16815260200190815260200160002060006101000a81548160ff0219169083151502179055507fdc66d5625246d2f0a5a37b7a15ab06b88858e01299d7b3861ffc77ef178984518333604051613ea792919061549b565b60405180910390a1505050565b828054613ec090615c80565b90600052602060002090601f016020900481019282613ee25760008555613f29565b82601f10613efb57805160ff1916838001178555613f29565b82800160010185558215613f29579182015b82811115613f28578251825591602001919060010190613f0d565b5b509050613f369190613f3a565b5090565b5b80821115613f53576000816000905550600101613f3b565b5090565b6000613f6a613f6584615965565b615934565b90508083825260208201905082856020860282011115613f8957600080fd5b60005b85811015613fb95781613f9f8882614193565b845260208401935060208301925050600181019050613f8c565b5050509392505050565b6000613fd6613fd184615991565b615934565b9050808382526020820190508260005b858110156140165781358501613ffc8882614226565b845260208401935060208301925050600181019050613fe6565b5050509392505050565b600061403361402e846159bd565b615934565b9050808382526020820190508285602086028201111561405257600080fd5b60005b858110156140825781614068888261427a565b845260208401935060208301925050600181019050614055565b5050509392505050565b600061409f61409a846159e9565b615934565b9050808382526020820190508260005b858110156140df57813585016140c5888261428f565b8452602084019350602083019250506001810190506140af565b5050509392505050565b60006140fc6140f784615a15565b615934565b9050808382526020820190508285602086028201111561411b57600080fd5b60005b8581101561414b578161413188826142b9565b84526020840193506020830192505060018101905061411e565b5050509392505050565b600061416861416384615a41565b615934565b90508281526020810184848401111561418057600080fd5b61418b848285615c3e565b509392505050565b6000813590506141a281615dd4565b92915050565b600082601f8301126141b957600080fd5b81356141c9848260208601613f57565b91505092915050565b600082601f8301126141e357600080fd5b81356141f3848260208601613fc3565b91505092915050565b600082601f83011261420d57600080fd5b813561421d848260208601614020565b91505092915050565b600082601f83011261423757600080fd5b813561424784826020860161408c565b91505092915050565b600082601f83011261426157600080fd5b81356142718482602086016140e9565b91505092915050565b60008135905061428981615deb565b92915050565b600082601f8301126142a057600080fd5b81356142b0848260208601614155565b91505092915050565b6000813590506142c881615e02565b92915050565b6000602082840312156142e057600080fd5b60006142ee84828501614193565b91505092915050565b60008060006060848603121561430c57600080fd5b600061431a86828701614193565b935050602084013567ffffffffffffffff81111561433757600080fd5b6143438682870161428f565b92505060406143548682870161427a565b9150509250925092565b60008060006060848603121561437357600080fd5b600084013567ffffffffffffffff81111561438d57600080fd5b614399868287016141a8565b935050602084013567ffffffffffffffff8111156143b657600080fd5b6143c28682870161428f565b925050604084013567ffffffffffffffff8111156143df57600080fd5b6143eb868287016141fc565b9150509250925092565b60006020828403121561440757600080fd5b600082013567ffffffffffffffff81111561442157600080fd5b61442d8482850161428f565b91505092915050565b6000806040838503121561444957600080fd5b600083013567ffffffffffffffff81111561446357600080fd5b61446f8582860161428f565b925050602061448085828601614193565b9150509250929050565b60008060006060848603121561449f57600080fd5b600084013567ffffffffffffffff8111156144b957600080fd5b6144c58682870161428f565b935050602084013567ffffffffffffffff8111156144e257600080fd5b6144ee86828701614250565b925050604084013567ffffffffffffffff81111561450b57600080fd5b61451786828701614250565b9150509250925092565b6000806040838503121561453457600080fd5b600083013567ffffffffffffffff81111561454e57600080fd5b61455a8582860161428f565b925050602083013567ffffffffffffffff81111561457757600080fd5b6145838582860161428f565b9150509250929050565b600080600080608085870312156145a357600080fd5b600085013567ffffffffffffffff8111156145bd57600080fd5b6145c98782880161428f565b945050602085013567ffffffffffffffff8111156145e657600080fd5b6145f28782880161428f565b935050604085013567ffffffffffffffff81111561460f57600080fd5b61461b87828801614226565b925050606085013567ffffffffffffffff81111561463857600080fd5b614644878288016141d2565b91505092959194509250565b600061465c83836146bc565b60208301905092915050565b60006146748383614839565b905092915050565b60006146888383614923565b905092915050565b600061469c838361499f565b905092915050565b60006146b08383615225565b60208301905092915050565b6146c581615bec565b82525050565b6146d481615bec565b82525050565b6146eb6146e682615bec565b615cfb565b82525050565b60006146fc82615ad6565b6147068185615b59565b935061471183615a71565b8060005b838110156147425781516147298882614650565b975061473483615b18565b925050600181019050614715565b5085935050505092915050565b600061475a82615ae1565b6147648185615b6a565b93508360208202850161477685615a81565b8060005b858110156147b257848403895281516147938582614668565b945061479e83615b25565b925060208a0199505060018101905061477a565b50829750879550505050505092915050565b60006147cf82615aec565b6147d98185615b7b565b9350836020820285016147eb85615a91565b8060005b858110156148275784840389528151614808858261467c565b945061481383615b32565b925060208a019950506001810190506147ef565b50829750879550505050505092915050565b600061484482615af7565b61484e8185615b8c565b93508360208202850161486085615aa1565b8060005b8581101561489c578484038952815161487d8582614690565b945061488883615b3f565b925060208a01995050600181019050614864565b50829750879550505050505092915050565b60006148b982615af7565b6148c38185615b9d565b9350836020820285016148d585615aa1565b8060005b8581101561491157848403895281516148f28582614690565b94506148fd83615b3f565b925060208a019950506001810190506148d9565b50829750879550505050505092915050565b600061492e82615b02565b6149388185615bae565b935061494383615ab1565b8060005b8381101561497457815161495b88826146a4565b975061496683615b4c565b925050600181019050614947565b5085935050505092915050565b61498a81615bfe565b82525050565b61499981615c0a565b82525050565b60006149aa82615b0d565b6149b48185615bbf565b93506149c4818560208601615c4d565b6149cd81615db6565b840191505092915050565b60006149e382615b0d565b6149ed8185615bd0565b93506149fd818560208601615c4d565b614a0681615db6565b840191505092915050565b6000614a1c82615b0d565b614a268185615be1565b9350614a36818560208601615c4d565b80840191505092915050565b60008154614a4f81615c80565b614a598186615be1565b94506001821660008114614a745760018114614a8557614ab8565b60ff19831686528186019350614ab8565b614a8e85615ac1565b60005b83811015614ab057815481890152600182019150602081019050614a91565b838801955050505b50505092915050565b6000614ace601f83615bd0565b91507f4f6e6c792061646d696e732063616e20726567697374657220766f74657273006000830152602082019050919050565b6000614b0e602883615bd0565b91507f566f74657220616c7265616479207265676973746572656420666f722074686960008301527f732062616c6c6f740000000000000000000000000000000000000000000000006020830152604082019050919050565b6000614b74601283615bd0565b91507f496e636f72726563742070617373776f726400000000000000000000000000006000830152602082019050919050565b6000614bb4601183615bd0565b91507f557365726e616d652072657175697265640000000000000000000000000000006000830152602082019050919050565b6000614bf4601f83615bd0565b91507f416c726561647920766f74656420666f72207468697320706f736974696f6e006000830152602082019050919050565b6000614c34601883615bd0565b91507f566f74696e6720697320616c726561647920636c6f73656400000000000000006000830152602082019050919050565b6000614c74601583615bd0565b91507f42616c6c6f74207469746c6520726571756972656400000000000000000000006000830152602082019050919050565b6000614cb4602b83615bd0565b91507f42616c6c6f74204944206d7573742062652065786163746c792038206368617260008301527f616374657273206c6f6e670000000000000000000000000000000000000000006020830152604082019050919050565b6000614d1a601483615bd0565b91507f566f746572206e6f7420726567697374657265640000000000000000000000006000830152602082019050919050565b6000614d5a602883615bd0565b91507f4f6e6c79207468652062616c6c6f742063726561746f722063616e20636c6f7360008301527f6520766f74696e670000000000000000000000000000000000000000000000006020830152604082019050919050565b6000614dc0601083615bd0565b91507f566f74696e672068617320656e646564000000000000000000000000000000006000830152602082019050919050565b6000614e00601883615bd0565b91507f42616c6c6f7420494420646f6573206e6f7420657869737400000000000000006000830152602082019050919050565b6000614e40602183615bd0565b91507f596f75206861766520616c726561647920636f6d706c6574656420766f74696e60008301527f67000000000000000000000000000000000000000000000000000000000000006020830152604082019050919050565b6000614ea6601783615bd0565b91507f557365726e616d6520616c7265616479206578697374730000000000000000006000830152602082019050919050565b6000614ee6601183615bd0565b91507f50617373776f72642072657175697265640000000000000000000000000000006000830152602082019050919050565b6000614f26601883615bd0565b91507f41646d696e20616c7265616479207265676973746572656400000000000000006000830152602082019050919050565b6000614f66602383615bd0565b91507f566f746572206e6f74207265676973746572656420666f7220616e792062616c60008301527f6c6f7400000000000000000000000000000000000000000000000000000000006020830152604082019050919050565b6000614fcc601883615bd0565b91507f42616c6c6f7420494420616c72656164792065786973747300000000000000006000830152602082019050919050565b600061500c603283615bd0565b91507f556e617574686f72697a65643a2055736520796f75722072656769737465726560008301527f64204d6574614d61736b206164647265737300000000000000000000000000006020830152604082019050919050565b6000615072601883615bd0565b91507f4d69736d617463686564206172726179206c656e6774687300000000000000006000830152602082019050919050565b60006150b2601283615bd0565b91507f42616c6c6f74204944206d69736d6174636800000000000000000000000000006000830152602082019050919050565b60006150f2600f83615bd0565b91507f41646d696e206e6f7420666f756e6400000000000000000000000000000000006000830152602082019050919050565b6000615132601183615bd0565b91507f496e76616c69642042616c6c6f742049440000000000000000000000000000006000830152602082019050919050565b6000615172601183615bd0565b91507f496e76616c696420766f746520646174610000000000000000000000000000006000830152602082019050919050565b60006151b2601e83615bd0565b91507f4174206c65617374206f6e6520706f736974696f6e20726571756972656400006000830152602082019050919050565b60006151f2601183615bd0565b91507f496e76616c69642062616c6c6f742049440000000000000000000000000000006000830152602082019050919050565b61522e81615c34565b82525050565b61523d81615c34565b82525050565b61525461524f82615c34565b615d1f565b82525050565b600061526682866146da565b6014820191506152768285614a11565b91506152828284615243565b602082019150819050949350505050565b600061529f8284614a11565b915081905092915050565b60006152b68284614a42565b915081905092915050565b600060208201905081810360008301526152db81846146f1565b905092915050565b600060608201905081810360008301526152fd81866148ae565b90508181036020830152615311818561474f565b9050818103604083015261532581846147c4565b9050949350505050565b6000604082019050818103600083015261534981856148ae565b9050818103602083015261535d81846148ae565b90509392505050565b600060208201905061537b6000830184614981565b92915050565b60006060820190506153966000830186614981565b81810360208301526153a881856148ae565b905081810360408301526153bc81846148ae565b9050949350505050565b60006040820190506153db6000830185614981565b6153e86020830184614981565b9392505050565b60006060820190506154046000830186614981565b6154116020830185614981565b818103604083015261542381846149d8565b9050949350505050565b60006080820190506154426000830187614990565b818103602083015261545481866149d8565b90506154636040830185614981565b6154706060830184614981565b95945050505050565b6000602082019050818103600083015261549381846149d8565b905092915050565b600060408201905081810360008301526154b581856149d8565b90506154c460208301846146cb565b9392505050565b600060408201905081810360008301526154e581856149d8565b905081810360208301526154f981846149d8565b90509392505050565b6000608082019050818103600083015261551c81876149d8565b9050818103602083015261553081866149d8565b905061553f60408301856146cb565b61554c6060830184614981565b95945050505050565b6000608082019050818103600083015261556f81876149d8565b9050818103602083015261558381866149d8565b9050818103604083015261559781856148ae565b905081810360608301526155ab818461474f565b905095945050505050565b600060608201905081810360008301526155d081866149d8565b90506155df6020830185615234565b6155ec6040830184615234565b949350505050565b6000602082019050818103600083015261560d81614ac1565b9050919050565b6000602082019050818103600083015261562d81614b01565b9050919050565b6000602082019050818103600083015261564d81614b67565b9050919050565b6000602082019050818103600083015261566d81614ba7565b9050919050565b6000602082019050818103600083015261568d81614be7565b9050919050565b600060208201905081810360008301526156ad81614c27565b9050919050565b600060208201905081810360008301526156cd81614c67565b9050919050565b600060208201905081810360008301526156ed81614ca7565b9050919050565b6000602082019050818103600083015261570d81614d0d565b9050919050565b6000602082019050818103600083015261572d81614d4d565b9050919050565b6000602082019050818103600083015261574d81614db3565b9050919050565b6000602082019050818103600083015261576d81614df3565b9050919050565b6000602082019050818103600083015261578d81614e33565b9050919050565b600060208201905081810360008301526157ad81614e99565b9050919050565b600060208201905081810360008301526157cd81614ed9565b9050919050565b600060208201905081810360008301526157ed81614f19565b9050919050565b6000602082019050818103600083015261580d81614f59565b9050919050565b6000602082019050818103600083015261582d81614fbf565b9050919050565b6000602082019050818103600083015261584d81614fff565b9050919050565b6000602082019050818103600083015261586d81615065565b9050919050565b6000602082019050818103600083015261588d816150a5565b9050919050565b600060208201905081810360008301526158ad816150e5565b9050919050565b600060208201905081810360008301526158cd81615125565b9050919050565b600060208201905081810360008301526158ed81615165565b9050919050565b6000602082019050818103600083015261590d816151a5565b9050919050565b6000602082019050818103600083015261592d816151e5565b9050919050565b6000604051905081810181811067ffffffffffffffff8211171561595b5761595a615d87565b5b8060405250919050565b600067ffffffffffffffff8211156159805761597f615d87565b5b602082029050602081019050919050565b600067ffffffffffffffff8211156159ac576159ab615d87565b5b602082029050602081019050919050565b600067ffffffffffffffff8211156159d8576159d7615d87565b5b602082029050602081019050919050565b600067ffffffffffffffff821115615a0457615a03615d87565b5b602082029050602081019050919050565b600067ffffffffffffffff821115615a3057615a2f615d87565b5b602082029050602081019050919050565b600067ffffffffffffffff821115615a5c57615a5b615d87565b5b601f19601f8301169050602081019050919050565b6000819050602082019050919050565b6000819050602082019050919050565b6000819050602082019050919050565b6000819050602082019050919050565b6000819050602082019050919050565b60008190508160005260206000209050919050565b600081519050919050565b600081519050919050565b600081519050919050565b600081519050919050565b600081519050919050565b600081519050919050565b6000602082019050919050565b6000602082019050919050565b6000602082019050919050565b6000602082019050919050565b6000602082019050919050565b600082825260208201905092915050565b600082825260208201905092915050565b600082825260208201905092915050565b600082825260208201905092915050565b600082825260208201905092915050565b600082825260208201905092915050565b600082825260208201905092915050565b600082825260208201905092915050565b600081905092915050565b6000615bf782615c14565b9050919050565b60008115159050919050565b6000819050919050565b600073ffffffffffffffffffffffffffffffffffffffff82169050919050565b6000819050919050565b82818337600083830152505050565b60005b83811015615c6b578082015181840152602081019050615c50565b83811115615c7a576000848401525b50505050565b60006002820490506001821680615c9857607f821691505b60208210811415615cac57615cab615d58565b5b50919050565b6000615cbd82615c34565b91507fffffffffffffffffffffffffffffffffffffffffffffffffffffffffffffffff821415615cf057615cef615d29565b5b600182019050919050565b6000615d0682615d0d565b9050919050565b6000615d1882615dc7565b9050919050565b6000819050919050565b7f4e487b7100000000000000000000000000000000000000000000000000000000600052601160045260246000fd5b7f4e487b7100000000000000000000000000000000000000000000000000000000600052602260045260246000fd5b7f4e487b7100000000000000000000000000000000000000000000000000000000600052604160045260246000fd5b6000601f19601f8301169050919050565b60008160601b9050919050565b615ddd81615bec565b8114615de857600080fd5b50565b615df481615c0a565b8114615dff57600080fd5b50565b615e0b81615c34565b8114615e1657600080fd5b5056fea2646970667358221220a470081d78c380d5e2423a063b59c752c1ac6a8f5d3d768ba13c0281e79d07e964736f6c63430008000033",
  "immutableReferences": {},
  "source": "// SPDX-License-Identifier: MIT\r\npragma solidity ^0.8.0;\r\n\r\ncontract VotingSystem {\r\n    struct Admin {\r\n        string username;\r\n        bytes32 hashedPassword;\r\n        address adminAddress;\r\n    }\r\n\r\n    struct Candidate {\r\n        string name;\r\n        uint voteCount;\r\n    }\r\n\r\n    struct Position {\r\n        string name;\r\n        Candidate[] candidates;\r\n    }\r\n\r\n    struct Ballot {\r\n        string id;\r\n        string title;\r\n        address adminAddress;\r\n        Position[] positions;\r\n        bool isClosed;\r\n    }\r\n\r\n    struct Voter {\r\n        bytes32 hashedPassword;\r\n        string ballotId;\r\n        bool isRegistered;\r\n        bool hasVoted;\r\n    }\r\n\r\n    // Admin storage\r\n    mapping(address => Admin) private admins;\r\n    mapping(string => address) private usernameToAddress;\r\n    mapping(address => bool) public isAdminRegistered;\r\n    mapping(address => string[]) private adminBallots;\r\n\r\n    // Ballot storage\r\n    mapping(string => Ballot) public ballots;\r\n    mapping(string => address[]) private ballotVoters; // Voters per ballot\r\n\r\n    // Voter storage (ballot-specific)\r\n    mapping(string => mapping(address => Voter)) public registeredVoters;\r\n\r\n    // Voting tracking\r\n    mapping(bytes32 => bool) private positionVotes;\r\n\r\n    // Events\r\n    event AdminRegistered(string username, address adminAddress);\r\n    event BallotCreated(string ballotId, string title, address indexed admin);\r\n    event VoterRegistered(address indexed voter, string ballotId);\r\n    event VoteCasted(address indexed voter, string ballotId, uint positionIndex, uint candidateIndex);\r\n    event VotingEnded(string ballotId, address admin);\r\n\r\n    // ---------------- Admin functions ----------------\r\n    function registerAdmin(string memory _username, string memory _password) public {\r\n        require(bytes(_username).length > 0, \"Username required\");\r\n        require(bytes(_password).length > 0, \"Password required\");\r\n        require(usernameToAddress[_username] == address(0), \"Username already exists\");\r\n        require(!isAdminRegistered[msg.sender], \"Admin already registered\");\r\n\r\n        bytes32 hashedPassword = keccak256(abi.encodePacked(_password));\r\n        admins[msg.sender] = Admin(_username, hashedPassword, msg.sender);\r\n        usernameToAddress[_username] = msg.sender;\r\n        isAdminRegistered[msg.sender] = true;\r\n\r\n        emit AdminRegistered(_username, msg.sender);\r\n    }\r\n\r\n    function adminLogin(string memory _username, string memory _password) \r\n        public view returns (bool, string[] memory, string[] memory) \r\n    {\r\n        address adminAddr = usernameToAddress[_username];\r\n        require(adminAddr != address(0), \"Admin not found\");\r\n        require(adminAddr == msg.sender, \"Unauthorized: Use your registered MetaMask address\");\r\n\r\n        Admin storage admin = admins[adminAddr];\r\n        require(admin.hashedPassword == keccak256(abi.encodePacked(_password)), \"Incorrect password\");\r\n\r\n        uint ballotCount = adminBallots[adminAddr].length;\r\n        string[] memory ballotIds = new string[](ballotCount);\r\n        string[] memory ballotTitles = new string[](ballotCount);\r\n\r\n        for (uint i = 0; i < ballotCount; i++) {\r\n            string memory ballotId = adminBallots[adminAddr][i];\r\n            ballotIds[i] = ballots[ballotId].id;\r\n            ballotTitles[i] = ballots[ballotId].title;\r\n        }\r\n\r\n        return (true, ballotIds, ballotTitles);\r\n    }\r\n\r\n    // ---------------- Ballot functions ----------------\r\n    function createBallot(\r\n        string memory _ballotId,\r\n        string memory _title,\r\n        string[] memory _positionNames,\r\n        string[][] memory _candidateNames\r\n    ) public {\r\n        require(bytes(_ballotId).length == 8, \"Ballot ID must be exactly 8 characters long\");\r\n        require(bytes(_title).length > 0, \"Ballot title required\");\r\n        require(_positionNames.length > 0, \"At least one position required\");\r\n        require(bytes(ballots[_ballotId].id).length == 0, \"Ballot ID already exists\");\r\n\r\n        Ballot storage newBallot = ballots[_ballotId];\r\n        newBallot.id = _ballotId;\r\n        newBallot.title = _title;\r\n        newBallot.adminAddress = msg.sender;\r\n        newBallot.isClosed = false;\r\n\r\n        for (uint i = 0; i < _positionNames.length; i++) {\r\n            newBallot.positions.push();\r\n            Position storage newPosition = newBallot.positions[i];\r\n            newPosition.name = _positionNames[i];\r\n\r\n            for (uint j = 0; j < _candidateNames[i].length; j++) {\r\n                newPosition.candidates.push(Candidate(_candidateNames[i][j], 0));\r\n            }\r\n        }\r\n\r\n        adminBallots[msg.sender].push(_ballotId);\r\n        emit BallotCreated(_ballotId, _title, msg.sender);\r\n    }\r\n\r\n    // ---------------- Voter registration ----------------\r\n    function registerVoter(address _voter, string memory _ballotId, bytes32 _hashedPassword) public {\r\n        require(isAdminRegistered[msg.sender], \"Only admins can register voters\");\r\n        require(bytes(_ballotId).length == 8, \"Invalid Ballot ID\");\r\n        require(bytes(ballots[_ballotId].id).length > 0, \"Ballot ID does not exist\");\r\n        require(!registeredVoters[_ballotId][_voter].isRegistered, \"Voter already registered for this ballot\");\r\n\r\n        registeredVoters[_ballotId][_voter] = Voter({\r\n            hashedPassword: _hashedPassword,\r\n            ballotId: _ballotId,\r\n            isRegistered: true,\r\n            hasVoted: false\r\n        });\r\n\r\n        ballotVoters[_ballotId].push(_voter);\r\n        emit VoterRegistered(_voter, _ballotId);\r\n    }\r\n    function getVoterStatus(string memory _ballotId, address _voter)\r\n    public\r\n    view\r\n    returns (bool isRegistered, bool hasVoted)\r\n{\r\n    require(bytes(ballots[_ballotId].id).length > 0, \"Ballot ID does not exist\");\r\n\r\n    Voter storage voter = registeredVoters[_ballotId][_voter];\r\n    return (voter.isRegistered, voter.hasVoted);\r\n}\r\n\r\n\r\n    function registerMultipleVoters(\r\n        address[] memory _voterAddresses,\r\n        string memory _ballotId,\r\n        bytes32[] memory _hashedPasswords\r\n    ) public {\r\n        require(isAdminRegistered[msg.sender], \"Only admins can register voters\");\r\n        require(bytes(_ballotId).length == 8, \"Invalid Ballot ID\");\r\n        require(bytes(ballots[_ballotId].id).length > 0, \"Ballot ID does not exist\");\r\n        require(_voterAddresses.length == _hashedPasswords.length, \"Mismatched array lengths\");\r\n\r\n        for (uint i = 0; i < _voterAddresses.length; i++) {\r\n            require(!registeredVoters[_ballotId][_voterAddresses[i]].isRegistered, \r\n                \"Voter already registered for this ballot\");\r\n\r\n            registeredVoters[_ballotId][_voterAddresses[i]] = Voter({\r\n                hashedPassword: _hashedPasswords[i],\r\n                ballotId: _ballotId,\r\n                isRegistered: true,\r\n                hasVoted: false\r\n            });\r\n\r\n            ballotVoters[_ballotId].push(_voterAddresses[i]);\r\n            emit VoterRegistered(_voterAddresses[i], _ballotId);\r\n        }\r\n    }\r\n\r\n    function getVotersForBallot(string memory _ballotId) public view returns (address[] memory) {\r\n        require(bytes(ballots[_ballotId].id).length > 0, \"Ballot ID does not exist\");\r\n        return ballotVoters[_ballotId];\r\n    }\r\n\r\n    // ---------------- Voting ----------------\r\n    function authenticateVoter(string memory _ballotId, string memory _password) \r\n        public view returns (bool isAuthenticated, bool hasVoted, string memory ballotId) \r\n    {\r\n        require(bytes(_ballotId).length == 8, \"Invalid Ballot ID\");\r\n        require(bytes(ballots[_ballotId].id).length > 0, \"Ballot ID does not exist\");\r\n\r\n        Voter storage voter = registeredVoters[_ballotId][msg.sender];\r\n        require(voter.isRegistered, \"Voter not registered for any ballot\");\r\n        require(keccak256(abi.encodePacked(voter.ballotId)) == keccak256(abi.encodePacked(_ballotId)), \"Ballot ID mismatch\");\r\n        require(voter.hashedPassword == keccak256(abi.encodePacked(_password)), \"Incorrect password\");\r\n\r\n        return (true, voter.hasVoted, voter.ballotId);\r\n    }\r\n\r\n    function voteMultiple(string memory _ballotId, uint[] memory _positionIndexes, uint[] memory _candidateIndexes) public {\r\n        require(bytes(ballots[_ballotId].id).length > 0, \"Invalid ballot ID\");\r\n        require(!ballots[_ballotId].isClosed, \"Voting has ended\");\r\n\r\n        Voter storage voter = registeredVoters[_ballotId][msg.sender];\r\n        require(voter.isRegistered, \"Voter not registered\");\r\n        require(!voter.hasVoted, \"You have already completed voting\");\r\n        require(_positionIndexes.length == _candidateIndexes.length, \"Invalid vote data\");\r\n\r\n        for (uint i = 0; i < _positionIndexes.length; i++) {\r\n            bytes32 voteKey = keccak256(abi.encodePacked(msg.sender, _ballotId, _positionIndexes[i]));\r\n            require(!positionVotes[voteKey], \"Already voted for this position\");\r\n\r\n            ballots[_ballotId].positions[_positionIndexes[i]].candidates[_candidateIndexes[i]].voteCount++;\r\n            positionVotes[voteKey] = true;\r\n        }\r\n\r\n        voter.hasVoted = true;\r\n        emit VoteCasted(msg.sender, _ballotId, _positionIndexes[0], _candidateIndexes[0]);\r\n    }\r\n\r\n    // ---------------- Utilities ----------------\r\n    function getMyBallots() public view returns (string[] memory, string[] memory) {\r\n        uint ballotCount = adminBallots[msg.sender].length;\r\n        string[] memory ballotIds = new string[](ballotCount);\r\n        string[] memory ballotTitles = new string[](ballotCount);\r\n\r\n        for (uint i = 0; i < ballotCount; i++) {\r\n            string memory ballotId = adminBallots[msg.sender][i];\r\n            ballotIds[i] = ballots[ballotId].id;\r\n            ballotTitles[i] = ballots[ballotId].title;\r\n        }\r\n\r\n        return (ballotIds, ballotTitles);\r\n    }\r\n\r\n    function getBallotDetails(string memory _ballotId)\r\n        public\r\n        view\r\n        returns (string memory, string memory, string[] memory, string[][] memory)\r\n    {\r\n        require(bytes(ballots[_ballotId].id).length > 0, \"Ballot ID does not exist\");\r\n        Ballot storage ballot = ballots[_ballotId];\r\n\r\n        uint positionCount = ballot.positions.length;\r\n        string[] memory positionNames = new string[](positionCount);\r\n        string[][] memory candidateNames = new string[][](positionCount);\r\n\r\n        for (uint i = 0; i < positionCount; i++) {\r\n            positionNames[i] = ballot.positions[i].name;\r\n            uint candidateCount = ballot.positions[i].candidates.length;\r\n            candidateNames[i] = new string[](candidateCount);\r\n\r\n            for (uint j = 0; j < candidateCount; j++) {\r\n                candidateNames[i][j] = ballot.positions[i].candidates[j].name;\r\n            }\r\n        }\r\n\r\n        return (ballot.id, ballot.title, positionNames, candidateNames);\r\n    }\r\n\r\n    function getResults(string memory _ballotId) \r\n        public view returns (string[] memory, string[][] memory, uint[][] memory) \r\n    {\r\n        require(bytes(ballots[_ballotId].id).length > 0, \"Ballot ID does not exist\");\r\n        Ballot storage ballot = ballots[_ballotId];\r\n\r\n        uint positionCount = ballot.positions.length;\r\n        string[] memory positionNames = new string[](positionCount);\r\n        string[][] memory candidateNames = new string[][](positionCount);\r\n        uint[][] memory voteCounts = new uint[][](positionCount);\r\n\r\n        for (uint i = 0; i < positionCount; i++) {\r\n            positionNames[i] = ballot.positions[i].name;\r\n            uint candidateCount = ballot.positions[i].candidates.length;\r\n\r\n            candidateNames[i] = new string[](candidateCount);\r\n            voteCounts[i] = new uint[](candidateCount);\r\n\r\n            for (uint j = 0; j < candidateCount; j++) {\r\n                candidateNames[i][j] = ballot.positions[i].candidates[j].name;\r\n                voteCounts[i][j] = ballot.positions[i].candidates[j].voteCount;\r\n            }\r\n        }\r\n\r\n        return (positionNames, candidateNames, voteCounts);\r\n    }\r\n\r\n    function isBallotClosed(string memory _ballotId) public view returns (bool) {\r\n        require(bytes(ballots[_ballotId].id).length > 0, \"Ballot ID does not exist\");\r\n        return ballots[_ballotId].isClosed;\r\n    }\r\n\r\n    function endVoting(string memory _ballotId) public {\r\n        require(bytes(ballots[_ballotId].id).length > 0, \"Ballot ID does not exist\");\r\n        require(msg.sender == ballots[_ballotId].adminAddress, \"Only the ballot creator can close voting\");\r\n        require(!ballots[_ballotId].isClosed, \"Voting is already closed\");\r\n\r\n        ballots[_ballotId].isClosed = true;\r\n        emit VotingEnded(_ballotId, msg.sender);\r\n    }\r\n}\r\n",
  "sourcePath": "C:\\Users\\ADMIN PC\\Desktop\\The-Voting-System\\contracts\\VotingSystem.sol",
  "compiler": {
    "name": "solc",
    "version": "0.8.0+commit.c7dfd78e.Emscripten.clang"
  },
  "schemaVersion": "3.4.14",
  "updatedAt": "2025-12-22T16:26:21.829Z",
  "networkType": "ethereum",
  "devdoc": {
    "kind": "dev",
    "methods": {},
    "version": 1
  },
  "userdoc": {
    "kind": "user",
    "methods": {},
    "version": 1
  }
}