{
  "contractName": "VotingSystem",
  "abi": [
    {
      "anonymous": false,
      "inputs": [
        {
          "indexed": false,
          "internalType": "string",
          "name": "username",
          "type": "string"
        },
        {
          "indexed": false,
          "internalType": "address",
          "name": "adminAddress",
          "type": "address"
        }
      ],
      "name": "AdminRegistered",
      "type": "event"
    },
    {
      "anonymous": false,
      "inputs": [
        {
          "indexed": false,
          "internalType": "string",
          "name": "ballotId",
          "type": "string"
        },
        {
          "indexed": false,
          "internalType": "string",
          "name": "title",
          "type": "string"
        },
        {
          "indexed": true,
          "internalType": "address",
          "name": "admin",
          "type": "address"
        }
      ],
      "name": "BallotCreated",
      "type": "event"
    },
    {
      "anonymous": false,
      "inputs": [
        {
          "indexed": true,
          "internalType": "address",
          "name": "voter",
          "type": "address"
        },
        {
          "indexed": false,
          "internalType": "string",
          "name": "ballotId",
          "type": "string"
        },
        {
          "indexed": false,
          "internalType": "uint256",
          "name": "positionIndex",
          "type": "uint256"
        },
        {
          "indexed": false,
          "internalType": "uint256",
          "name": "candidateIndex",
          "type": "uint256"
        }
      ],
      "name": "VoteCasted",
      "type": "event"
    },
    {
      "anonymous": false,
      "inputs": [
        {
          "indexed": true,
          "internalType": "address",
          "name": "voter",
          "type": "address"
        }
      ],
      "name": "VoterAuthenticated",
      "type": "event"
    },
    {
      "anonymous": false,
      "inputs": [
        {
          "indexed": true,
          "internalType": "address",
          "name": "voter",
          "type": "address"
        },
        {
          "indexed": false,
          "internalType": "string",
          "name": "ballotId",
          "type": "string"
        }
      ],
      "name": "VoterRegistered",
      "type": "event"
    },
    {
      "anonymous": false,
      "inputs": [
        {
          "indexed": false,
          "internalType": "string",
          "name": "ballotId",
          "type": "string"
        },
        {
          "indexed": false,
          "internalType": "address",
          "name": "admin",
          "type": "address"
        }
      ],
      "name": "VotingEnded",
      "type": "event"
    },
    {
      "inputs": [
        {
          "internalType": "string",
          "name": "",
          "type": "string"
        }
      ],
      "name": "ballots",
      "outputs": [
        {
          "internalType": "string",
          "name": "id",
          "type": "string"
        },
        {
          "internalType": "string",
          "name": "title",
          "type": "string"
        },
        {
          "internalType": "address",
          "name": "adminAddress",
          "type": "address"
        },
        {
          "internalType": "bool",
          "name": "isClosed",
          "type": "bool"
        }
      ],
      "stateMutability": "view",
      "type": "function",
      "constant": true
    },
    {
      "inputs": [
        {
          "internalType": "address",
          "name": "",
          "type": "address"
        }
      ],
      "name": "isAdminRegistered",
      "outputs": [
        {
          "internalType": "bool",
          "name": "",
          "type": "bool"
        }
      ],
      "stateMutability": "view",
      "type": "function",
      "constant": true
    },
    {
      "inputs": [
        {
          "internalType": "address",
          "name": "",
          "type": "address"
        }
      ],
      "name": "registeredVoters",
      "outputs": [
        {
          "internalType": "bytes32",
          "name": "hashedPassword",
          "type": "bytes32"
        },
        {
          "internalType": "string",
          "name": "ballotId",
          "type": "string"
        },
        {
          "internalType": "bool",
          "name": "isRegistered",
          "type": "bool"
        },
        {
          "internalType": "bool",
          "name": "hasVoted",
          "type": "bool"
        }
      ],
      "stateMutability": "view",
      "type": "function",
      "constant": true
    },
    {
      "inputs": [
        {
          "internalType": "string",
          "name": "_username",
          "type": "string"
        },
        {
          "internalType": "string",
          "name": "_password",
          "type": "string"
        }
      ],
      "name": "registerAdmin",
      "outputs": [],
      "stateMutability": "nonpayable",
      "type": "function"
    },
    {
      "inputs": [
        {
          "internalType": "string",
          "name": "_username",
          "type": "string"
        },
        {
          "internalType": "string",
          "name": "_password",
          "type": "string"
        }
      ],
      "name": "adminLogin",
      "outputs": [
        {
          "internalType": "bool",
          "name": "",
          "type": "bool"
        },
        {
          "internalType": "string[]",
          "name": "",
          "type": "string[]"
        },
        {
          "internalType": "string[]",
          "name": "",
          "type": "string[]"
        }
      ],
      "stateMutability": "view",
      "type": "function",
      "constant": true
    },
    {
      "inputs": [
        {
          "internalType": "string",
          "name": "_ballotId",
          "type": "string"
        },
        {
          "internalType": "string",
          "name": "_title",
          "type": "string"
        },
        {
          "internalType": "string[]",
          "name": "_positionNames",
          "type": "string[]"
        },
        {
          "internalType": "string[][]",
          "name": "_candidateNames",
          "type": "string[][]"
        }
      ],
      "name": "createBallot",
      "outputs": [],
      "stateMutability": "nonpayable",
      "type": "function"
    },
    {
      "inputs": [
        {
          "internalType": "address",
          "name": "_voter",
          "type": "address"
        },
        {
          "internalType": "string",
          "name": "_ballotId",
          "type": "string"
        },
        {
          "internalType": "bytes32",
          "name": "_hashedPassword",
          "type": "bytes32"
        }
      ],
      "name": "registerVoter",
      "outputs": [],
      "stateMutability": "nonpayable",
      "type": "function"
    },
    {
      "inputs": [
        {
          "internalType": "string",
          "name": "_ballotId",
          "type": "string"
        },
        {
          "internalType": "string",
          "name": "_password",
          "type": "string"
        }
      ],
      "name": "authenticateVoter",
      "outputs": [
        {
          "internalType": "bool",
          "name": "isAuthenticated",
          "type": "bool"
        },
        {
          "internalType": "bool",
          "name": "hasVoted",
          "type": "bool"
        },
        {
          "internalType": "string",
          "name": "ballotId",
          "type": "string"
        }
      ],
      "stateMutability": "view",
      "type": "function",
      "constant": true
    },
    {
      "inputs": [
        {
          "internalType": "string",
          "name": "_ballotId",
          "type": "string"
        },
        {
          "internalType": "uint256[]",
          "name": "_positionIndexes",
          "type": "uint256[]"
        },
        {
          "internalType": "uint256[]",
          "name": "_candidateIndexes",
          "type": "uint256[]"
        }
      ],
      "name": "voteMultiple",
      "outputs": [],
      "stateMutability": "nonpayable",
      "type": "function"
    },
    {
      "inputs": [],
      "name": "getMyBallots",
      "outputs": [
        {
          "internalType": "string[]",
          "name": "",
          "type": "string[]"
        },
        {
          "internalType": "string[]",
          "name": "",
          "type": "string[]"
        }
      ],
      "stateMutability": "view",
      "type": "function",
      "constant": true
    },
    {
      "inputs": [
        {
          "internalType": "string",
          "name": "_ballotId",
          "type": "string"
        }
      ],
      "name": "getBallotDetails",
      "outputs": [
        {
          "internalType": "string",
          "name": "",
          "type": "string"
        },
        {
          "internalType": "string",
          "name": "",
          "type": "string"
        },
        {
          "internalType": "string[]",
          "name": "",
          "type": "string[]"
        },
        {
          "internalType": "string[][]",
          "name": "",
          "type": "string[][]"
        }
      ],
      "stateMutability": "view",
      "type": "function",
      "constant": true
    },
    {
      "inputs": [
        {
          "internalType": "address[]",
          "name": "_voterAddresses",
          "type": "address[]"
        },
        {
          "internalType": "string",
          "name": "_ballotId",
          "type": "string"
        },
        {
          "internalType": "bytes32[]",
          "name": "_hashedPasswords",
          "type": "bytes32[]"
        }
      ],
      "name": "registerMultipleVoters",
      "outputs": [],
      "stateMutability": "nonpayable",
      "type": "function"
    },
    {
      "inputs": [
        {
          "internalType": "string",
          "name": "_ballotId",
          "type": "string"
        }
      ],
      "name": "getVotersForBallot",
      "outputs": [
        {
          "internalType": "address[]",
          "name": "",
          "type": "address[]"
        }
      ],
      "stateMutability": "view",
      "type": "function",
      "constant": true
    },
    {
      "inputs": [
        {
          "internalType": "string",
          "name": "_ballotId",
          "type": "string"
        }
      ],
      "name": "getResults",
      "outputs": [
        {
          "internalType": "string[]",
          "name": "",
          "type": "string[]"
        },
        {
          "internalType": "string[][]",
          "name": "",
          "type": "string[][]"
        },
        {
          "internalType": "uint256[][]",
          "name": "",
          "type": "uint256[][]"
        }
      ],
      "stateMutability": "view",
      "type": "function",
      "constant": true
    },
    {
      "inputs": [
        {
          "internalType": "string",
          "name": "_ballotId",
          "type": "string"
        }
      ],
      "name": "isBallotClosed",
      "outputs": [
        {
          "internalType": "bool",
          "name": "",
          "type": "bool"
        }
      ],
      "stateMutability": "view",
      "type": "function",
      "constant": true
    },
    {
      "inputs": [
        {
          "internalType": "string",
          "name": "_ballotId",
          "type": "string"
        }
      ],
      "name": "endVoting",
      "outputs": [],
      "stateMutability": "nonpayable",
      "type": "function"
    }
  ],
  "bytecode": "0x608060405234801561001057600080fd5b50615c0080620000216000396000f3fe608060405234801561001057600080fd5b50600436106101005760003560e01c80637437ffa111610097578063bbbb2dba11610066578063bbbb2dba146102da578063c71540801461030d578063e6598e2d1461033f578063f8f98b791461036f57610100565b80637437ffa1146102285780638634602e14610244578063a1b35bea14610277578063a9ff6df1146102a757610100565b80634bba734f116100d35780634bba734f1461018b5780636a2d6877146101bb5780636bdc838e146101d757806374098f461461020957610100565b806313e52b4e146101055780632ff20f011461012157806333291872146101535780633b00a3e31461016f575b600080fd5b61011f600480360381019061011a919061414b565b61038b565b005b61013b60048036038101906101369190614249565b6106fd565b60405161014a939291906150bd565b60405180910390f35b61016d6004803603810190610168919061438d565b610ef5565b005b61018960048036038101906101849190614249565b6113e9565b005b6101a560048036038101906101a09190614122565b6115ed565b6040516101b29190615140565b60405180910390f35b6101d560048036038101906101d0919061428a565b61160d565b005b6101f160048036038101906101ec9190614321565b611bd0565b604051610200939291906151a0565b60405180910390f35b610211611ecc565b60405161021f929190615109565b60405180910390f35b610242600480360381019061023d91906141b2565b61231d565b005b61025e60048036038101906102599190614249565b612833565b60405161026e9493929190615306565b60405180910390f35b610291600480360381019061028c9190614249565b612f05565b60405161029e9190615140565b60405180910390f35b6102c160048036038101906102bc9190614122565b612fac565b6040516102d194939291906151de565b60405180910390f35b6102f460048036038101906102ef9190614249565b61307e565b60405161030494939291906152b3565b60405180910390f35b61032760048036038101906103229190614321565b613201565b6040516103369392919061515b565b60405180910390f35b61035960048036038101906103549190614249565b61382c565b604051610366919061509b565b60405180910390f35b61038960048036038101906103849190614321565b613948565b005b600260003373ffffffffffffffffffffffffffffffffffffffff1673ffffffffffffffffffffffffffffffffffffffff16815260200190815260200160002060009054906101000a900460ff16610417576040517f08c379a000000000000000000000000000000000000000000000000000000000815260040161040e906153a5565b60405180910390fd5b600882511461045b576040517f08c379a000000000000000000000000000000000000000000000000000000000815260040161045290615665565b60405180910390fd5b600560008473ffffffffffffffffffffffffffffffffffffffff1673ffffffffffffffffffffffffffffffffffffffff16815260200190815260200160002060020160009054906101000a900460ff16156104eb576040517f08c379a00000000000000000000000000000000000000000000000000000000081526004016104e290615485565b60405180910390fd5b60006003836040516104fd919061506d565b9081526020016040518091039020600001805461051990615a31565b90501161055b576040517f08c379a000000000000000000000000000000000000000000000000000000000815260040161055290615505565b60405180910390fd5b604051806080016040528082815260200183815260200160011515815260200160001515815250600560008573ffffffffffffffffffffffffffffffffffffffff1673ffffffffffffffffffffffffffffffffffffffff1681526020019081526020016000206000820151816000015560208201518160010190805190602001906105e7929190613d08565b5060408201518160020160006101000a81548160ff02191690831515021790555060608201518160020160016101000a81548160ff02191690831515021790555090505060078260405161063b919061506d565b9081526020016040518091039020839080600181540180825580915050600190039060005260206000200160009091909190916101000a81548173ffffffffffffffffffffffffffffffffffffffff021916908373ffffffffffffffffffffffffffffffffffffffff1602179055508273ffffffffffffffffffffffffffffffffffffffff167fffeb7702be7dcd8fee170d954b70afb9a7c78f7f5cff232d037e7b9d8243356a836040516106f0919061522a565b60405180910390a2505050565b60608060606000600385604051610714919061506d565b9081526020016040518091039020600001805461073090615a31565b905011610772576040517f08c379a000000000000000000000000000000000000000000000000000000000815260040161076990615505565b60405180910390fd5b6000600385604051610784919061506d565b9081526020016040518091039020905060008160030180549050905060008167ffffffffffffffff8111156107e2577f4e487b7100000000000000000000000000000000000000000000000000000000600052604160045260246000fd5b60405190808252806020026020018201604052801561081557816020015b60608152602001906001900390816108005790505b50905060008267ffffffffffffffff81111561085a577f4e487b7100000000000000000000000000000000000000000000000000000000600052604160045260246000fd5b60405190808252806020026020018201604052801561088d57816020015b60608152602001906001900390816108785790505b50905060008367ffffffffffffffff8111156108d2577f4e487b7100000000000000000000000000000000000000000000000000000000600052604160045260246000fd5b60405190808252806020026020018201604052801561090557816020015b60608152602001906001900390816108f05790505b50905060005b84811015610edf5785600301818154811061094f577f4e487b7100000000000000000000000000000000000000000000000000000000600052603260045260246000fd5b9060005260206000209060020201600001805461096b90615a31565b80601f016020809104026020016040519081016040528092919081815260200182805461099790615a31565b80156109e45780601f106109b9576101008083540402835291602001916109e4565b820191906000526020600020905b8154815290600101906020018083116109c757829003601f168201915b5050505050848281518110610a22577f4e487b7100000000000000000000000000000000000000000000000000000000600052603260045260246000fd5b60200260200101819052506000866003018281548110610a6b577f4e487b7100000000000000000000000000000000000000000000000000000000600052603260045260246000fd5b90600052602060002090600202016001018054905090508067ffffffffffffffff811115610ac2577f4e487b7100000000000000000000000000000000000000000000000000000000600052604160045260246000fd5b604051908082528060200260200182016040528015610af557816020015b6060815260200190600190039081610ae05790505b50848381518110610b2f577f4e487b7100000000000000000000000000000000000000000000000000000000600052603260045260246000fd5b60200260200101819052508067ffffffffffffffff811115610b7a577f4e487b7100000000000000000000000000000000000000000000000000000000600052604160045260246000fd5b604051908082528060200260200182016040528015610ba85781602001602082028036833780820191505090505b50838381518110610be2577f4e487b7100000000000000000000000000000000000000000000000000000000600052603260045260246000fd5b602002602001018190525060005b81811015610eca57876003018381548110610c34577f4e487b7100000000000000000000000000000000000000000000000000000000600052603260045260246000fd5b90600052602060002090600202016001018181548110610c7d577f4e487b7100000000000000000000000000000000000000000000000000000000600052603260045260246000fd5b90600052602060002090600202016000018054610c9990615a31565b80601f0160208091040260200160405190810160405280929190818152602001828054610cc590615a31565b8015610d125780601f10610ce757610100808354040283529160200191610d12565b820191906000526020600020905b815481529060010190602001808311610cf557829003601f168201915b5050505050858481518110610d50577f4e487b7100000000000000000000000000000000000000000000000000000000600052603260045260246000fd5b60200260200101518281518110610d90577f4e487b7100000000000000000000000000000000000000000000000000000000600052603260045260246000fd5b6020026020010181905250876003018381548110610dd7577f4e487b7100000000000000000000000000000000000000000000000000000000600052603260045260246000fd5b90600052602060002090600202016001018181548110610e20577f4e487b7100000000000000000000000000000000000000000000000000000000600052603260045260246000fd5b906000526020600020906002020160010154848481518110610e6b577f4e487b7100000000000000000000000000000000000000000000000000000000600052603260045260246000fd5b60200260200101518281518110610eab577f4e487b7100000000000000000000000000000000000000000000000000000000600052603260045260246000fd5b6020026020010181815250508080610ec290615a63565b915050610bf0565b50508080610ed790615a63565b91505061090b565b5082828297509750975050505050509193909250565b6008845114610f39576040517f08c379a0000000000000000000000000000000000000000000000000000000008152600401610f3090615465565b60405180910390fd5b6000835111610f7d576040517f08c379a0000000000000000000000000000000000000000000000000000000008152600401610f7490615445565b60405180910390fd5b6000825111610fc1576040517f08c379a0000000000000000000000000000000000000000000000000000000008152600401610fb8906156a5565b60405180910390fd5b6000600385604051610fd3919061506d565b90815260200160405180910390206000018054610fef90615a31565b905014611031576040517f08c379a0000000000000000000000000000000000000000000000000000000008152600401611028906155c5565b60405180910390fd5b6000600385604051611043919061506d565b908152602001604051809103902090508481600001908051906020019061106b929190613d08565b5083816001019080519060200190611084929190613d08565b50338160020160006101000a81548173ffffffffffffffffffffffffffffffffffffffff021916908373ffffffffffffffffffffffffffffffffffffffff16021790555060008160040160006101000a81548160ff02191690831515021790555060005b8351811015611318578160030160018160018154018082558091505003906000526020600020905050600082600301828154811061114f577f4e487b7100000000000000000000000000000000000000000000000000000000600052603260045260246000fd5b90600052602060002090600202019050848281518110611198577f4e487b7100000000000000000000000000000000000000000000000000000000600052603260045260246000fd5b60200260200101518160000190805190602001906111b7929190613d08565b5060005b8483815181106111f4577f4e487b7100000000000000000000000000000000000000000000000000000000600052603260045260246000fd5b6020026020010151518110156113035781600101604051806040016040528087868151811061124c577f4e487b7100000000000000000000000000000000000000000000000000000000600052603260045260246000fd5b6020026020010151848151811061128c577f4e487b7100000000000000000000000000000000000000000000000000000000600052603260045260246000fd5b602002602001015181526020016000815250908060018154018082558091505060019003906000526020600020906002020160009091909190915060008201518160000190805190602001906112e3929190613d08565b5060208201518160010155505080806112fb90615a63565b9150506111bb565b5050808061131090615a63565b9150506110e8565b50600460003373ffffffffffffffffffffffffffffffffffffffff1673ffffffffffffffffffffffffffffffffffffffff16815260200190815260200160002085908060018154018082558091505060019003906000526020600020016000909190919091509080519060200190611391929190613d08565b503373ffffffffffffffffffffffffffffffffffffffff167f5d4ff6bed055bb6bb40742ad27d6df7113d8c7b79e6d1c37071a20e2cef7326886866040516113da92919061527c565b60405180910390a25050505050565b60006003826040516113fb919061506d565b9081526020016040518091039020600001805461141790615a31565b905011611459576040517f08c379a000000000000000000000000000000000000000000000000000000000815260040161145090615505565b60405180910390fd5b600381604051611469919061506d565b908152602001604051809103902060020160009054906101000a900473ffffffffffffffffffffffffffffffffffffffff1673ffffffffffffffffffffffffffffffffffffffff163373ffffffffffffffffffffffffffffffffffffffff1614611508576040517f08c379a00000000000000000000000000000000000000000000000000000000081526004016114ff906154c5565b60405180910390fd5b600381604051611518919061506d565b908152602001604051809103902060040160009054906101000a900460ff1615611577576040517f08c379a000000000000000000000000000000000000000000000000000000000815260040161156e90615425565b60405180910390fd5b6001600382604051611589919061506d565b908152602001604051809103902060040160006101000a81548160ff0219169083151502179055507f3ab689f5e761cb0d1f72addf7bf809ffc9e3651e8df6cd97c3a9f30db8b7026f81336040516115e292919061524c565b60405180910390a150565b60026020528060005260406000206000915054906101000a900460ff1681565b600060038460405161161f919061506d565b9081526020016040518091039020600001805461163b90615a31565b90501161167d576040517f08c379a0000000000000000000000000000000000000000000000000000000008152600401611674906156c5565b60405180910390fd5b60038360405161168d919061506d565b908152602001604051809103902060040160009054906101000a900460ff16156116ec576040517f08c379a00000000000000000000000000000000000000000000000000000000081526004016116e3906154e5565b60405180910390fd5b6000600560003373ffffffffffffffffffffffffffffffffffffffff1673ffffffffffffffffffffffffffffffffffffffff16815260200190815260200160002090508060020160009054906101000a900460ff16611780576040517f08c379a0000000000000000000000000000000000000000000000000000000008152600401611777906154a5565b60405180910390fd5b83604051602001611791919061506d565b60405160208183030381529060405280519060200120816001016040516020016117bb9190615084565b6040516020818303038152906040528051906020012014611811576040517f08c379a000000000000000000000000000000000000000000000000000000000815260040161180890615625565b60405180910390fd5b8060020160019054906101000a900460ff1615611863576040517f08c379a000000000000000000000000000000000000000000000000000000000815260040161185a90615525565b60405180910390fd5b81518351146118a7576040517f08c379a000000000000000000000000000000000000000000000000000000000815260040161189e90615685565b60405180910390fd5b60005b8351811015611ad85760008482815181106118ee577f4e487b7100000000000000000000000000000000000000000000000000000000600052603260045260246000fd5b602002602001015190506000848381518110611933577f4e487b7100000000000000000000000000000000000000000000000000000000600052603260045260246000fd5b60200260200101519050600033888460405160200161195493929190615034565b6040516020818303038152906040528051906020012090506006600082815260200190815260200160002060009054906101000a900460ff16156119cd576040517f08c379a00000000000000000000000000000000000000000000000000000000081526004016119c490615405565b60405180910390fd5b6003886040516119dd919061506d565b90815260200160405180910390206003018381548110611a26577f4e487b7100000000000000000000000000000000000000000000000000000000600052603260045260246000fd5b90600052602060002090600202016001018281548110611a6f577f4e487b7100000000000000000000000000000000000000000000000000000000600052603260045260246000fd5b90600052602060002090600202016001016000815480929190611a9190615a63565b919050555060016006600083815260200190815260200160002060006101000a81548160ff0219169083151502179055505050508080611ad090615a63565b9150506118aa565b5060018160020160016101000a81548160ff0219169083151502179055503373ffffffffffffffffffffffffffffffffffffffff167f73b0bbe16a2a3b202c20b72e73b4566642f8949c86e403a6e5bcc63cf05cd1638585600081518110611b69577f4e487b7100000000000000000000000000000000000000000000000000000000600052603260045260246000fd5b602002602001015185600081518110611bab577f4e487b7100000000000000000000000000000000000000000000000000000000600052603260045260246000fd5b6020026020010151604051611bc293929190615367565b60405180910390a250505050565b60008060606008855114611c19576040517f08c379a0000000000000000000000000000000000000000000000000000000008152600401611c1090615665565b60405180910390fd5b6000600386604051611c2b919061506d565b90815260200160405180910390206000018054611c4790615a31565b905011611c89576040517f08c379a0000000000000000000000000000000000000000000000000000000008152600401611c8090615505565b60405180910390fd5b6000600560003373ffffffffffffffffffffffffffffffffffffffff1673ffffffffffffffffffffffffffffffffffffffff16815260200190815260200160002090508060020160009054906101000a900460ff16611d1d576040517f08c379a0000000000000000000000000000000000000000000000000000000008152600401611d14906155a5565b60405180910390fd5b85604051602001611d2e919061506d565b6040516020818303038152906040528051906020012081600101604051602001611d589190615084565b6040516020818303038152906040528051906020012014611dae576040517f08c379a0000000000000000000000000000000000000000000000000000000008152600401611da590615625565b60405180910390fd5b84604051602001611dbf919061506d565b60405160208183030381529060405280519060200120816000015414611e1a576040517f08c379a0000000000000000000000000000000000000000000000000000000008152600401611e11906153c5565b60405180910390fd5b60018160020160019054906101000a900460ff1682600101808054611e3e90615a31565b80601f0160208091040260200160405190810160405280929190818152602001828054611e6a90615a31565b8015611eb75780601f10611e8c57610100808354040283529160200191611eb7565b820191906000526020600020905b815481529060010190602001808311611e9a57829003601f168201915b50505050509050935093509350509250925092565b6060806000600460003373ffffffffffffffffffffffffffffffffffffffff1673ffffffffffffffffffffffffffffffffffffffff16815260200190815260200160002080549050905060008167ffffffffffffffff811115611f58577f4e487b7100000000000000000000000000000000000000000000000000000000600052604160045260246000fd5b604051908082528060200260200182016040528015611f8b57816020015b6060815260200190600190039081611f765790505b50905060008267ffffffffffffffff811115611fd0577f4e487b7100000000000000000000000000000000000000000000000000000000600052604160045260246000fd5b60405190808252806020026020018201604052801561200357816020015b6060815260200190600190039081611fee5790505b50905060005b8381101561230f576000600460003373ffffffffffffffffffffffffffffffffffffffff1673ffffffffffffffffffffffffffffffffffffffff168152602001908152602001600020828154811061208a577f4e487b7100000000000000000000000000000000000000000000000000000000600052603260045260246000fd5b90600052602060002001805461209f90615a31565b80601f01602080910402602001604051908101604052809291908181526020018280546120cb90615a31565b80156121185780601f106120ed57610100808354040283529160200191612118565b820191906000526020600020905b8154815290600101906020018083116120fb57829003601f168201915b5050505050905060038160405161212f919061506d565b9081526020016040518091039020600001805461214b90615a31565b80601f016020809104026020016040519081016040528092919081815260200182805461217790615a31565b80156121c45780601f10612199576101008083540402835291602001916121c4565b820191906000526020600020905b8154815290600101906020018083116121a757829003601f168201915b5050505050848381518110612202577f4e487b7100000000000000000000000000000000000000000000000000000000600052603260045260246000fd5b602002602001018190525060038160405161221d919061506d565b9081526020016040518091039020600101805461223990615a31565b80601f016020809104026020016040519081016040528092919081815260200182805461226590615a31565b80156122b25780601f10612287576101008083540402835291602001916122b2565b820191906000526020600020905b81548152906001019060200180831161229557829003601f168201915b50505050508383815181106122f0577f4e487b7100000000000000000000000000000000000000000000000000000000600052603260045260246000fd5b602002602001018190525050808061230790615a63565b915050612009565b508181945094505050509091565b600260003373ffffffffffffffffffffffffffffffffffffffff1673ffffffffffffffffffffffffffffffffffffffff16815260200190815260200160002060009054906101000a900460ff166123a9576040517f08c379a00000000000000000000000000000000000000000000000000000000081526004016123a0906153a5565b60405180910390fd5b60088251146123ed576040517f08c379a00000000000000000000000000000000000000000000000000000000081526004016123e490615665565b60405180910390fd5b60006003836040516123ff919061506d565b9081526020016040518091039020600001805461241b90615a31565b90501161245d576040517f08c379a000000000000000000000000000000000000000000000000000000000815260040161245490615505565b60405180910390fd5b80518351146124a1576040517f08c379a000000000000000000000000000000000000000000000000000000000815260040161249890615605565b60405180910390fd5b60005b835181101561282d57600560008583815181106124ea577f4e487b7100000000000000000000000000000000000000000000000000000000600052603260045260246000fd5b602002602001015173ffffffffffffffffffffffffffffffffffffffff1673ffffffffffffffffffffffffffffffffffffffff16815260200190815260200160002060020160009054906101000a900460ff161561257d576040517f08c379a000000000000000000000000000000000000000000000000000000000815260040161257490615485565b60405180910390fd5b60405180608001604052808383815181106125c1577f4e487b7100000000000000000000000000000000000000000000000000000000600052603260045260246000fd5b602002602001015181526020018481526020016001151581526020016000151581525060056000868481518110612621577f4e487b7100000000000000000000000000000000000000000000000000000000600052603260045260246000fd5b602002602001015173ffffffffffffffffffffffffffffffffffffffff1673ffffffffffffffffffffffffffffffffffffffff168152602001908152602001600020600082015181600001556020820151816001019080519060200190612689929190613d08565b5060408201518160020160006101000a81548160ff02191690831515021790555060608201518160020160016101000a81548160ff0219169083151502179055509050506007836040516126dd919061506d565b9081526020016040518091039020848281518110612724577f4e487b7100000000000000000000000000000000000000000000000000000000600052603260045260246000fd5b60200260200101519080600181540180825580915050600190039060005260206000200160009091909190916101000a81548173ffffffffffffffffffffffffffffffffffffffff021916908373ffffffffffffffffffffffffffffffffffffffff1602179055508381815181106127c5577f4e487b7100000000000000000000000000000000000000000000000000000000600052603260045260246000fd5b602002602001015173ffffffffffffffffffffffffffffffffffffffff167fffeb7702be7dcd8fee170d954b70afb9a7c78f7f5cff232d037e7b9d8243356a84604051612812919061522a565b60405180910390a2808061282590615a63565b9150506124a4565b50505050565b606080606080600060038660405161284b919061506d565b9081526020016040518091039020600001805461286790615a31565b9050116128a9576040517f08c379a00000000000000000000000000000000000000000000000000000000081526004016128a090615505565b60405180910390fd5b60006003866040516128bb919061506d565b9081526020016040518091039020905060008160030180549050905060008167ffffffffffffffff811115612919577f4e487b7100000000000000000000000000000000000000000000000000000000600052604160045260246000fd5b60405190808252806020026020018201604052801561294c57816020015b60608152602001906001900390816129375790505b50905060008267ffffffffffffffff811115612991577f4e487b7100000000000000000000000000000000000000000000000000000000600052604160045260246000fd5b6040519080825280602002602001820160405280156129c457816020015b60608152602001906001900390816129af5790505b50905060005b83811015612dcf57846003018181548110612a0e577f4e487b7100000000000000000000000000000000000000000000000000000000600052603260045260246000fd5b90600052602060002090600202016000018054612a2a90615a31565b80601f0160208091040260200160405190810160405280929190818152602001828054612a5690615a31565b8015612aa35780601f10612a7857610100808354040283529160200191612aa3565b820191906000526020600020905b815481529060010190602001808311612a8657829003601f168201915b5050505050838281518110612ae1577f4e487b7100000000000000000000000000000000000000000000000000000000600052603260045260246000fd5b60200260200101819052506000856003018281548110612b2a577f4e487b7100000000000000000000000000000000000000000000000000000000600052603260045260246000fd5b90600052602060002090600202016001018054905090508067ffffffffffffffff811115612b81577f4e487b7100000000000000000000000000000000000000000000000000000000600052604160045260246000fd5b604051908082528060200260200182016040528015612bb457816020015b6060815260200190600190039081612b9f5790505b50838381518110612bee577f4e487b7100000000000000000000000000000000000000000000000000000000600052603260045260246000fd5b602002602001018190525060005b81811015612dba57866003018381548110612c40577f4e487b7100000000000000000000000000000000000000000000000000000000600052603260045260246000fd5b90600052602060002090600202016001018181548110612c89577f4e487b7100000000000000000000000000000000000000000000000000000000600052603260045260246000fd5b90600052602060002090600202016000018054612ca590615a31565b80601f0160208091040260200160405190810160405280929190818152602001828054612cd190615a31565b8015612d1e5780601f10612cf357610100808354040283529160200191612d1e565b820191906000526020600020905b815481529060010190602001808311612d0157829003601f168201915b5050505050848481518110612d5c577f4e487b7100000000000000000000000000000000000000000000000000000000600052603260045260246000fd5b60200260200101518281518110612d9c577f4e487b7100000000000000000000000000000000000000000000000000000000600052603260045260246000fd5b60200260200101819052508080612db290615a63565b915050612bfc565b50508080612dc790615a63565b9150506129ca565b5083600001846001018383838054612de690615a31565b80601f0160208091040260200160405190810160405280929190818152602001828054612e1290615a31565b8015612e5f5780601f10612e3457610100808354040283529160200191612e5f565b820191906000526020600020905b815481529060010190602001808311612e4257829003601f168201915b50505050509350828054612e7290615a31565b80601f0160208091040260200160405190810160405280929190818152602001828054612e9e90615a31565b8015612eeb5780601f10612ec057610100808354040283529160200191612eeb565b820191906000526020600020905b815481529060010190602001808311612ece57829003601f168201915b505050505092509750975097509750505050509193509193565b600080600383604051612f18919061506d565b90815260200160405180910390206000018054612f3490615a31565b905011612f76576040517f08c379a0000000000000000000000000000000000000000000000000000000008152600401612f6d90615505565b60405180910390fd5b600382604051612f86919061506d565b908152602001604051809103902060040160009054906101000a900460ff169050919050565b6005602052806000526040600020600091509050806000015490806001018054612fd590615a31565b80601f016020809104026020016040519081016040528092919081815260200182805461300190615a31565b801561304e5780601f106130235761010080835404028352916020019161304e565b820191906000526020600020905b81548152906001019060200180831161303157829003601f168201915b5050505050908060020160009054906101000a900460ff16908060020160019054906101000a900460ff16905084565b6003818051602081018201805184825260208301602085012081835280955050505050506000915090508060000180546130b790615a31565b80601f01602080910402602001604051908101604052809291908181526020018280546130e390615a31565b80156131305780601f1061310557610100808354040283529160200191613130565b820191906000526020600020905b81548152906001019060200180831161311357829003601f168201915b50505050509080600101805461314590615a31565b80601f016020809104026020016040519081016040528092919081815260200182805461317190615a31565b80156131be5780601f10613193576101008083540402835291602001916131be565b820191906000526020600020905b8154815290600101906020018083116131a157829003601f168201915b5050505050908060020160009054906101000a900473ffffffffffffffffffffffffffffffffffffffff16908060040160009054906101000a900460ff16905084565b60006060806000600186604051613218919061506d565b908152602001604051809103902060009054906101000a900473ffffffffffffffffffffffffffffffffffffffff169050600073ffffffffffffffffffffffffffffffffffffffff168173ffffffffffffffffffffffffffffffffffffffff1614156132b9576040517f08c379a00000000000000000000000000000000000000000000000000000000081526004016132b090615645565b60405180910390fd5b3373ffffffffffffffffffffffffffffffffffffffff168173ffffffffffffffffffffffffffffffffffffffff1614613327576040517f08c379a000000000000000000000000000000000000000000000000000000000815260040161331e906155e5565b60405180910390fd5b60008060008373ffffffffffffffffffffffffffffffffffffffff1673ffffffffffffffffffffffffffffffffffffffff16815260200190815260200160002090508560405160200161337a919061506d565b604051602081830303815290604052805190602001208160010154146133d5576040517f08c379a00000000000000000000000000000000000000000000000000000000081526004016133cc906153c5565b60405180910390fd5b6000600460008473ffffffffffffffffffffffffffffffffffffffff1673ffffffffffffffffffffffffffffffffffffffff16815260200190815260200160002080549050905060008167ffffffffffffffff81111561345e577f4e487b7100000000000000000000000000000000000000000000000000000000600052604160045260246000fd5b60405190808252806020026020018201604052801561349157816020015b606081526020019060019003908161347c5790505b50905060008267ffffffffffffffff8111156134d6577f4e487b7100000000000000000000000000000000000000000000000000000000600052604160045260246000fd5b60405190808252806020026020018201604052801561350957816020015b60608152602001906001900390816134f45790505b50905060005b83811015613815576000600460008873ffffffffffffffffffffffffffffffffffffffff1673ffffffffffffffffffffffffffffffffffffffff1681526020019081526020016000208281548110613590577f4e487b7100000000000000000000000000000000000000000000000000000000600052603260045260246000fd5b9060005260206000200180546135a590615a31565b80601f01602080910402602001604051908101604052809291908181526020018280546135d190615a31565b801561361e5780601f106135f35761010080835404028352916020019161361e565b820191906000526020600020905b81548152906001019060200180831161360157829003601f168201915b50505050509050600381604051613635919061506d565b9081526020016040518091039020600001805461365190615a31565b80601f016020809104026020016040519081016040528092919081815260200182805461367d90615a31565b80156136ca5780601f1061369f576101008083540402835291602001916136ca565b820191906000526020600020905b8154815290600101906020018083116136ad57829003601f168201915b5050505050848381518110613708577f4e487b7100000000000000000000000000000000000000000000000000000000600052603260045260246000fd5b6020026020010181905250600381604051613723919061506d565b9081526020016040518091039020600101805461373f90615a31565b80601f016020809104026020016040519081016040528092919081815260200182805461376b90615a31565b80156137b85780601f1061378d576101008083540402835291602001916137b8565b820191906000526020600020905b81548152906001019060200180831161379b57829003601f168201915b50505050508383815181106137f6577f4e487b7100000000000000000000000000000000000000000000000000000000600052603260045260246000fd5b602002602001018190525050808061380d90615a63565b91505061350f565b506001828297509750975050505050509250925092565b60606000600383604051613840919061506d565b9081526020016040518091039020600001805461385c90615a31565b90501161389e576040517f08c379a000000000000000000000000000000000000000000000000000000000815260040161389590615505565b60405180910390fd5b6007826040516138ae919061506d565b908152602001604051809103902080548060200260200160405190810160405280929190818152602001828054801561393c57602002820191906000526020600020905b8160009054906101000a900473ffffffffffffffffffffffffffffffffffffffff1673ffffffffffffffffffffffffffffffffffffffff16815260200190600101908083116138f2575b50505050509050919050565b600082511161398c576040517f08c379a0000000000000000000000000000000000000000000000000000000008152600401613983906153e5565b60405180910390fd5b60008151116139d0576040517f08c379a00000000000000000000000000000000000000000000000000000000081526004016139c790615565565b60405180910390fd5b600073ffffffffffffffffffffffffffffffffffffffff166001836040516139f8919061506d565b908152602001604051809103902060009054906101000a900473ffffffffffffffffffffffffffffffffffffffff1673ffffffffffffffffffffffffffffffffffffffff1614613a7d576040517f08c379a0000000000000000000000000000000000000000000000000000000008152600401613a7490615545565b60405180910390fd5b600260003373ffffffffffffffffffffffffffffffffffffffff1673ffffffffffffffffffffffffffffffffffffffff16815260200190815260200160002060009054906101000a900460ff1615613b0a576040517f08c379a0000000000000000000000000000000000000000000000000000000008152600401613b0190615585565b60405180910390fd5b600081604051602001613b1d919061506d565b60405160208183030381529060405280519060200120905060405180606001604052808481526020018281526020013373ffffffffffffffffffffffffffffffffffffffff168152506000803373ffffffffffffffffffffffffffffffffffffffff1673ffffffffffffffffffffffffffffffffffffffff1681526020019081526020016000206000820151816000019080519060200190613bc0929190613d08565b506020820151816001015560408201518160020160006101000a81548173ffffffffffffffffffffffffffffffffffffffff021916908373ffffffffffffffffffffffffffffffffffffffff16021790555090505033600184604051613c26919061506d565b908152602001604051809103902060006101000a81548173ffffffffffffffffffffffffffffffffffffffff021916908373ffffffffffffffffffffffffffffffffffffffff1602179055506001600260003373ffffffffffffffffffffffffffffffffffffffff1673ffffffffffffffffffffffffffffffffffffffff16815260200190815260200160002060006101000a81548160ff0219169083151502179055507fdc66d5625246d2f0a5a37b7a15ab06b88858e01299d7b3861ffc77ef178984518333604051613cfb92919061524c565b60405180910390a1505050565b828054613d1490615a31565b90600052602060002090601f016020900481019282613d365760008555613d7d565b82601f10613d4f57805160ff1916838001178555613d7d565b82800160010185558215613d7d579182015b82811115613d7c578251825591602001919060010190613d61565b5b509050613d8a9190613d8e565b5090565b5b80821115613da7576000816000905550600101613d8f565b5090565b6000613dbe613db984615716565b6156e5565b90508083825260208201905082856020860282011115613ddd57600080fd5b60005b85811015613e0d5781613df38882613fe7565b845260208401935060208301925050600181019050613de0565b5050509392505050565b6000613e2a613e2584615742565b6156e5565b9050808382526020820190508260005b85811015613e6a5781358501613e50888261407a565b845260208401935060208301925050600181019050613e3a565b5050509392505050565b6000613e87613e828461576e565b6156e5565b90508083825260208201905082856020860282011115613ea657600080fd5b60005b85811015613ed65781613ebc88826140ce565b845260208401935060208301925050600181019050613ea9565b5050509392505050565b6000613ef3613eee8461579a565b6156e5565b9050808382526020820190508260005b85811015613f335781358501613f1988826140e3565b845260208401935060208301925050600181019050613f03565b5050509392505050565b6000613f50613f4b846157c6565b6156e5565b90508083825260208201905082856020860282011115613f6f57600080fd5b60005b85811015613f9f5781613f85888261410d565b845260208401935060208301925050600181019050613f72565b5050509392505050565b6000613fbc613fb7846157f2565b6156e5565b905082815260208101848484011115613fd457600080fd5b613fdf8482856159ef565b509392505050565b600081359050613ff681615b85565b92915050565b600082601f83011261400d57600080fd5b813561401d848260208601613dab565b91505092915050565b600082601f83011261403757600080fd5b8135614047848260208601613e17565b91505092915050565b600082601f83011261406157600080fd5b8135614071848260208601613e74565b91505092915050565b600082601f83011261408b57600080fd5b813561409b848260208601613ee0565b91505092915050565b600082601f8301126140b557600080fd5b81356140c5848260208601613f3d565b91505092915050565b6000813590506140dd81615b9c565b92915050565b600082601f8301126140f457600080fd5b8135614104848260208601613fa9565b91505092915050565b60008135905061411c81615bb3565b92915050565b60006020828403121561413457600080fd5b600061414284828501613fe7565b91505092915050565b60008060006060848603121561416057600080fd5b600061416e86828701613fe7565b935050602084013567ffffffffffffffff81111561418b57600080fd5b614197868287016140e3565b92505060406141a8868287016140ce565b9150509250925092565b6000806000606084860312156141c757600080fd5b600084013567ffffffffffffffff8111156141e157600080fd5b6141ed86828701613ffc565b935050602084013567ffffffffffffffff81111561420a57600080fd5b614216868287016140e3565b925050604084013567ffffffffffffffff81111561423357600080fd5b61423f86828701614050565b9150509250925092565b60006020828403121561425b57600080fd5b600082013567ffffffffffffffff81111561427557600080fd5b614281848285016140e3565b91505092915050565b60008060006060848603121561429f57600080fd5b600084013567ffffffffffffffff8111156142b957600080fd5b6142c5868287016140e3565b935050602084013567ffffffffffffffff8111156142e257600080fd5b6142ee868287016140a4565b925050604084013567ffffffffffffffff81111561430b57600080fd5b614317868287016140a4565b9150509250925092565b6000806040838503121561433457600080fd5b600083013567ffffffffffffffff81111561434e57600080fd5b61435a858286016140e3565b925050602083013567ffffffffffffffff81111561437757600080fd5b614383858286016140e3565b9150509250929050565b600080600080608085870312156143a357600080fd5b600085013567ffffffffffffffff8111156143bd57600080fd5b6143c9878288016140e3565b945050602085013567ffffffffffffffff8111156143e657600080fd5b6143f2878288016140e3565b935050604085013567ffffffffffffffff81111561440f57600080fd5b61441b8782880161407a565b925050606085013567ffffffffffffffff81111561443857600080fd5b61444487828801614026565b91505092959194509250565b600061445c83836144bc565b60208301905092915050565b60006144748383614639565b905092915050565b60006144888383614723565b905092915050565b600061449c838361479f565b905092915050565b60006144b08383614fff565b60208301905092915050565b6144c58161599d565b82525050565b6144d48161599d565b82525050565b6144eb6144e68261599d565b615aac565b82525050565b60006144fc82615887565b614506818561590a565b935061451183615822565b8060005b838110156145425781516145298882614450565b9750614534836158c9565b925050600181019050614515565b5085935050505092915050565b600061455a82615892565b614564818561591b565b93508360208202850161457685615832565b8060005b858110156145b257848403895281516145938582614468565b945061459e836158d6565b925060208a0199505060018101905061457a565b50829750879550505050505092915050565b60006145cf8261589d565b6145d9818561592c565b9350836020820285016145eb85615842565b8060005b858110156146275784840389528151614608858261447c565b9450614613836158e3565b925060208a019950506001810190506145ef565b50829750879550505050505092915050565b6000614644826158a8565b61464e818561593d565b93508360208202850161466085615852565b8060005b8581101561469c578484038952815161467d8582614490565b9450614688836158f0565b925060208a01995050600181019050614664565b50829750879550505050505092915050565b60006146b9826158a8565b6146c3818561594e565b9350836020820285016146d585615852565b8060005b8581101561471157848403895281516146f28582614490565b94506146fd836158f0565b925060208a019950506001810190506146d9565b50829750879550505050505092915050565b600061472e826158b3565b614738818561595f565b935061474383615862565b8060005b8381101561477457815161475b88826144a4565b9750614766836158fd565b925050600181019050614747565b5085935050505092915050565b61478a816159af565b82525050565b614799816159bb565b82525050565b60006147aa826158be565b6147b48185615970565b93506147c48185602086016159fe565b6147cd81615b67565b840191505092915050565b60006147e3826158be565b6147ed8185615981565b93506147fd8185602086016159fe565b61480681615b67565b840191505092915050565b600061481c826158be565b6148268185615992565b93506148368185602086016159fe565b80840191505092915050565b6000815461484f81615a31565b6148598186615992565b945060018216600081146148745760018114614885576148b8565b60ff198316865281860193506148b8565b61488e85615872565b60005b838110156148b057815481890152600182019150602081019050614891565b838801955050505b50505092915050565b60006148ce601f83615981565b91507f4f6e6c792061646d696e732063616e20726567697374657220766f74657273006000830152602082019050919050565b600061490e601283615981565b91507f496e636f72726563742070617373776f726400000000000000000000000000006000830152602082019050919050565b600061494e601183615981565b91507f557365726e616d652072657175697265640000000000000000000000000000006000830152602082019050919050565b600061498e601f83615981565b91507f416c726561647920766f74656420666f72207468697320706f736974696f6e006000830152602082019050919050565b60006149ce601883615981565b91507f566f74696e6720697320616c726561647920636c6f73656400000000000000006000830152602082019050919050565b6000614a0e601583615981565b91507f42616c6c6f74207469746c6520726571756972656400000000000000000000006000830152602082019050919050565b6000614a4e602b83615981565b91507f42616c6c6f74204944206d7573742062652065786163746c792038206368617260008301527f616374657273206c6f6e670000000000000000000000000000000000000000006020830152604082019050919050565b6000614ab4601883615981565b91507f566f74657220616c7265616479207265676973746572656400000000000000006000830152602082019050919050565b6000614af4601483615981565b91507f566f746572206e6f7420726567697374657265640000000000000000000000006000830152602082019050919050565b6000614b34602883615981565b91507f4f6e6c79207468652062616c6c6f742063726561746f722063616e20636c6f7360008301527f6520766f74696e670000000000000000000000000000000000000000000000006020830152604082019050919050565b6000614b9a601083615981565b91507f566f74696e672068617320656e646564000000000000000000000000000000006000830152602082019050919050565b6000614bda601883615981565b91507f42616c6c6f7420494420646f6573206e6f7420657869737400000000000000006000830152602082019050919050565b6000614c1a602183615981565b91507f596f75206861766520616c726561647920636f6d706c6574656420766f74696e60008301527f67000000000000000000000000000000000000000000000000000000000000006020830152604082019050919050565b6000614c80601783615981565b91507f557365726e616d6520616c7265616479206578697374730000000000000000006000830152602082019050919050565b6000614cc0601183615981565b91507f50617373776f72642072657175697265640000000000000000000000000000006000830152602082019050919050565b6000614d00601883615981565b91507f41646d696e20616c7265616479207265676973746572656400000000000000006000830152602082019050919050565b6000614d40602383615981565b91507f566f746572206e6f74207265676973746572656420666f7220616e792062616c60008301527f6c6f7400000000000000000000000000000000000000000000000000000000006020830152604082019050919050565b6000614da6601883615981565b91507f42616c6c6f7420494420616c72656164792065786973747300000000000000006000830152602082019050919050565b6000614de6603283615981565b91507f556e617574686f72697a65643a2055736520796f75722072656769737465726560008301527f64204d6574614d61736b206164647265737300000000000000000000000000006020830152604082019050919050565b6000614e4c601883615981565b91507f4d69736d617463686564206172726179206c656e6774687300000000000000006000830152602082019050919050565b6000614e8c601283615981565b91507f42616c6c6f74204944206d69736d6174636800000000000000000000000000006000830152602082019050919050565b6000614ecc600f83615981565b91507f41646d696e206e6f7420666f756e6400000000000000000000000000000000006000830152602082019050919050565b6000614f0c601183615981565b91507f496e76616c69642042616c6c6f742049440000000000000000000000000000006000830152602082019050919050565b6000614f4c601183615981565b91507f496e76616c696420766f746520646174610000000000000000000000000000006000830152602082019050919050565b6000614f8c601e83615981565b91507f4174206c65617374206f6e6520706f736974696f6e20726571756972656400006000830152602082019050919050565b6000614fcc601183615981565b91507f496e76616c69642062616c6c6f742049440000000000000000000000000000006000830152602082019050919050565b615008816159e5565b82525050565b615017816159e5565b82525050565b61502e615029826159e5565b615ad0565b82525050565b600061504082866144da565b6014820191506150508285614811565b915061505c828461501d565b602082019150819050949350505050565b60006150798284614811565b915081905092915050565b60006150908284614842565b915081905092915050565b600060208201905081810360008301526150b581846144f1565b905092915050565b600060608201905081810360008301526150d781866146ae565b905081810360208301526150eb818561454f565b905081810360408301526150ff81846145c4565b9050949350505050565b6000604082019050818103600083015261512381856146ae565b9050818103602083015261513781846146ae565b90509392505050565b60006020820190506151556000830184614781565b92915050565b60006060820190506151706000830186614781565b818103602083015261518281856146ae565b9050818103604083015261519681846146ae565b9050949350505050565b60006060820190506151b56000830186614781565b6151c26020830185614781565b81810360408301526151d481846147d8565b9050949350505050565b60006080820190506151f36000830187614790565b818103602083015261520581866147d8565b90506152146040830185614781565b6152216060830184614781565b95945050505050565b6000602082019050818103600083015261524481846147d8565b905092915050565b6000604082019050818103600083015261526681856147d8565b905061527560208301846144cb565b9392505050565b6000604082019050818103600083015261529681856147d8565b905081810360208301526152aa81846147d8565b90509392505050565b600060808201905081810360008301526152cd81876147d8565b905081810360208301526152e181866147d8565b90506152f060408301856144cb565b6152fd6060830184614781565b95945050505050565b6000608082019050818103600083015261532081876147d8565b9050818103602083015261533481866147d8565b9050818103604083015261534881856146ae565b9050818103606083015261535c818461454f565b905095945050505050565b6000606082019050818103600083015261538181866147d8565b9050615390602083018561500e565b61539d604083018461500e565b949350505050565b600060208201905081810360008301526153be816148c1565b9050919050565b600060208201905081810360008301526153de81614901565b9050919050565b600060208201905081810360008301526153fe81614941565b9050919050565b6000602082019050818103600083015261541e81614981565b9050919050565b6000602082019050818103600083015261543e816149c1565b9050919050565b6000602082019050818103600083015261545e81614a01565b9050919050565b6000602082019050818103600083015261547e81614a41565b9050919050565b6000602082019050818103600083015261549e81614aa7565b9050919050565b600060208201905081810360008301526154be81614ae7565b9050919050565b600060208201905081810360008301526154de81614b27565b9050919050565b600060208201905081810360008301526154fe81614b8d565b9050919050565b6000602082019050818103600083015261551e81614bcd565b9050919050565b6000602082019050818103600083015261553e81614c0d565b9050919050565b6000602082019050818103600083015261555e81614c73565b9050919050565b6000602082019050818103600083015261557e81614cb3565b9050919050565b6000602082019050818103600083015261559e81614cf3565b9050919050565b600060208201905081810360008301526155be81614d33565b9050919050565b600060208201905081810360008301526155de81614d99565b9050919050565b600060208201905081810360008301526155fe81614dd9565b9050919050565b6000602082019050818103600083015261561e81614e3f565b9050919050565b6000602082019050818103600083015261563e81614e7f565b9050919050565b6000602082019050818103600083015261565e81614ebf565b9050919050565b6000602082019050818103600083015261567e81614eff565b9050919050565b6000602082019050818103600083015261569e81614f3f565b9050919050565b600060208201905081810360008301526156be81614f7f565b9050919050565b600060208201905081810360008301526156de81614fbf565b9050919050565b6000604051905081810181811067ffffffffffffffff8211171561570c5761570b615b38565b5b8060405250919050565b600067ffffffffffffffff82111561573157615730615b38565b5b602082029050602081019050919050565b600067ffffffffffffffff82111561575d5761575c615b38565b5b602082029050602081019050919050565b600067ffffffffffffffff82111561578957615788615b38565b5b602082029050602081019050919050565b600067ffffffffffffffff8211156157b5576157b4615b38565b5b602082029050602081019050919050565b600067ffffffffffffffff8211156157e1576157e0615b38565b5b602082029050602081019050919050565b600067ffffffffffffffff82111561580d5761580c615b38565b5b601f19601f8301169050602081019050919050565b6000819050602082019050919050565b6000819050602082019050919050565b6000819050602082019050919050565b6000819050602082019050919050565b6000819050602082019050919050565b60008190508160005260206000209050919050565b600081519050919050565b600081519050919050565b600081519050919050565b600081519050919050565b600081519050919050565b600081519050919050565b6000602082019050919050565b6000602082019050919050565b6000602082019050919050565b6000602082019050919050565b6000602082019050919050565b600082825260208201905092915050565b600082825260208201905092915050565b600082825260208201905092915050565b600082825260208201905092915050565b600082825260208201905092915050565b600082825260208201905092915050565b600082825260208201905092915050565b600082825260208201905092915050565b600081905092915050565b60006159a8826159c5565b9050919050565b60008115159050919050565b6000819050919050565b600073ffffffffffffffffffffffffffffffffffffffff82169050919050565b6000819050919050565b82818337600083830152505050565b60005b83811015615a1c578082015181840152602081019050615a01565b83811115615a2b576000848401525b50505050565b60006002820490506001821680615a4957607f821691505b60208210811415615a5d57615a5c615b09565b5b50919050565b6000615a6e826159e5565b91507fffffffffffffffffffffffffffffffffffffffffffffffffffffffffffffffff821415615aa157615aa0615ada565b5b600182019050919050565b6000615ab782615abe565b9050919050565b6000615ac982615b78565b9050919050565b6000819050919050565b7f4e487b7100000000000000000000000000000000000000000000000000000000600052601160045260246000fd5b7f4e487b7100000000000000000000000000000000000000000000000000000000600052602260045260246000fd5b7f4e487b7100000000000000000000000000000000000000000000000000000000600052604160045260246000fd5b6000601f19601f8301169050919050565b60008160601b9050919050565b615b8e8161599d565b8114615b9957600080fd5b50565b615ba5816159bb565b8114615bb057600080fd5b50565b615bbc816159e5565b8114615bc757600080fd5b5056fea26469706673582212201d8132cbac11387c9f27869a5a998db7dcdb2df2cf085c1acd6d7828140c21d064736f6c63430008000033",
  "immutableReferences": {},
  "source": "// SPDX-License-Identifier: MIT\r\npragma solidity ^0.8.0;\r\n\r\ncontract VotingSystem {\r\n    struct Admin {\r\n        string username;\r\n        bytes32 hashedPassword;\r\n        address adminAddress;\r\n    }\r\n\r\n    struct Candidate {\r\n        string name;\r\n        uint voteCount;\r\n    }\r\n\r\n    struct Position {\r\n        string name;\r\n        Candidate[] candidates;\r\n    }\r\n\r\n    struct Ballot {\r\n        string id; // Store the actual ballot ID (8-character string)\r\n        string title;\r\n        address adminAddress;\r\n        Position[] positions;\r\n        bool isClosed;\r\n    }\r\n\r\n    struct Voter {\r\n        bytes32 hashedPassword;\r\n        string ballotId; // Store unhashed ballot ID\r\n        bool isRegistered;\r\n        bool hasVoted;\r\n    }\r\n\r\n    mapping(address => Admin) private admins;\r\n    mapping(string => address) private usernameToAddress;\r\n    mapping(address => bool) public isAdminRegistered;\r\n    mapping(string => Ballot) public ballots; // Use string as key to store actual Ballot ID\r\n    mapping(address => string[]) private adminBallots; // Store actual ballot IDs\r\n    mapping(address => Voter) public registeredVoters;\r\n\r\n    event AdminRegistered(string username, address adminAddress);\r\n    event BallotCreated(string ballotId, string title, address indexed admin);\r\n    event VoterRegistered(address indexed voter, string ballotId);\r\n    event VoterAuthenticated(address indexed voter);\r\n    event VoteCasted(address indexed voter, string ballotId, uint positionIndex, uint candidateIndex);\r\n\r\n    function registerAdmin(string memory _username, string memory _password) public {\r\n        require(bytes(_username).length > 0, \"Username required\");\r\n        require(bytes(_password).length > 0, \"Password required\");\r\n        require(usernameToAddress[_username] == address(0), \"Username already exists\");\r\n        require(!isAdminRegistered[msg.sender], \"Admin already registered\");\r\n\r\n        bytes32 hashedPassword = keccak256(abi.encodePacked(_password));\r\n\r\n        admins[msg.sender] = Admin(_username, hashedPassword, msg.sender);\r\n        usernameToAddress[_username] = msg.sender;\r\n        isAdminRegistered[msg.sender] = true;\r\n\r\n        emit AdminRegistered(_username, msg.sender);\r\n    }\r\n\r\n    function adminLogin(string memory _username, string memory _password) \r\n    public view returns (bool, string[] memory, string[] memory) \r\n{\r\n    address adminAddr = usernameToAddress[_username];\r\n    require(adminAddr != address(0), \"Admin not found\");\r\n    require(adminAddr == msg.sender, \"Unauthorized: Use your registered MetaMask address\");\r\n\r\n    Admin storage admin = admins[adminAddr];\r\n    require(admin.hashedPassword == keccak256(abi.encodePacked(_password)), \"Incorrect password\");\r\n\r\n    uint ballotCountForAdmin = adminBallots[adminAddr].length;\r\n    string[] memory ballotIds = new string[](ballotCountForAdmin);\r\n    string[] memory ballotTitles = new string[](ballotCountForAdmin);\r\n\r\n    for (uint i = 0; i < ballotCountForAdmin; i++) {\r\n        string memory ballotId = adminBallots[adminAddr][i];\r\n        ballotIds[i] = ballots[ballotId].id;\r\n        ballotTitles[i] = ballots[ballotId].title;\r\n    }\r\n\r\n    return (true, ballotIds, ballotTitles);\r\n}\r\n\r\n\r\n    function createBallot(\r\n        string memory _ballotId,\r\n        string memory _title,\r\n        string[] memory _positionNames,\r\n        string[][] memory _candidateNames\r\n    ) public {\r\n        require(bytes(_ballotId).length == 8, \"Ballot ID must be exactly 8 characters long\");\r\n        require(bytes(_title).length > 0, \"Ballot title required\");\r\n        require(_positionNames.length > 0, \"At least one position required\");\r\n        require(bytes(ballots[_ballotId].id).length == 0, \"Ballot ID already exists\");\r\n\r\n        Ballot storage newBallot = ballots[_ballotId];\r\n        newBallot.id = _ballotId;\r\n        newBallot.title = _title;\r\n        newBallot.adminAddress = msg.sender;\r\n        newBallot.isClosed = false;\r\n\r\n        for (uint i = 0; i < _positionNames.length; i++) {\r\n            newBallot.positions.push();\r\n            Position storage newPosition = newBallot.positions[i];\r\n            newPosition.name = _positionNames[i];\r\n\r\n            for (uint j = 0; j < _candidateNames[i].length; j++) {\r\n                newPosition.candidates.push(Candidate(_candidateNames[i][j], 0));\r\n            }\r\n        }\r\n\r\n        adminBallots[msg.sender].push(_ballotId);\r\n\r\n        emit BallotCreated(_ballotId, _title, msg.sender);\r\n    }\r\n\r\n    function registerVoter(address _voter, string memory _ballotId, bytes32 _hashedPassword) public {\r\n    require(isAdminRegistered[msg.sender], \"Only admins can register voters\");\r\n    require(bytes(_ballotId).length == 8, \"Invalid Ballot ID\");\r\n    require(!registeredVoters[_voter].isRegistered, \"Voter already registered\");\r\n    require(bytes(ballots[_ballotId].id).length > 0, \"Ballot ID does not exist\");\r\n\r\n    registeredVoters[_voter] = Voter(_hashedPassword, _ballotId, true, false);\r\n    ballotVoters[_ballotId].push(_voter); //  Store voter address in array\r\n\r\n    emit VoterRegistered(_voter, _ballotId);\r\n}\r\n\r\n\r\n    function authenticateVoter(string memory _ballotId, string memory _password) \r\n    public view returns (bool isAuthenticated, bool hasVoted, string memory ballotId) \r\n{\r\n    require(bytes(_ballotId).length == 8, \"Invalid Ballot ID\");\r\n    require(bytes(ballots[_ballotId].id).length > 0, \"Ballot ID does not exist\");\r\n\r\n    Voter storage voter = registeredVoters[msg.sender];\r\n    require(voter.isRegistered, \"Voter not registered for any ballot\");\r\n    require(keccak256(abi.encodePacked(voter.ballotId)) == keccak256(abi.encodePacked(_ballotId)), \"Ballot ID mismatch\");\r\n    require(voter.hashedPassword == keccak256(abi.encodePacked(_password)), \"Incorrect password\");\r\n\r\n    return (true, voter.hasVoted, voter.ballotId); //  Returns authentication status, hasVoted status, and ballot ID\r\n}\r\n\r\n\r\n    mapping(bytes32 => bool) private positionVotes; // Tracks if a voter has voted for each position\r\n\r\nfunction voteMultiple(string memory _ballotId, uint[] memory _positionIndexes, uint[] memory _candidateIndexes) public {\r\n    require(bytes(ballots[_ballotId].id).length > 0, \"Invalid ballot ID\");\r\n    require(!ballots[_ballotId].isClosed, \"Voting has ended\");\r\n\r\n    Voter storage voter = registeredVoters[msg.sender];\r\n    require(voter.isRegistered, \"Voter not registered\");\r\n    require(keccak256(abi.encodePacked(voter.ballotId)) == keccak256(abi.encodePacked(_ballotId)), \"Ballot ID mismatch\");\r\n    require(!voter.hasVoted, \"You have already completed voting\");\r\n\r\n    require(_positionIndexes.length == _candidateIndexes.length, \"Invalid vote data\");\r\n\r\n    for (uint i = 0; i < _positionIndexes.length; i++) {\r\n        uint positionIndex = _positionIndexes[i];\r\n        uint candidateIndex = _candidateIndexes[i];\r\n\r\n        // Ensure the voter has not voted for this position\r\n        bytes32 voteKey = keccak256(abi.encodePacked(msg.sender, _ballotId, positionIndex));\r\n        require(!positionVotes[voteKey], \"Already voted for this position\");\r\n\r\n        //  Register the vote\r\n        ballots[_ballotId].positions[positionIndex].candidates[candidateIndex].voteCount++;\r\n        positionVotes[voteKey] = true;\r\n    }\r\n\r\n    //  Mark voter as \"hasVoted\" after completing all positions\r\n    voter.hasVoted = true;\r\n\r\n    emit VoteCasted(msg.sender, _ballotId, _positionIndexes[0], _candidateIndexes[0]); // Emit event for tracking\r\n}\r\n\r\n\r\n\r\n\r\n    function getMyBallots() public view returns (string[] memory, string[] memory) {\r\n        uint ballotCountForAdmin = adminBallots[msg.sender].length;\r\n        string[] memory ballotIds = new string[](ballotCountForAdmin);\r\n        string[] memory ballotTitles = new string[](ballotCountForAdmin);\r\n\r\n        for (uint i = 0; i < ballotCountForAdmin; i++) {\r\n            string memory ballotId = adminBallots[msg.sender][i];\r\n            ballotIds[i] = ballots[ballotId].id;\r\n            ballotTitles[i] = ballots[ballotId].title;\r\n        }\r\n\r\n        return (ballotIds, ballotTitles);\r\n    }\r\n\r\n    // Function to get ballot details\r\n    function getBallotDetails(string memory _ballotId)\r\n        public\r\n        view\r\n        returns (string memory, string memory, string[] memory, string[][] memory)\r\n    {\r\n        require(bytes(ballots[_ballotId].id).length > 0, \"Ballot ID does not exist\");\r\n\r\n        Ballot storage ballot = ballots[_ballotId];\r\n        uint positionCount = ballot.positions.length;\r\n        string[] memory positionNames = new string[](positionCount);\r\n        string[][] memory candidateNames = new string[][](positionCount);\r\n\r\n        for (uint i = 0; i < positionCount; i++) {\r\n            positionNames[i] = ballot.positions[i].name;\r\n            uint candidateCount = ballot.positions[i].candidates.length;\r\n            candidateNames[i] = new string[](candidateCount);\r\n\r\n            for (uint j = 0; j < candidateCount; j++) {\r\n                candidateNames[i][j] = ballot.positions[i].candidates[j].name;\r\n            }\r\n        }\r\n\r\n        return (ballot.id, ballot.title, positionNames, candidateNames);\r\n    }\r\n\r\n    \r\n    mapping(string => address[]) private ballotVoters; // Stores voter addresses per ballot\r\n\r\n\r\n    function registerMultipleVoters(\r\n    address[] memory _voterAddresses,\r\n    string memory _ballotId,\r\n    bytes32[] memory _hashedPasswords\r\n) public {\r\n    require(isAdminRegistered[msg.sender], \"Only admins can register voters\");\r\n    require(bytes(_ballotId).length == 8, \"Invalid Ballot ID\");\r\n    require(bytes(ballots[_ballotId].id).length > 0, \"Ballot ID does not exist\");\r\n    require(_voterAddresses.length == _hashedPasswords.length, \"Mismatched array lengths\");\r\n\r\n    for (uint i = 0; i < _voterAddresses.length; i++) {\r\n        require(!registeredVoters[_voterAddresses[i]].isRegistered, \"Voter already registered\");\r\n\r\n        registeredVoters[_voterAddresses[i]] = Voter(_hashedPasswords[i], _ballotId, true, false);\r\n        ballotVoters[_ballotId].push(_voterAddresses[i]); //  Store voter address\r\n\r\n        emit VoterRegistered(_voterAddresses[i], _ballotId);\r\n    }\r\n}\r\nfunction getVotersForBallot(string memory _ballotId) public view returns (address[] memory) {\r\n    require(bytes(ballots[_ballotId].id).length > 0, \"Ballot ID does not exist\");\r\n    return ballotVoters[_ballotId]; //  Return list of voter addresses\r\n}\r\n\r\nfunction getResults(string memory _ballotId) \r\n    public \r\n    view \r\n    returns (string[] memory, string[][] memory, uint[][] memory) \r\n{\r\n    require(bytes(ballots[_ballotId].id).length > 0, \"Ballot ID does not exist\");\r\n\r\n    Ballot storage ballot = ballots[_ballotId];\r\n    uint positionCount = ballot.positions.length;\r\n\r\n    string[] memory positionNames = new string[](positionCount);\r\n    string[][] memory candidateNames = new string[][](positionCount);\r\n    uint[][] memory voteCounts = new uint[][](positionCount);\r\n\r\n    for (uint i = 0; i < positionCount; i++) {\r\n        positionNames[i] = ballot.positions[i].name;\r\n        uint candidateCount = ballot.positions[i].candidates.length;\r\n\r\n        candidateNames[i] = new string[](candidateCount);\r\n        voteCounts[i] = new uint[](candidateCount);\r\n\r\n        for (uint j = 0; j < candidateCount; j++) {\r\n            candidateNames[i][j] = ballot.positions[i].candidates[j].name;\r\n            voteCounts[i][j] = ballot.positions[i].candidates[j].voteCount;\r\n        }\r\n    }\r\n\r\n    return (positionNames, candidateNames, voteCounts);\r\n}\r\n\r\nfunction isBallotClosed(string memory _ballotId) public view returns (bool) {\r\n    require(bytes(ballots[_ballotId].id).length > 0, \"Ballot ID does not exist\");\r\n    return ballots[_ballotId].isClosed;\r\n}\r\n\r\nevent VotingEnded(string ballotId, address admin);\r\n\r\nfunction endVoting(string memory _ballotId) public {\r\n    require(bytes(ballots[_ballotId].id).length > 0, \"Ballot ID does not exist\");\r\n    require(msg.sender == ballots[_ballotId].adminAddress, \"Only the ballot creator can close voting\");\r\n    require(!ballots[_ballotId].isClosed, \"Voting is already closed\");\r\n\r\n    ballots[_ballotId].isClosed = true;\r\n\r\n    emit VotingEnded(_ballotId, msg.sender); //  Emits event when voting ends\r\n}\r\n\r\n\r\n}\r\n",
  "sourcePath": "C:\\Users\\ADMIN PC\\Desktop\\The-Voting-System\\contracts\\VotingSystem.sol",
  "compiler": {
    "name": "solc",
    "version": "0.8.0+commit.c7dfd78e.Emscripten.clang"
  },
  "schemaVersion": "3.4.14",
  "updatedAt": "2025-08-13T10:16:19.650Z",
  "networkType": "ethereum",
  "devdoc": {
    "kind": "dev",
    "methods": {},
    "version": 1
  },
  "userdoc": {
    "kind": "user",
    "methods": {},
    "version": 1
  }
}