{
  "contractName": "VotingSystem",
  "abi": [
    {
      "anonymous": false,
      "inputs": [
        {
          "indexed": false,
          "internalType": "string",
          "name": "username",
          "type": "string"
        },
        {
          "indexed": false,
          "internalType": "address",
          "name": "adminAddress",
          "type": "address"
        }
      ],
      "name": "AdminRegistered",
      "type": "event"
    },
    {
      "anonymous": false,
      "inputs": [
        {
          "indexed": false,
          "internalType": "string",
          "name": "ballotId",
          "type": "string"
        },
        {
          "indexed": false,
          "internalType": "string",
          "name": "title",
          "type": "string"
        },
        {
          "indexed": true,
          "internalType": "address",
          "name": "admin",
          "type": "address"
        }
      ],
      "name": "BallotCreated",
      "type": "event"
    },
    {
      "anonymous": false,
      "inputs": [
        {
          "indexed": true,
          "internalType": "address",
          "name": "voter",
          "type": "address"
        },
        {
          "indexed": false,
          "internalType": "string",
          "name": "ballotId",
          "type": "string"
        },
        {
          "indexed": false,
          "internalType": "uint256",
          "name": "positionIndex",
          "type": "uint256"
        },
        {
          "indexed": false,
          "internalType": "uint256",
          "name": "candidateIndex",
          "type": "uint256"
        }
      ],
      "name": "VoteCasted",
      "type": "event"
    },
    {
      "anonymous": false,
      "inputs": [
        {
          "indexed": true,
          "internalType": "address",
          "name": "voter",
          "type": "address"
        },
        {
          "indexed": false,
          "internalType": "string",
          "name": "ballotId",
          "type": "string"
        }
      ],
      "name": "VoterRegistered",
      "type": "event"
    },
    {
      "anonymous": false,
      "inputs": [
        {
          "indexed": false,
          "internalType": "string",
          "name": "ballotId",
          "type": "string"
        },
        {
          "indexed": false,
          "internalType": "address",
          "name": "admin",
          "type": "address"
        }
      ],
      "name": "VotingEnded",
      "type": "event"
    },
    {
      "inputs": [
        {
          "internalType": "string",
          "name": "",
          "type": "string"
        }
      ],
      "name": "ballots",
      "outputs": [
        {
          "internalType": "string",
          "name": "id",
          "type": "string"
        },
        {
          "internalType": "string",
          "name": "title",
          "type": "string"
        },
        {
          "internalType": "address",
          "name": "adminAddress",
          "type": "address"
        },
        {
          "internalType": "bool",
          "name": "isClosed",
          "type": "bool"
        }
      ],
      "stateMutability": "view",
      "type": "function"
    },
    {
      "inputs": [
        {
          "internalType": "address",
          "name": "",
          "type": "address"
        }
      ],
      "name": "isAdminRegistered",
      "outputs": [
        {
          "internalType": "bool",
          "name": "",
          "type": "bool"
        }
      ],
      "stateMutability": "view",
      "type": "function"
    },
    {
      "inputs": [
        {
          "internalType": "string",
          "name": "",
          "type": "string"
        },
        {
          "internalType": "address",
          "name": "",
          "type": "address"
        }
      ],
      "name": "registeredVoters",
      "outputs": [
        {
          "internalType": "bytes32",
          "name": "hashedPassword",
          "type": "bytes32"
        },
        {
          "internalType": "string",
          "name": "ballotId",
          "type": "string"
        },
        {
          "internalType": "bool",
          "name": "isRegistered",
          "type": "bool"
        },
        {
          "internalType": "bool",
          "name": "hasVoted",
          "type": "bool"
        }
      ],
      "stateMutability": "view",
      "type": "function"
    },
    {
      "inputs": [
        {
          "internalType": "string",
          "name": "_username",
          "type": "string"
        },
        {
          "internalType": "string",
          "name": "_password",
          "type": "string"
        }
      ],
      "name": "registerAdmin",
      "outputs": [],
      "stateMutability": "nonpayable",
      "type": "function"
    },
    {
      "inputs": [
        {
          "internalType": "string",
          "name": "_username",
          "type": "string"
        },
        {
          "internalType": "string",
          "name": "_password",
          "type": "string"
        }
      ],
      "name": "adminLogin",
      "outputs": [
        {
          "internalType": "bool",
          "name": "",
          "type": "bool"
        },
        {
          "internalType": "string[]",
          "name": "",
          "type": "string[]"
        },
        {
          "internalType": "string[]",
          "name": "",
          "type": "string[]"
        }
      ],
      "stateMutability": "view",
      "type": "function"
    },
    {
      "inputs": [
        {
          "internalType": "string",
          "name": "_ballotId",
          "type": "string"
        },
        {
          "internalType": "string",
          "name": "_title",
          "type": "string"
        },
        {
          "internalType": "string[]",
          "name": "_positionNames",
          "type": "string[]"
        },
        {
          "internalType": "string[][]",
          "name": "_candidateNames",
          "type": "string[][]"
        }
      ],
      "name": "createBallot",
      "outputs": [],
      "stateMutability": "nonpayable",
      "type": "function"
    },
    {
      "inputs": [
        {
          "internalType": "address",
          "name": "_voter",
          "type": "address"
        },
        {
          "internalType": "string",
          "name": "_ballotId",
          "type": "string"
        },
        {
          "internalType": "bytes32",
          "name": "_hashedPassword",
          "type": "bytes32"
        }
      ],
      "name": "registerVoter",
      "outputs": [],
      "stateMutability": "nonpayable",
      "type": "function"
    },
    {
      "inputs": [
        {
          "internalType": "address[]",
          "name": "_voterAddresses",
          "type": "address[]"
        },
        {
          "internalType": "string",
          "name": "_ballotId",
          "type": "string"
        },
        {
          "internalType": "bytes32[]",
          "name": "_hashedPasswords",
          "type": "bytes32[]"
        }
      ],
      "name": "registerMultipleVoters",
      "outputs": [],
      "stateMutability": "nonpayable",
      "type": "function"
    },
    {
      "inputs": [
        {
          "internalType": "string",
          "name": "_ballotId",
          "type": "string"
        }
      ],
      "name": "getVotersForBallot",
      "outputs": [
        {
          "internalType": "address[]",
          "name": "",
          "type": "address[]"
        }
      ],
      "stateMutability": "view",
      "type": "function"
    },
    {
      "inputs": [
        {
          "internalType": "string",
          "name": "_ballotId",
          "type": "string"
        },
        {
          "internalType": "string",
          "name": "_password",
          "type": "string"
        }
      ],
      "name": "authenticateVoter",
      "outputs": [
        {
          "internalType": "bool",
          "name": "isAuthenticated",
          "type": "bool"
        },
        {
          "internalType": "bool",
          "name": "hasVoted",
          "type": "bool"
        },
        {
          "internalType": "string",
          "name": "ballotId",
          "type": "string"
        }
      ],
      "stateMutability": "view",
      "type": "function"
    },
    {
      "inputs": [
        {
          "internalType": "string",
          "name": "_ballotId",
          "type": "string"
        },
        {
          "internalType": "uint256[]",
          "name": "_positionIndexes",
          "type": "uint256[]"
        },
        {
          "internalType": "uint256[]",
          "name": "_candidateIndexes",
          "type": "uint256[]"
        }
      ],
      "name": "voteMultiple",
      "outputs": [],
      "stateMutability": "nonpayable",
      "type": "function"
    },
    {
      "inputs": [],
      "name": "getMyBallots",
      "outputs": [
        {
          "internalType": "string[]",
          "name": "",
          "type": "string[]"
        },
        {
          "internalType": "string[]",
          "name": "",
          "type": "string[]"
        }
      ],
      "stateMutability": "view",
      "type": "function"
    },
    {
      "inputs": [
        {
          "internalType": "string",
          "name": "_ballotId",
          "type": "string"
        }
      ],
      "name": "getBallotDetails",
      "outputs": [
        {
          "internalType": "string",
          "name": "",
          "type": "string"
        },
        {
          "internalType": "string",
          "name": "",
          "type": "string"
        },
        {
          "internalType": "string[]",
          "name": "",
          "type": "string[]"
        },
        {
          "internalType": "string[][]",
          "name": "",
          "type": "string[][]"
        }
      ],
      "stateMutability": "view",
      "type": "function"
    },
    {
      "inputs": [
        {
          "internalType": "string",
          "name": "_ballotId",
          "type": "string"
        }
      ],
      "name": "getResults",
      "outputs": [
        {
          "internalType": "string[]",
          "name": "",
          "type": "string[]"
        },
        {
          "internalType": "string[][]",
          "name": "",
          "type": "string[][]"
        },
        {
          "internalType": "uint256[][]",
          "name": "",
          "type": "uint256[][]"
        }
      ],
      "stateMutability": "view",
      "type": "function"
    },
    {
      "inputs": [
        {
          "internalType": "string",
          "name": "_ballotId",
          "type": "string"
        }
      ],
      "name": "isBallotClosed",
      "outputs": [
        {
          "internalType": "bool",
          "name": "",
          "type": "bool"
        }
      ],
      "stateMutability": "view",
      "type": "function"
    },
    {
      "inputs": [
        {
          "internalType": "string",
          "name": "_ballotId",
          "type": "string"
        }
      ],
      "name": "endVoting",
      "outputs": [],
      "stateMutability": "nonpayable",
      "type": "function"
    }
  ],
  "bytecode": "0x608060405234801561001057600080fd5b50615ce880620000216000396000f3fe608060405234801561001057600080fd5b50600436106101005760003560e01c806374098f4611610097578063bbbb2dba11610066578063bbbb2dba146102da578063c71540801461030d578063e6598e2d1461033f578063f8f98b791461036f57610100565b806374098f461461023c5780637437ffa11461025b5780638634602e14610277578063a1b35bea146102aa57610100565b80633b00a3e3116100d35780633b00a3e3146101a25780634bba734f146101be5780636a2d6877146101ee5780636bdc838e1461020a57610100565b806311e4e0a61461010557806313e52b4e146101385780632ff20f01146101545780633329187214610186575b600080fd5b61011f600480360381019061011a91906142f8565b61038b565b60405161012f94939291906152c6565b60405180910390f35b610152600480360381019061014d91906141b9565b610480565b005b61016e600480360381019061016991906142b7565b61082a565b60405161017d939291906151a5565b60405180910390f35b6101a0600480360381019061019b919061444f565b611022565b005b6101bc60048036038101906101b791906142b7565b611516565b005b6101d860048036038101906101d39190614190565b61171a565b6040516101e59190615228565b60405180910390f35b6102086004803603810190610203919061434c565b61173a565b005b610224600480360381019061021f91906143e3565b611cbc565b60405161023393929190615288565b60405180910390f35b610244611fd4565b6040516102529291906151f1565b60405180910390f35b61027560048036038101906102709190614220565b612425565b005b610291600480360381019061028c91906142b7565b612973565b6040516102a194939291906153ee565b60405180910390f35b6102c460048036038101906102bf91906142b7565b613045565b6040516102d19190615228565b60405180910390f35b6102f460048036038101906102ef91906142b7565b6130ec565b604051610304949392919061539b565b60405180910390f35b610327600480360381019061032291906143e3565b61326f565b60405161033693929190615243565b60405180910390f35b610359600480360381019061035491906142b7565b61389a565b6040516103669190615183565b60405180910390f35b610389600480360381019061038491906143e3565b6139b6565b005b600682805160208101820180518482526020830160208501208183528095505050505050602052806000526040600020600091509150508060000154908060010180546103d790615b19565b80601f016020809104026020016040519081016040528092919081815260200182805461040390615b19565b80156104505780601f1061042557610100808354040283529160200191610450565b820191906000526020600020905b81548152906001019060200180831161043357829003601f168201915b5050505050908060020160009054906101000a900460ff16908060020160019054906101000a900460ff16905084565b600260003373ffffffffffffffffffffffffffffffffffffffff1673ffffffffffffffffffffffffffffffffffffffff16815260200190815260200160002060009054906101000a900460ff1661050c576040517f08c379a00000000000000000000000000000000000000000000000000000000081526004016105039061548d565b60405180910390fd5b6008825114610550576040517f08c379a00000000000000000000000000000000000000000000000000000000081526004016105479061574d565b60405180910390fd5b60006004836040516105629190615155565b9081526020016040518091039020600001805461057e90615b19565b9050116105c0576040517f08c379a00000000000000000000000000000000000000000000000000000000081526004016105b7906155ed565b60405180910390fd5b6006826040516105d09190615155565b908152602001604051809103902060008473ffffffffffffffffffffffffffffffffffffffff1673ffffffffffffffffffffffffffffffffffffffff16815260200190815260200160002060020160009054906101000a900460ff161561066c576040517f08c379a0000000000000000000000000000000000000000000000000000000008152600401610663906154ad565b60405180910390fd5b6040518060800160405280828152602001838152602001600115158152602001600015158152506006836040516106a39190615155565b908152602001604051809103902060008573ffffffffffffffffffffffffffffffffffffffff1673ffffffffffffffffffffffffffffffffffffffff168152602001908152602001600020600082015181600001556020820151816001019080519060200190610714929190613d76565b5060408201518160020160006101000a81548160ff02191690831515021790555060608201518160020160016101000a81548160ff0219169083151502179055509050506005826040516107689190615155565b9081526020016040518091039020839080600181540180825580915050600190039060005260206000200160009091909190916101000a81548173ffffffffffffffffffffffffffffffffffffffff021916908373ffffffffffffffffffffffffffffffffffffffff1602179055508273ffffffffffffffffffffffffffffffffffffffff167fffeb7702be7dcd8fee170d954b70afb9a7c78f7f5cff232d037e7b9d8243356a8360405161081d9190615312565b60405180910390a2505050565b606080606060006004856040516108419190615155565b9081526020016040518091039020600001805461085d90615b19565b90501161089f576040517f08c379a0000000000000000000000000000000000000000000000000000000008152600401610896906155ed565b60405180910390fd5b60006004856040516108b19190615155565b9081526020016040518091039020905060008160030180549050905060008167ffffffffffffffff81111561090f577f4e487b7100000000000000000000000000000000000000000000000000000000600052604160045260246000fd5b60405190808252806020026020018201604052801561094257816020015b606081526020019060019003908161092d5790505b50905060008267ffffffffffffffff811115610987577f4e487b7100000000000000000000000000000000000000000000000000000000600052604160045260246000fd5b6040519080825280602002602001820160405280156109ba57816020015b60608152602001906001900390816109a55790505b50905060008367ffffffffffffffff8111156109ff577f4e487b7100000000000000000000000000000000000000000000000000000000600052604160045260246000fd5b604051908082528060200260200182016040528015610a3257816020015b6060815260200190600190039081610a1d5790505b50905060005b8481101561100c57856003018181548110610a7c577f4e487b7100000000000000000000000000000000000000000000000000000000600052603260045260246000fd5b90600052602060002090600202016000018054610a9890615b19565b80601f0160208091040260200160405190810160405280929190818152602001828054610ac490615b19565b8015610b115780601f10610ae657610100808354040283529160200191610b11565b820191906000526020600020905b815481529060010190602001808311610af457829003601f168201915b5050505050848281518110610b4f577f4e487b7100000000000000000000000000000000000000000000000000000000600052603260045260246000fd5b60200260200101819052506000866003018281548110610b98577f4e487b7100000000000000000000000000000000000000000000000000000000600052603260045260246000fd5b90600052602060002090600202016001018054905090508067ffffffffffffffff811115610bef577f4e487b7100000000000000000000000000000000000000000000000000000000600052604160045260246000fd5b604051908082528060200260200182016040528015610c2257816020015b6060815260200190600190039081610c0d5790505b50848381518110610c5c577f4e487b7100000000000000000000000000000000000000000000000000000000600052603260045260246000fd5b60200260200101819052508067ffffffffffffffff811115610ca7577f4e487b7100000000000000000000000000000000000000000000000000000000600052604160045260246000fd5b604051908082528060200260200182016040528015610cd55781602001602082028036833780820191505090505b50838381518110610d0f577f4e487b7100000000000000000000000000000000000000000000000000000000600052603260045260246000fd5b602002602001018190525060005b81811015610ff757876003018381548110610d61577f4e487b7100000000000000000000000000000000000000000000000000000000600052603260045260246000fd5b90600052602060002090600202016001018181548110610daa577f4e487b7100000000000000000000000000000000000000000000000000000000600052603260045260246000fd5b90600052602060002090600202016000018054610dc690615b19565b80601f0160208091040260200160405190810160405280929190818152602001828054610df290615b19565b8015610e3f5780601f10610e1457610100808354040283529160200191610e3f565b820191906000526020600020905b815481529060010190602001808311610e2257829003601f168201915b5050505050858481518110610e7d577f4e487b7100000000000000000000000000000000000000000000000000000000600052603260045260246000fd5b60200260200101518281518110610ebd577f4e487b7100000000000000000000000000000000000000000000000000000000600052603260045260246000fd5b6020026020010181905250876003018381548110610f04577f4e487b7100000000000000000000000000000000000000000000000000000000600052603260045260246000fd5b90600052602060002090600202016001018181548110610f4d577f4e487b7100000000000000000000000000000000000000000000000000000000600052603260045260246000fd5b906000526020600020906002020160010154848481518110610f98577f4e487b7100000000000000000000000000000000000000000000000000000000600052603260045260246000fd5b60200260200101518281518110610fd8577f4e487b7100000000000000000000000000000000000000000000000000000000600052603260045260246000fd5b6020026020010181815250508080610fef90615b4b565b915050610d1d565b5050808061100490615b4b565b915050610a38565b5082828297509750975050505050509193909250565b6008845114611066576040517f08c379a000000000000000000000000000000000000000000000000000000000815260040161105d9061556d565b60405180910390fd5b60008351116110aa576040517f08c379a00000000000000000000000000000000000000000000000000000000081526004016110a19061554d565b60405180910390fd5b60008251116110ee576040517f08c379a00000000000000000000000000000000000000000000000000000000081526004016110e59061578d565b60405180910390fd5b60006004856040516111009190615155565b9081526020016040518091039020600001805461111c90615b19565b90501461115e576040517f08c379a0000000000000000000000000000000000000000000000000000000008152600401611155906156ad565b60405180910390fd5b60006004856040516111709190615155565b9081526020016040518091039020905084816000019080519060200190611198929190613d76565b50838160010190805190602001906111b1929190613d76565b50338160020160006101000a81548173ffffffffffffffffffffffffffffffffffffffff021916908373ffffffffffffffffffffffffffffffffffffffff16021790555060008160040160006101000a81548160ff02191690831515021790555060005b8351811015611445578160030160018160018154018082558091505003906000526020600020905050600082600301828154811061127c577f4e487b7100000000000000000000000000000000000000000000000000000000600052603260045260246000fd5b906000526020600020906002020190508482815181106112c5577f4e487b7100000000000000000000000000000000000000000000000000000000600052603260045260246000fd5b60200260200101518160000190805190602001906112e4929190613d76565b5060005b848381518110611321577f4e487b7100000000000000000000000000000000000000000000000000000000600052603260045260246000fd5b60200260200101515181101561143057816001016040518060400160405280878681518110611379577f4e487b7100000000000000000000000000000000000000000000000000000000600052603260045260246000fd5b602002602001015184815181106113b9577f4e487b7100000000000000000000000000000000000000000000000000000000600052603260045260246000fd5b60200260200101518152602001600081525090806001815401808255809150506001900390600052602060002090600202016000909190919091506000820151816000019080519060200190611410929190613d76565b50602082015181600101555050808061142890615b4b565b9150506112e8565b5050808061143d90615b4b565b915050611215565b50600360003373ffffffffffffffffffffffffffffffffffffffff1673ffffffffffffffffffffffffffffffffffffffff168152602001908152602001600020859080600181540180825580915050600190039060005260206000200160009091909190915090805190602001906114be929190613d76565b503373ffffffffffffffffffffffffffffffffffffffff167f5d4ff6bed055bb6bb40742ad27d6df7113d8c7b79e6d1c37071a20e2cef732688686604051611507929190615364565b60405180910390a25050505050565b60006004826040516115289190615155565b9081526020016040518091039020600001805461154490615b19565b905011611586576040517f08c379a000000000000000000000000000000000000000000000000000000000815260040161157d906155ed565b60405180910390fd5b6004816040516115969190615155565b908152602001604051809103902060020160009054906101000a900473ffffffffffffffffffffffffffffffffffffffff1673ffffffffffffffffffffffffffffffffffffffff163373ffffffffffffffffffffffffffffffffffffffff1614611635576040517f08c379a000000000000000000000000000000000000000000000000000000000815260040161162c906155ad565b60405180910390fd5b6004816040516116459190615155565b908152602001604051809103902060040160009054906101000a900460ff16156116a4576040517f08c379a000000000000000000000000000000000000000000000000000000000815260040161169b9061552d565b60405180910390fd5b60016004826040516116b69190615155565b908152602001604051809103902060040160006101000a81548160ff0219169083151502179055507f3ab689f5e761cb0d1f72addf7bf809ffc9e3651e8df6cd97c3a9f30db8b7026f813360405161170f929190615334565b60405180910390a150565b60026020528060005260406000206000915054906101000a900460ff1681565b600060048460405161174c9190615155565b9081526020016040518091039020600001805461176890615b19565b9050116117aa576040517f08c379a00000000000000000000000000000000000000000000000000000000081526004016117a1906157ad565b60405180910390fd5b6004836040516117ba9190615155565b908152602001604051809103902060040160009054906101000a900460ff1615611819576040517f08c379a0000000000000000000000000000000000000000000000000000000008152600401611810906155cd565b60405180910390fd5b600060068460405161182b9190615155565b908152602001604051809103902060003373ffffffffffffffffffffffffffffffffffffffff1673ffffffffffffffffffffffffffffffffffffffff16815260200190815260200160002090508060020160009054906101000a900460ff166118c9576040517f08c379a00000000000000000000000000000000000000000000000000000000081526004016118c09061558d565b60405180910390fd5b8060020160019054906101000a900460ff161561191b576040517f08c379a00000000000000000000000000000000000000000000000000000000081526004016119129061560d565b60405180910390fd5b815183511461195f576040517f08c379a00000000000000000000000000000000000000000000000000000000081526004016119569061576d565b60405180910390fd5b60005b8351811015611bc457600033868684815181106119a8577f4e487b7100000000000000000000000000000000000000000000000000000000600052603260045260246000fd5b60200260200101516040516020016119c29392919061511c565b6040516020818303038152906040528051906020012090506007600082815260200190815260200160002060009054906101000a900460ff1615611a3b576040517f08c379a0000000000000000000000000000000000000000000000000000000008152600401611a329061550d565b60405180910390fd5b600486604051611a4b9190615155565b9081526020016040518091039020600301858381518110611a95577f4e487b7100000000000000000000000000000000000000000000000000000000600052603260045260246000fd5b602002602001015181548110611ad4577f4e487b7100000000000000000000000000000000000000000000000000000000600052603260045260246000fd5b9060005260206000209060020201600101848381518110611b1e577f4e487b7100000000000000000000000000000000000000000000000000000000600052603260045260246000fd5b602002602001015181548110611b5d577f4e487b7100000000000000000000000000000000000000000000000000000000600052603260045260246000fd5b90600052602060002090600202016001016000815480929190611b7f90615b4b565b919050555060016007600083815260200190815260200160002060006101000a81548160ff021916908315150217905550508080611bbc90615b4b565b915050611962565b5060018160020160016101000a81548160ff0219169083151502179055503373ffffffffffffffffffffffffffffffffffffffff167f73b0bbe16a2a3b202c20b72e73b4566642f8949c86e403a6e5bcc63cf05cd1638585600081518110611c55577f4e487b7100000000000000000000000000000000000000000000000000000000600052603260045260246000fd5b602002602001015185600081518110611c97577f4e487b7100000000000000000000000000000000000000000000000000000000600052603260045260246000fd5b6020026020010151604051611cae9392919061544f565b60405180910390a250505050565b60008060606008855114611d05576040517f08c379a0000000000000000000000000000000000000000000000000000000008152600401611cfc9061574d565b60405180910390fd5b6000600486604051611d179190615155565b90815260200160405180910390206000018054611d3390615b19565b905011611d75576040517f08c379a0000000000000000000000000000000000000000000000000000000008152600401611d6c906155ed565b60405180910390fd5b6000600686604051611d879190615155565b908152602001604051809103902060003373ffffffffffffffffffffffffffffffffffffffff1673ffffffffffffffffffffffffffffffffffffffff16815260200190815260200160002090508060020160009054906101000a900460ff16611e25576040517f08c379a0000000000000000000000000000000000000000000000000000000008152600401611e1c9061568d565b60405180910390fd5b85604051602001611e369190615155565b6040516020818303038152906040528051906020012081600101604051602001611e60919061516c565b6040516020818303038152906040528051906020012014611eb6576040517f08c379a0000000000000000000000000000000000000000000000000000000008152600401611ead9061570d565b60405180910390fd5b84604051602001611ec79190615155565b60405160208183030381529060405280519060200120816000015414611f22576040517f08c379a0000000000000000000000000000000000000000000000000000000008152600401611f19906154cd565b60405180910390fd5b60018160020160019054906101000a900460ff1682600101808054611f4690615b19565b80601f0160208091040260200160405190810160405280929190818152602001828054611f7290615b19565b8015611fbf5780601f10611f9457610100808354040283529160200191611fbf565b820191906000526020600020905b815481529060010190602001808311611fa257829003601f168201915b50505050509050935093509350509250925092565b6060806000600360003373ffffffffffffffffffffffffffffffffffffffff1673ffffffffffffffffffffffffffffffffffffffff16815260200190815260200160002080549050905060008167ffffffffffffffff811115612060577f4e487b7100000000000000000000000000000000000000000000000000000000600052604160045260246000fd5b60405190808252806020026020018201604052801561209357816020015b606081526020019060019003908161207e5790505b50905060008267ffffffffffffffff8111156120d8577f4e487b7100000000000000000000000000000000000000000000000000000000600052604160045260246000fd5b60405190808252806020026020018201604052801561210b57816020015b60608152602001906001900390816120f65790505b50905060005b83811015612417576000600360003373ffffffffffffffffffffffffffffffffffffffff1673ffffffffffffffffffffffffffffffffffffffff1681526020019081526020016000208281548110612192577f4e487b7100000000000000000000000000000000000000000000000000000000600052603260045260246000fd5b9060005260206000200180546121a790615b19565b80601f01602080910402602001604051908101604052809291908181526020018280546121d390615b19565b80156122205780601f106121f557610100808354040283529160200191612220565b820191906000526020600020905b81548152906001019060200180831161220357829003601f168201915b505050505090506004816040516122379190615155565b9081526020016040518091039020600001805461225390615b19565b80601f016020809104026020016040519081016040528092919081815260200182805461227f90615b19565b80156122cc5780601f106122a1576101008083540402835291602001916122cc565b820191906000526020600020905b8154815290600101906020018083116122af57829003601f168201915b505050505084838151811061230a577f4e487b7100000000000000000000000000000000000000000000000000000000600052603260045260246000fd5b60200260200101819052506004816040516123259190615155565b9081526020016040518091039020600101805461234190615b19565b80601f016020809104026020016040519081016040528092919081815260200182805461236d90615b19565b80156123ba5780601f1061238f576101008083540402835291602001916123ba565b820191906000526020600020905b81548152906001019060200180831161239d57829003601f168201915b50505050508383815181106123f8577f4e487b7100000000000000000000000000000000000000000000000000000000600052603260045260246000fd5b602002602001018190525050808061240f90615b4b565b915050612111565b508181945094505050509091565b600260003373ffffffffffffffffffffffffffffffffffffffff1673ffffffffffffffffffffffffffffffffffffffff16815260200190815260200160002060009054906101000a900460ff166124b1576040517f08c379a00000000000000000000000000000000000000000000000000000000081526004016124a89061548d565b60405180910390fd5b60088251146124f5576040517f08c379a00000000000000000000000000000000000000000000000000000000081526004016124ec9061574d565b60405180910390fd5b60006004836040516125079190615155565b9081526020016040518091039020600001805461252390615b19565b905011612565576040517f08c379a000000000000000000000000000000000000000000000000000000000815260040161255c906155ed565b60405180910390fd5b80518351146125a9576040517f08c379a00000000000000000000000000000000000000000000000000000000081526004016125a0906156ed565b60405180910390fd5b60005b835181101561296d576006836040516125c59190615155565b9081526020016040518091039020600085838151811061260e577f4e487b7100000000000000000000000000000000000000000000000000000000600052603260045260246000fd5b602002602001015173ffffffffffffffffffffffffffffffffffffffff1673ffffffffffffffffffffffffffffffffffffffff16815260200190815260200160002060020160009054906101000a900460ff16156126a1576040517f08c379a0000000000000000000000000000000000000000000000000000000008152600401612698906154ad565b60405180910390fd5b60405180608001604052808383815181106126e5577f4e487b7100000000000000000000000000000000000000000000000000000000600052603260045260246000fd5b60200260200101518152602001848152602001600115158152602001600015158152506006846040516127189190615155565b90815260200160405180910390206000868481518110612761577f4e487b7100000000000000000000000000000000000000000000000000000000600052603260045260246000fd5b602002602001015173ffffffffffffffffffffffffffffffffffffffff1673ffffffffffffffffffffffffffffffffffffffff1681526020019081526020016000206000820151816000015560208201518160010190805190602001906127c9929190613d76565b5060408201518160020160006101000a81548160ff02191690831515021790555060608201518160020160016101000a81548160ff02191690831515021790555090505060058360405161281d9190615155565b9081526020016040518091039020848281518110612864577f4e487b7100000000000000000000000000000000000000000000000000000000600052603260045260246000fd5b60200260200101519080600181540180825580915050600190039060005260206000200160009091909190916101000a81548173ffffffffffffffffffffffffffffffffffffffff021916908373ffffffffffffffffffffffffffffffffffffffff160217905550838181518110612905577f4e487b7100000000000000000000000000000000000000000000000000000000600052603260045260246000fd5b602002602001015173ffffffffffffffffffffffffffffffffffffffff167fffeb7702be7dcd8fee170d954b70afb9a7c78f7f5cff232d037e7b9d8243356a846040516129529190615312565b60405180910390a2808061296590615b4b565b9150506125ac565b50505050565b606080606080600060048660405161298b9190615155565b908152602001604051809103902060000180546129a790615b19565b9050116129e9576040517f08c379a00000000000000000000000000000000000000000000000000000000081526004016129e0906155ed565b60405180910390fd5b60006004866040516129fb9190615155565b9081526020016040518091039020905060008160030180549050905060008167ffffffffffffffff811115612a59577f4e487b7100000000000000000000000000000000000000000000000000000000600052604160045260246000fd5b604051908082528060200260200182016040528015612a8c57816020015b6060815260200190600190039081612a775790505b50905060008267ffffffffffffffff811115612ad1577f4e487b7100000000000000000000000000000000000000000000000000000000600052604160045260246000fd5b604051908082528060200260200182016040528015612b0457816020015b6060815260200190600190039081612aef5790505b50905060005b83811015612f0f57846003018181548110612b4e577f4e487b7100000000000000000000000000000000000000000000000000000000600052603260045260246000fd5b90600052602060002090600202016000018054612b6a90615b19565b80601f0160208091040260200160405190810160405280929190818152602001828054612b9690615b19565b8015612be35780601f10612bb857610100808354040283529160200191612be3565b820191906000526020600020905b815481529060010190602001808311612bc657829003601f168201915b5050505050838281518110612c21577f4e487b7100000000000000000000000000000000000000000000000000000000600052603260045260246000fd5b60200260200101819052506000856003018281548110612c6a577f4e487b7100000000000000000000000000000000000000000000000000000000600052603260045260246000fd5b90600052602060002090600202016001018054905090508067ffffffffffffffff811115612cc1577f4e487b7100000000000000000000000000000000000000000000000000000000600052604160045260246000fd5b604051908082528060200260200182016040528015612cf457816020015b6060815260200190600190039081612cdf5790505b50838381518110612d2e577f4e487b7100000000000000000000000000000000000000000000000000000000600052603260045260246000fd5b602002602001018190525060005b81811015612efa57866003018381548110612d80577f4e487b7100000000000000000000000000000000000000000000000000000000600052603260045260246000fd5b90600052602060002090600202016001018181548110612dc9577f4e487b7100000000000000000000000000000000000000000000000000000000600052603260045260246000fd5b90600052602060002090600202016000018054612de590615b19565b80601f0160208091040260200160405190810160405280929190818152602001828054612e1190615b19565b8015612e5e5780601f10612e3357610100808354040283529160200191612e5e565b820191906000526020600020905b815481529060010190602001808311612e4157829003601f168201915b5050505050848481518110612e9c577f4e487b7100000000000000000000000000000000000000000000000000000000600052603260045260246000fd5b60200260200101518281518110612edc577f4e487b7100000000000000000000000000000000000000000000000000000000600052603260045260246000fd5b60200260200101819052508080612ef290615b4b565b915050612d3c565b50508080612f0790615b4b565b915050612b0a565b5083600001846001018383838054612f2690615b19565b80601f0160208091040260200160405190810160405280929190818152602001828054612f5290615b19565b8015612f9f5780601f10612f7457610100808354040283529160200191612f9f565b820191906000526020600020905b815481529060010190602001808311612f8257829003601f168201915b50505050509350828054612fb290615b19565b80601f0160208091040260200160405190810160405280929190818152602001828054612fde90615b19565b801561302b5780601f106130005761010080835404028352916020019161302b565b820191906000526020600020905b81548152906001019060200180831161300e57829003601f168201915b505050505092509750975097509750505050509193509193565b6000806004836040516130589190615155565b9081526020016040518091039020600001805461307490615b19565b9050116130b6576040517f08c379a00000000000000000000000000000000000000000000000000000000081526004016130ad906155ed565b60405180910390fd5b6004826040516130c69190615155565b908152602001604051809103902060040160009054906101000a900460ff169050919050565b60048180516020810182018051848252602083016020850120818352809550505050505060009150905080600001805461312590615b19565b80601f016020809104026020016040519081016040528092919081815260200182805461315190615b19565b801561319e5780601f106131735761010080835404028352916020019161319e565b820191906000526020600020905b81548152906001019060200180831161318157829003601f168201915b5050505050908060010180546131b390615b19565b80601f01602080910402602001604051908101604052809291908181526020018280546131df90615b19565b801561322c5780601f106132015761010080835404028352916020019161322c565b820191906000526020600020905b81548152906001019060200180831161320f57829003601f168201915b5050505050908060020160009054906101000a900473ffffffffffffffffffffffffffffffffffffffff16908060040160009054906101000a900460ff16905084565b600060608060006001866040516132869190615155565b908152602001604051809103902060009054906101000a900473ffffffffffffffffffffffffffffffffffffffff169050600073ffffffffffffffffffffffffffffffffffffffff168173ffffffffffffffffffffffffffffffffffffffff161415613327576040517f08c379a000000000000000000000000000000000000000000000000000000000815260040161331e9061572d565b60405180910390fd5b3373ffffffffffffffffffffffffffffffffffffffff168173ffffffffffffffffffffffffffffffffffffffff1614613395576040517f08c379a000000000000000000000000000000000000000000000000000000000815260040161338c906156cd565b60405180910390fd5b60008060008373ffffffffffffffffffffffffffffffffffffffff1673ffffffffffffffffffffffffffffffffffffffff1681526020019081526020016000209050856040516020016133e89190615155565b60405160208183030381529060405280519060200120816001015414613443576040517f08c379a000000000000000000000000000000000000000000000000000000000815260040161343a906154cd565b60405180910390fd5b6000600360008473ffffffffffffffffffffffffffffffffffffffff1673ffffffffffffffffffffffffffffffffffffffff16815260200190815260200160002080549050905060008167ffffffffffffffff8111156134cc577f4e487b7100000000000000000000000000000000000000000000000000000000600052604160045260246000fd5b6040519080825280602002602001820160405280156134ff57816020015b60608152602001906001900390816134ea5790505b50905060008267ffffffffffffffff811115613544577f4e487b7100000000000000000000000000000000000000000000000000000000600052604160045260246000fd5b60405190808252806020026020018201604052801561357757816020015b60608152602001906001900390816135625790505b50905060005b83811015613883576000600360008873ffffffffffffffffffffffffffffffffffffffff1673ffffffffffffffffffffffffffffffffffffffff16815260200190815260200160002082815481106135fe577f4e487b7100000000000000000000000000000000000000000000000000000000600052603260045260246000fd5b90600052602060002001805461361390615b19565b80601f016020809104026020016040519081016040528092919081815260200182805461363f90615b19565b801561368c5780601f106136615761010080835404028352916020019161368c565b820191906000526020600020905b81548152906001019060200180831161366f57829003601f168201915b505050505090506004816040516136a39190615155565b908152602001604051809103902060000180546136bf90615b19565b80601f01602080910402602001604051908101604052809291908181526020018280546136eb90615b19565b80156137385780601f1061370d57610100808354040283529160200191613738565b820191906000526020600020905b81548152906001019060200180831161371b57829003601f168201915b5050505050848381518110613776577f4e487b7100000000000000000000000000000000000000000000000000000000600052603260045260246000fd5b60200260200101819052506004816040516137919190615155565b908152602001604051809103902060010180546137ad90615b19565b80601f01602080910402602001604051908101604052809291908181526020018280546137d990615b19565b80156138265780601f106137fb57610100808354040283529160200191613826565b820191906000526020600020905b81548152906001019060200180831161380957829003601f168201915b5050505050838381518110613864577f4e487b7100000000000000000000000000000000000000000000000000000000600052603260045260246000fd5b602002602001018190525050808061387b90615b4b565b91505061357d565b506001828297509750975050505050509250925092565b606060006004836040516138ae9190615155565b908152602001604051809103902060000180546138ca90615b19565b90501161390c576040517f08c379a0000000000000000000000000000000000000000000000000000000008152600401613903906155ed565b60405180910390fd5b60058260405161391c9190615155565b90815260200160405180910390208054806020026020016040519081016040528092919081815260200182805480156139aa57602002820191906000526020600020905b8160009054906101000a900473ffffffffffffffffffffffffffffffffffffffff1673ffffffffffffffffffffffffffffffffffffffff1681526020019060010190808311613960575b50505050509050919050565b60008251116139fa576040517f08c379a00000000000000000000000000000000000000000000000000000000081526004016139f1906154ed565b60405180910390fd5b6000815111613a3e576040517f08c379a0000000000000000000000000000000000000000000000000000000008152600401613a359061564d565b60405180910390fd5b600073ffffffffffffffffffffffffffffffffffffffff16600183604051613a669190615155565b908152602001604051809103902060009054906101000a900473ffffffffffffffffffffffffffffffffffffffff1673ffffffffffffffffffffffffffffffffffffffff1614613aeb576040517f08c379a0000000000000000000000000000000000000000000000000000000008152600401613ae29061562d565b60405180910390fd5b600260003373ffffffffffffffffffffffffffffffffffffffff1673ffffffffffffffffffffffffffffffffffffffff16815260200190815260200160002060009054906101000a900460ff1615613b78576040517f08c379a0000000000000000000000000000000000000000000000000000000008152600401613b6f9061566d565b60405180910390fd5b600081604051602001613b8b9190615155565b60405160208183030381529060405280519060200120905060405180606001604052808481526020018281526020013373ffffffffffffffffffffffffffffffffffffffff168152506000803373ffffffffffffffffffffffffffffffffffffffff1673ffffffffffffffffffffffffffffffffffffffff1681526020019081526020016000206000820151816000019080519060200190613c2e929190613d76565b506020820151816001015560408201518160020160006101000a81548173ffffffffffffffffffffffffffffffffffffffff021916908373ffffffffffffffffffffffffffffffffffffffff16021790555090505033600184604051613c949190615155565b908152602001604051809103902060006101000a81548173ffffffffffffffffffffffffffffffffffffffff021916908373ffffffffffffffffffffffffffffffffffffffff1602179055506001600260003373ffffffffffffffffffffffffffffffffffffffff1673ffffffffffffffffffffffffffffffffffffffff16815260200190815260200160002060006101000a81548160ff0219169083151502179055507fdc66d5625246d2f0a5a37b7a15ab06b88858e01299d7b3861ffc77ef178984518333604051613d69929190615334565b60405180910390a1505050565b828054613d8290615b19565b90600052602060002090601f016020900481019282613da45760008555613deb565b82601f10613dbd57805160ff1916838001178555613deb565b82800160010185558215613deb579182015b82811115613dea578251825591602001919060010190613dcf565b5b509050613df89190613dfc565b5090565b5b80821115613e15576000816000905550600101613dfd565b5090565b6000613e2c613e27846157fe565b6157cd565b90508083825260208201905082856020860282011115613e4b57600080fd5b60005b85811015613e7b5781613e618882614055565b845260208401935060208301925050600181019050613e4e565b5050509392505050565b6000613e98613e938461582a565b6157cd565b9050808382526020820190508260005b85811015613ed85781358501613ebe88826140e8565b845260208401935060208301925050600181019050613ea8565b5050509392505050565b6000613ef5613ef084615856565b6157cd565b90508083825260208201905082856020860282011115613f1457600080fd5b60005b85811015613f445781613f2a888261413c565b845260208401935060208301925050600181019050613f17565b5050509392505050565b6000613f61613f5c84615882565b6157cd565b9050808382526020820190508260005b85811015613fa15781358501613f878882614151565b845260208401935060208301925050600181019050613f71565b5050509392505050565b6000613fbe613fb9846158ae565b6157cd565b90508083825260208201905082856020860282011115613fdd57600080fd5b60005b8581101561400d5781613ff3888261417b565b845260208401935060208301925050600181019050613fe0565b5050509392505050565b600061402a614025846158da565b6157cd565b90508281526020810184848401111561404257600080fd5b61404d848285615ad7565b509392505050565b60008135905061406481615c6d565b92915050565b600082601f83011261407b57600080fd5b813561408b848260208601613e19565b91505092915050565b600082601f8301126140a557600080fd5b81356140b5848260208601613e85565b91505092915050565b600082601f8301126140cf57600080fd5b81356140df848260208601613ee2565b91505092915050565b600082601f8301126140f957600080fd5b8135614109848260208601613f4e565b91505092915050565b600082601f83011261412357600080fd5b8135614133848260208601613fab565b91505092915050565b60008135905061414b81615c84565b92915050565b600082601f83011261416257600080fd5b8135614172848260208601614017565b91505092915050565b60008135905061418a81615c9b565b92915050565b6000602082840312156141a257600080fd5b60006141b084828501614055565b91505092915050565b6000806000606084860312156141ce57600080fd5b60006141dc86828701614055565b935050602084013567ffffffffffffffff8111156141f957600080fd5b61420586828701614151565b92505060406142168682870161413c565b9150509250925092565b60008060006060848603121561423557600080fd5b600084013567ffffffffffffffff81111561424f57600080fd5b61425b8682870161406a565b935050602084013567ffffffffffffffff81111561427857600080fd5b61428486828701614151565b925050604084013567ffffffffffffffff8111156142a157600080fd5b6142ad868287016140be565b9150509250925092565b6000602082840312156142c957600080fd5b600082013567ffffffffffffffff8111156142e357600080fd5b6142ef84828501614151565b91505092915050565b6000806040838503121561430b57600080fd5b600083013567ffffffffffffffff81111561432557600080fd5b61433185828601614151565b925050602061434285828601614055565b9150509250929050565b60008060006060848603121561436157600080fd5b600084013567ffffffffffffffff81111561437b57600080fd5b61438786828701614151565b935050602084013567ffffffffffffffff8111156143a457600080fd5b6143b086828701614112565b925050604084013567ffffffffffffffff8111156143cd57600080fd5b6143d986828701614112565b9150509250925092565b600080604083850312156143f657600080fd5b600083013567ffffffffffffffff81111561441057600080fd5b61441c85828601614151565b925050602083013567ffffffffffffffff81111561443957600080fd5b61444585828601614151565b9150509250929050565b6000806000806080858703121561446557600080fd5b600085013567ffffffffffffffff81111561447f57600080fd5b61448b87828801614151565b945050602085013567ffffffffffffffff8111156144a857600080fd5b6144b487828801614151565b935050604085013567ffffffffffffffff8111156144d157600080fd5b6144dd878288016140e8565b925050606085013567ffffffffffffffff8111156144fa57600080fd5b61450687828801614094565b91505092959194509250565b600061451e838361457e565b60208301905092915050565b600061453683836146fb565b905092915050565b600061454a83836147e5565b905092915050565b600061455e8383614861565b905092915050565b600061457283836150e7565b60208301905092915050565b61458781615a85565b82525050565b61459681615a85565b82525050565b6145ad6145a882615a85565b615b94565b82525050565b60006145be8261596f565b6145c881856159f2565b93506145d38361590a565b8060005b838110156146045781516145eb8882614512565b97506145f6836159b1565b9250506001810190506145d7565b5085935050505092915050565b600061461c8261597a565b6146268185615a03565b9350836020820285016146388561591a565b8060005b858110156146745784840389528151614655858261452a565b9450614660836159be565b925060208a0199505060018101905061463c565b50829750879550505050505092915050565b600061469182615985565b61469b8185615a14565b9350836020820285016146ad8561592a565b8060005b858110156146e957848403895281516146ca858261453e565b94506146d5836159cb565b925060208a019950506001810190506146b1565b50829750879550505050505092915050565b600061470682615990565b6147108185615a25565b9350836020820285016147228561593a565b8060005b8581101561475e578484038952815161473f8582614552565b945061474a836159d8565b925060208a01995050600181019050614726565b50829750879550505050505092915050565b600061477b82615990565b6147858185615a36565b9350836020820285016147978561593a565b8060005b858110156147d357848403895281516147b48582614552565b94506147bf836159d8565b925060208a0199505060018101905061479b565b50829750879550505050505092915050565b60006147f08261599b565b6147fa8185615a47565b93506148058361594a565b8060005b8381101561483657815161481d8882614566565b9750614828836159e5565b925050600181019050614809565b5085935050505092915050565b61484c81615a97565b82525050565b61485b81615aa3565b82525050565b600061486c826159a6565b6148768185615a58565b9350614886818560208601615ae6565b61488f81615c4f565b840191505092915050565b60006148a5826159a6565b6148af8185615a69565b93506148bf818560208601615ae6565b6148c881615c4f565b840191505092915050565b60006148de826159a6565b6148e88185615a7a565b93506148f8818560208601615ae6565b80840191505092915050565b6000815461491181615b19565b61491b8186615a7a565b9450600182166000811461493657600181146149475761497a565b60ff1983168652818601935061497a565b6149508561595a565b60005b8381101561497257815481890152600182019150602081019050614953565b838801955050505b50505092915050565b6000614990601f83615a69565b91507f4f6e6c792061646d696e732063616e20726567697374657220766f74657273006000830152602082019050919050565b60006149d0602883615a69565b91507f566f74657220616c7265616479207265676973746572656420666f722074686960008301527f732062616c6c6f740000000000000000000000000000000000000000000000006020830152604082019050919050565b6000614a36601283615a69565b91507f496e636f72726563742070617373776f726400000000000000000000000000006000830152602082019050919050565b6000614a76601183615a69565b91507f557365726e616d652072657175697265640000000000000000000000000000006000830152602082019050919050565b6000614ab6601f83615a69565b91507f416c726561647920766f74656420666f72207468697320706f736974696f6e006000830152602082019050919050565b6000614af6601883615a69565b91507f566f74696e6720697320616c726561647920636c6f73656400000000000000006000830152602082019050919050565b6000614b36601583615a69565b91507f42616c6c6f74207469746c6520726571756972656400000000000000000000006000830152602082019050919050565b6000614b76602b83615a69565b91507f42616c6c6f74204944206d7573742062652065786163746c792038206368617260008301527f616374657273206c6f6e670000000000000000000000000000000000000000006020830152604082019050919050565b6000614bdc601483615a69565b91507f566f746572206e6f7420726567697374657265640000000000000000000000006000830152602082019050919050565b6000614c1c602883615a69565b91507f4f6e6c79207468652062616c6c6f742063726561746f722063616e20636c6f7360008301527f6520766f74696e670000000000000000000000000000000000000000000000006020830152604082019050919050565b6000614c82601083615a69565b91507f566f74696e672068617320656e646564000000000000000000000000000000006000830152602082019050919050565b6000614cc2601883615a69565b91507f42616c6c6f7420494420646f6573206e6f7420657869737400000000000000006000830152602082019050919050565b6000614d02602183615a69565b91507f596f75206861766520616c726561647920636f6d706c6574656420766f74696e60008301527f67000000000000000000000000000000000000000000000000000000000000006020830152604082019050919050565b6000614d68601783615a69565b91507f557365726e616d6520616c7265616479206578697374730000000000000000006000830152602082019050919050565b6000614da8601183615a69565b91507f50617373776f72642072657175697265640000000000000000000000000000006000830152602082019050919050565b6000614de8601883615a69565b91507f41646d696e20616c7265616479207265676973746572656400000000000000006000830152602082019050919050565b6000614e28602383615a69565b91507f566f746572206e6f74207265676973746572656420666f7220616e792062616c60008301527f6c6f7400000000000000000000000000000000000000000000000000000000006020830152604082019050919050565b6000614e8e601883615a69565b91507f42616c6c6f7420494420616c72656164792065786973747300000000000000006000830152602082019050919050565b6000614ece603283615a69565b91507f556e617574686f72697a65643a2055736520796f75722072656769737465726560008301527f64204d6574614d61736b206164647265737300000000000000000000000000006020830152604082019050919050565b6000614f34601883615a69565b91507f4d69736d617463686564206172726179206c656e6774687300000000000000006000830152602082019050919050565b6000614f74601283615a69565b91507f42616c6c6f74204944206d69736d6174636800000000000000000000000000006000830152602082019050919050565b6000614fb4600f83615a69565b91507f41646d696e206e6f7420666f756e6400000000000000000000000000000000006000830152602082019050919050565b6000614ff4601183615a69565b91507f496e76616c69642042616c6c6f742049440000000000000000000000000000006000830152602082019050919050565b6000615034601183615a69565b91507f496e76616c696420766f746520646174610000000000000000000000000000006000830152602082019050919050565b6000615074601e83615a69565b91507f4174206c65617374206f6e6520706f736974696f6e20726571756972656400006000830152602082019050919050565b60006150b4601183615a69565b91507f496e76616c69642062616c6c6f742049440000000000000000000000000000006000830152602082019050919050565b6150f081615acd565b82525050565b6150ff81615acd565b82525050565b61511661511182615acd565b615bb8565b82525050565b6000615128828661459c565b60148201915061513882856148d3565b91506151448284615105565b602082019150819050949350505050565b600061516182846148d3565b915081905092915050565b60006151788284614904565b915081905092915050565b6000602082019050818103600083015261519d81846145b3565b905092915050565b600060608201905081810360008301526151bf8186614770565b905081810360208301526151d38185614611565b905081810360408301526151e78184614686565b9050949350505050565b6000604082019050818103600083015261520b8185614770565b9050818103602083015261521f8184614770565b90509392505050565b600060208201905061523d6000830184614843565b92915050565b60006060820190506152586000830186614843565b818103602083015261526a8185614770565b9050818103604083015261527e8184614770565b9050949350505050565b600060608201905061529d6000830186614843565b6152aa6020830185614843565b81810360408301526152bc818461489a565b9050949350505050565b60006080820190506152db6000830187614852565b81810360208301526152ed818661489a565b90506152fc6040830185614843565b6153096060830184614843565b95945050505050565b6000602082019050818103600083015261532c818461489a565b905092915050565b6000604082019050818103600083015261534e818561489a565b905061535d602083018461458d565b9392505050565b6000604082019050818103600083015261537e818561489a565b90508181036020830152615392818461489a565b90509392505050565b600060808201905081810360008301526153b5818761489a565b905081810360208301526153c9818661489a565b90506153d8604083018561458d565b6153e56060830184614843565b95945050505050565b60006080820190508181036000830152615408818761489a565b9050818103602083015261541c818661489a565b905081810360408301526154308185614770565b905081810360608301526154448184614611565b905095945050505050565b60006060820190508181036000830152615469818661489a565b905061547860208301856150f6565b61548560408301846150f6565b949350505050565b600060208201905081810360008301526154a681614983565b9050919050565b600060208201905081810360008301526154c6816149c3565b9050919050565b600060208201905081810360008301526154e681614a29565b9050919050565b6000602082019050818103600083015261550681614a69565b9050919050565b6000602082019050818103600083015261552681614aa9565b9050919050565b6000602082019050818103600083015261554681614ae9565b9050919050565b6000602082019050818103600083015261556681614b29565b9050919050565b6000602082019050818103600083015261558681614b69565b9050919050565b600060208201905081810360008301526155a681614bcf565b9050919050565b600060208201905081810360008301526155c681614c0f565b9050919050565b600060208201905081810360008301526155e681614c75565b9050919050565b6000602082019050818103600083015261560681614cb5565b9050919050565b6000602082019050818103600083015261562681614cf5565b9050919050565b6000602082019050818103600083015261564681614d5b565b9050919050565b6000602082019050818103600083015261566681614d9b565b9050919050565b6000602082019050818103600083015261568681614ddb565b9050919050565b600060208201905081810360008301526156a681614e1b565b9050919050565b600060208201905081810360008301526156c681614e81565b9050919050565b600060208201905081810360008301526156e681614ec1565b9050919050565b6000602082019050818103600083015261570681614f27565b9050919050565b6000602082019050818103600083015261572681614f67565b9050919050565b6000602082019050818103600083015261574681614fa7565b9050919050565b6000602082019050818103600083015261576681614fe7565b9050919050565b6000602082019050818103600083015261578681615027565b9050919050565b600060208201905081810360008301526157a681615067565b9050919050565b600060208201905081810360008301526157c6816150a7565b9050919050565b6000604051905081810181811067ffffffffffffffff821117156157f4576157f3615c20565b5b8060405250919050565b600067ffffffffffffffff82111561581957615818615c20565b5b602082029050602081019050919050565b600067ffffffffffffffff82111561584557615844615c20565b5b602082029050602081019050919050565b600067ffffffffffffffff82111561587157615870615c20565b5b602082029050602081019050919050565b600067ffffffffffffffff82111561589d5761589c615c20565b5b602082029050602081019050919050565b600067ffffffffffffffff8211156158c9576158c8615c20565b5b602082029050602081019050919050565b600067ffffffffffffffff8211156158f5576158f4615c20565b5b601f19601f8301169050602081019050919050565b6000819050602082019050919050565b6000819050602082019050919050565b6000819050602082019050919050565b6000819050602082019050919050565b6000819050602082019050919050565b60008190508160005260206000209050919050565b600081519050919050565b600081519050919050565b600081519050919050565b600081519050919050565b600081519050919050565b600081519050919050565b6000602082019050919050565b6000602082019050919050565b6000602082019050919050565b6000602082019050919050565b6000602082019050919050565b600082825260208201905092915050565b600082825260208201905092915050565b600082825260208201905092915050565b600082825260208201905092915050565b600082825260208201905092915050565b600082825260208201905092915050565b600082825260208201905092915050565b600082825260208201905092915050565b600081905092915050565b6000615a9082615aad565b9050919050565b60008115159050919050565b6000819050919050565b600073ffffffffffffffffffffffffffffffffffffffff82169050919050565b6000819050919050565b82818337600083830152505050565b60005b83811015615b04578082015181840152602081019050615ae9565b83811115615b13576000848401525b50505050565b60006002820490506001821680615b3157607f821691505b60208210811415615b4557615b44615bf1565b5b50919050565b6000615b5682615acd565b91507fffffffffffffffffffffffffffffffffffffffffffffffffffffffffffffffff821415615b8957615b88615bc2565b5b600182019050919050565b6000615b9f82615ba6565b9050919050565b6000615bb182615c60565b9050919050565b6000819050919050565b7f4e487b7100000000000000000000000000000000000000000000000000000000600052601160045260246000fd5b7f4e487b7100000000000000000000000000000000000000000000000000000000600052602260045260246000fd5b7f4e487b7100000000000000000000000000000000000000000000000000000000600052604160045260246000fd5b6000601f19601f8301169050919050565b60008160601b9050919050565b615c7681615a85565b8114615c8157600080fd5b50565b615c8d81615aa3565b8114615c9857600080fd5b50565b615ca481615acd565b8114615caf57600080fd5b5056fea2646970667358221220c68e43b1ffa47b02f8062d6818660057f35d1a11a651f31550d372f9dcbf50d164736f6c63430008000033",
  "immutableReferences": {},
  "source": "// SPDX-License-Identifier: MIT\r\npragma solidity ^0.8.0;\r\n\r\ncontract VotingSystem {\r\n    struct Admin {\r\n        string username;\r\n        bytes32 hashedPassword;\r\n        address adminAddress;\r\n    }\r\n\r\n    struct Candidate {\r\n        string name;\r\n        uint voteCount;\r\n    }\r\n\r\n    struct Position {\r\n        string name;\r\n        Candidate[] candidates;\r\n    }\r\n\r\n    struct Ballot {\r\n        string id;\r\n        string title;\r\n        address adminAddress;\r\n        Position[] positions;\r\n        bool isClosed;\r\n    }\r\n\r\n    struct Voter {\r\n        bytes32 hashedPassword;\r\n        string ballotId;\r\n        bool isRegistered;\r\n        bool hasVoted;\r\n    }\r\n\r\n    // Admin storage\r\n    mapping(address => Admin) private admins;\r\n    mapping(string => address) private usernameToAddress;\r\n    mapping(address => bool) public isAdminRegistered;\r\n    mapping(address => string[]) private adminBallots;\r\n\r\n    // Ballot storage\r\n    mapping(string => Ballot) public ballots;\r\n    mapping(string => address[]) private ballotVoters; // Voters per ballot\r\n\r\n    // Voter storage (ballot-specific)\r\n    mapping(string => mapping(address => Voter)) public registeredVoters;\r\n\r\n    // Voting tracking\r\n    mapping(bytes32 => bool) private positionVotes;\r\n\r\n    // Events\r\n    event AdminRegistered(string username, address adminAddress);\r\n    event BallotCreated(string ballotId, string title, address indexed admin);\r\n    event VoterRegistered(address indexed voter, string ballotId);\r\n    event VoteCasted(address indexed voter, string ballotId, uint positionIndex, uint candidateIndex);\r\n    event VotingEnded(string ballotId, address admin);\r\n\r\n    // ---------------- Admin functions ----------------\r\n    function registerAdmin(string memory _username, string memory _password) public {\r\n        require(bytes(_username).length > 0, \"Username required\");\r\n        require(bytes(_password).length > 0, \"Password required\");\r\n        require(usernameToAddress[_username] == address(0), \"Username already exists\");\r\n        require(!isAdminRegistered[msg.sender], \"Admin already registered\");\r\n\r\n        bytes32 hashedPassword = keccak256(abi.encodePacked(_password));\r\n        admins[msg.sender] = Admin(_username, hashedPassword, msg.sender);\r\n        usernameToAddress[_username] = msg.sender;\r\n        isAdminRegistered[msg.sender] = true;\r\n\r\n        emit AdminRegistered(_username, msg.sender);\r\n    }\r\n\r\n    function adminLogin(string memory _username, string memory _password) \r\n        public view returns (bool, string[] memory, string[] memory) \r\n    {\r\n        address adminAddr = usernameToAddress[_username];\r\n        require(adminAddr != address(0), \"Admin not found\");\r\n        require(adminAddr == msg.sender, \"Unauthorized: Use your registered MetaMask address\");\r\n\r\n        Admin storage admin = admins[adminAddr];\r\n        require(admin.hashedPassword == keccak256(abi.encodePacked(_password)), \"Incorrect password\");\r\n\r\n        uint ballotCount = adminBallots[adminAddr].length;\r\n        string[] memory ballotIds = new string[](ballotCount);\r\n        string[] memory ballotTitles = new string[](ballotCount);\r\n\r\n        for (uint i = 0; i < ballotCount; i++) {\r\n            string memory ballotId = adminBallots[adminAddr][i];\r\n            ballotIds[i] = ballots[ballotId].id;\r\n            ballotTitles[i] = ballots[ballotId].title;\r\n        }\r\n\r\n        return (true, ballotIds, ballotTitles);\r\n    }\r\n\r\n    // ---------------- Ballot functions ----------------\r\n    function createBallot(\r\n        string memory _ballotId,\r\n        string memory _title,\r\n        string[] memory _positionNames,\r\n        string[][] memory _candidateNames\r\n    ) public {\r\n        require(bytes(_ballotId).length == 8, \"Ballot ID must be exactly 8 characters long\");\r\n        require(bytes(_title).length > 0, \"Ballot title required\");\r\n        require(_positionNames.length > 0, \"At least one position required\");\r\n        require(bytes(ballots[_ballotId].id).length == 0, \"Ballot ID already exists\");\r\n\r\n        Ballot storage newBallot = ballots[_ballotId];\r\n        newBallot.id = _ballotId;\r\n        newBallot.title = _title;\r\n        newBallot.adminAddress = msg.sender;\r\n        newBallot.isClosed = false;\r\n\r\n        for (uint i = 0; i < _positionNames.length; i++) {\r\n            newBallot.positions.push();\r\n            Position storage newPosition = newBallot.positions[i];\r\n            newPosition.name = _positionNames[i];\r\n\r\n            for (uint j = 0; j < _candidateNames[i].length; j++) {\r\n                newPosition.candidates.push(Candidate(_candidateNames[i][j], 0));\r\n            }\r\n        }\r\n\r\n        adminBallots[msg.sender].push(_ballotId);\r\n        emit BallotCreated(_ballotId, _title, msg.sender);\r\n    }\r\n\r\n    // ---------------- Voter registration ----------------\r\n    function registerVoter(address _voter, string memory _ballotId, bytes32 _hashedPassword) public {\r\n        require(isAdminRegistered[msg.sender], \"Only admins can register voters\");\r\n        require(bytes(_ballotId).length == 8, \"Invalid Ballot ID\");\r\n        require(bytes(ballots[_ballotId].id).length > 0, \"Ballot ID does not exist\");\r\n        require(!registeredVoters[_ballotId][_voter].isRegistered, \"Voter already registered for this ballot\");\r\n\r\n        registeredVoters[_ballotId][_voter] = Voter({\r\n            hashedPassword: _hashedPassword,\r\n            ballotId: _ballotId,\r\n            isRegistered: true,\r\n            hasVoted: false\r\n        });\r\n\r\n        ballotVoters[_ballotId].push(_voter);\r\n        emit VoterRegistered(_voter, _ballotId);\r\n    }\r\n\r\n    function registerMultipleVoters(\r\n        address[] memory _voterAddresses,\r\n        string memory _ballotId,\r\n        bytes32[] memory _hashedPasswords\r\n    ) public {\r\n        require(isAdminRegistered[msg.sender], \"Only admins can register voters\");\r\n        require(bytes(_ballotId).length == 8, \"Invalid Ballot ID\");\r\n        require(bytes(ballots[_ballotId].id).length > 0, \"Ballot ID does not exist\");\r\n        require(_voterAddresses.length == _hashedPasswords.length, \"Mismatched array lengths\");\r\n\r\n        for (uint i = 0; i < _voterAddresses.length; i++) {\r\n            require(!registeredVoters[_ballotId][_voterAddresses[i]].isRegistered, \r\n                \"Voter already registered for this ballot\");\r\n\r\n            registeredVoters[_ballotId][_voterAddresses[i]] = Voter({\r\n                hashedPassword: _hashedPasswords[i],\r\n                ballotId: _ballotId,\r\n                isRegistered: true,\r\n                hasVoted: false\r\n            });\r\n\r\n            ballotVoters[_ballotId].push(_voterAddresses[i]);\r\n            emit VoterRegistered(_voterAddresses[i], _ballotId);\r\n        }\r\n    }\r\n\r\n    function getVotersForBallot(string memory _ballotId) public view returns (address[] memory) {\r\n        require(bytes(ballots[_ballotId].id).length > 0, \"Ballot ID does not exist\");\r\n        return ballotVoters[_ballotId];\r\n    }\r\n\r\n    // ---------------- Voting ----------------\r\n    function authenticateVoter(string memory _ballotId, string memory _password) \r\n        public view returns (bool isAuthenticated, bool hasVoted, string memory ballotId) \r\n    {\r\n        require(bytes(_ballotId).length == 8, \"Invalid Ballot ID\");\r\n        require(bytes(ballots[_ballotId].id).length > 0, \"Ballot ID does not exist\");\r\n\r\n        Voter storage voter = registeredVoters[_ballotId][msg.sender];\r\n        require(voter.isRegistered, \"Voter not registered for any ballot\");\r\n        require(keccak256(abi.encodePacked(voter.ballotId)) == keccak256(abi.encodePacked(_ballotId)), \"Ballot ID mismatch\");\r\n        require(voter.hashedPassword == keccak256(abi.encodePacked(_password)), \"Incorrect password\");\r\n\r\n        return (true, voter.hasVoted, voter.ballotId);\r\n    }\r\n\r\n    function voteMultiple(string memory _ballotId, uint[] memory _positionIndexes, uint[] memory _candidateIndexes) public {\r\n        require(bytes(ballots[_ballotId].id).length > 0, \"Invalid ballot ID\");\r\n        require(!ballots[_ballotId].isClosed, \"Voting has ended\");\r\n\r\n        Voter storage voter = registeredVoters[_ballotId][msg.sender];\r\n        require(voter.isRegistered, \"Voter not registered\");\r\n        require(!voter.hasVoted, \"You have already completed voting\");\r\n        require(_positionIndexes.length == _candidateIndexes.length, \"Invalid vote data\");\r\n\r\n        for (uint i = 0; i < _positionIndexes.length; i++) {\r\n            bytes32 voteKey = keccak256(abi.encodePacked(msg.sender, _ballotId, _positionIndexes[i]));\r\n            require(!positionVotes[voteKey], \"Already voted for this position\");\r\n\r\n            ballots[_ballotId].positions[_positionIndexes[i]].candidates[_candidateIndexes[i]].voteCount++;\r\n            positionVotes[voteKey] = true;\r\n        }\r\n\r\n        voter.hasVoted = true;\r\n        emit VoteCasted(msg.sender, _ballotId, _positionIndexes[0], _candidateIndexes[0]);\r\n    }\r\n\r\n    // ---------------- Utilities ----------------\r\n    function getMyBallots() public view returns (string[] memory, string[] memory) {\r\n        uint ballotCount = adminBallots[msg.sender].length;\r\n        string[] memory ballotIds = new string[](ballotCount);\r\n        string[] memory ballotTitles = new string[](ballotCount);\r\n\r\n        for (uint i = 0; i < ballotCount; i++) {\r\n            string memory ballotId = adminBallots[msg.sender][i];\r\n            ballotIds[i] = ballots[ballotId].id;\r\n            ballotTitles[i] = ballots[ballotId].title;\r\n        }\r\n\r\n        return (ballotIds, ballotTitles);\r\n    }\r\n\r\n    function getBallotDetails(string memory _ballotId)\r\n        public\r\n        view\r\n        returns (string memory, string memory, string[] memory, string[][] memory)\r\n    {\r\n        require(bytes(ballots[_ballotId].id).length > 0, \"Ballot ID does not exist\");\r\n        Ballot storage ballot = ballots[_ballotId];\r\n\r\n        uint positionCount = ballot.positions.length;\r\n        string[] memory positionNames = new string[](positionCount);\r\n        string[][] memory candidateNames = new string[][](positionCount);\r\n\r\n        for (uint i = 0; i < positionCount; i++) {\r\n            positionNames[i] = ballot.positions[i].name;\r\n            uint candidateCount = ballot.positions[i].candidates.length;\r\n            candidateNames[i] = new string[](candidateCount);\r\n\r\n            for (uint j = 0; j < candidateCount; j++) {\r\n                candidateNames[i][j] = ballot.positions[i].candidates[j].name;\r\n            }\r\n        }\r\n\r\n        return (ballot.id, ballot.title, positionNames, candidateNames);\r\n    }\r\n\r\n    function getResults(string memory _ballotId) \r\n        public view returns (string[] memory, string[][] memory, uint[][] memory) \r\n    {\r\n        require(bytes(ballots[_ballotId].id).length > 0, \"Ballot ID does not exist\");\r\n        Ballot storage ballot = ballots[_ballotId];\r\n\r\n        uint positionCount = ballot.positions.length;\r\n        string[] memory positionNames = new string[](positionCount);\r\n        string[][] memory candidateNames = new string[][](positionCount);\r\n        uint[][] memory voteCounts = new uint[][](positionCount);\r\n\r\n        for (uint i = 0; i < positionCount; i++) {\r\n            positionNames[i] = ballot.positions[i].name;\r\n            uint candidateCount = ballot.positions[i].candidates.length;\r\n\r\n            candidateNames[i] = new string[](candidateCount);\r\n            voteCounts[i] = new uint[](candidateCount);\r\n\r\n            for (uint j = 0; j < candidateCount; j++) {\r\n                candidateNames[i][j] = ballot.positions[i].candidates[j].name;\r\n                voteCounts[i][j] = ballot.positions[i].candidates[j].voteCount;\r\n            }\r\n        }\r\n\r\n        return (positionNames, candidateNames, voteCounts);\r\n    }\r\n\r\n    function isBallotClosed(string memory _ballotId) public view returns (bool) {\r\n        require(bytes(ballots[_ballotId].id).length > 0, \"Ballot ID does not exist\");\r\n        return ballots[_ballotId].isClosed;\r\n    }\r\n\r\n    function endVoting(string memory _ballotId) public {\r\n        require(bytes(ballots[_ballotId].id).length > 0, \"Ballot ID does not exist\");\r\n        require(msg.sender == ballots[_ballotId].adminAddress, \"Only the ballot creator can close voting\");\r\n        require(!ballots[_ballotId].isClosed, \"Voting is already closed\");\r\n\r\n        ballots[_ballotId].isClosed = true;\r\n        emit VotingEnded(_ballotId, msg.sender);\r\n    }\r\n}\r\n",
  "sourcePath": "C:\\Users\\ADMIN PC\\Desktop\\The-Voting-System\\contracts\\VotingSystem.sol",
  "compiler": {
    "name": "solc",
    "version": "0.8.0+commit.c7dfd78e.Emscripten.clang"
  },
  "schemaVersion": "3.4.14",
  "updatedAt": "2025-09-03T14:45:53.126Z",
  "devdoc": {
    "kind": "dev",
    "methods": {},
    "version": 1
  },
  "userdoc": {
    "kind": "user",
    "methods": {},
    "version": 1
  }
}