{
  "contractName": "VotingSystem",
  "abi": [
    {
      "anonymous": false,
      "inputs": [
        {
          "indexed": false,
          "internalType": "string",
          "name": "username",
          "type": "string"
        },
        {
          "indexed": false,
          "internalType": "address",
          "name": "adminAddress",
          "type": "address"
        }
      ],
      "name": "AdminRegistered",
      "type": "event"
    },
    {
      "anonymous": false,
      "inputs": [
        {
          "indexed": false,
          "internalType": "string",
          "name": "ballotId",
          "type": "string"
        },
        {
          "indexed": false,
          "internalType": "string",
          "name": "title",
          "type": "string"
        },
        {
          "indexed": true,
          "internalType": "address",
          "name": "admin",
          "type": "address"
        }
      ],
      "name": "BallotCreated",
      "type": "event"
    },
    {
      "anonymous": false,
      "inputs": [
        {
          "indexed": true,
          "internalType": "address",
          "name": "voter",
          "type": "address"
        },
        {
          "indexed": false,
          "internalType": "string",
          "name": "ballotId",
          "type": "string"
        },
        {
          "indexed": false,
          "internalType": "uint256",
          "name": "positionIndex",
          "type": "uint256"
        },
        {
          "indexed": false,
          "internalType": "uint256",
          "name": "candidateIndex",
          "type": "uint256"
        }
      ],
      "name": "VoteCasted",
      "type": "event"
    },
    {
      "anonymous": false,
      "inputs": [
        {
          "indexed": true,
          "internalType": "address",
          "name": "voter",
          "type": "address"
        },
        {
          "indexed": false,
          "internalType": "string",
          "name": "ballotId",
          "type": "string"
        }
      ],
      "name": "VoterRegistered",
      "type": "event"
    },
    {
      "anonymous": false,
      "inputs": [
        {
          "indexed": false,
          "internalType": "string",
          "name": "ballotId",
          "type": "string"
        },
        {
          "indexed": false,
          "internalType": "address",
          "name": "admin",
          "type": "address"
        }
      ],
      "name": "VotingEnded",
      "type": "event"
    },
    {
      "inputs": [
        {
          "internalType": "string",
          "name": "",
          "type": "string"
        }
      ],
      "name": "ballots",
      "outputs": [
        {
          "internalType": "string",
          "name": "id",
          "type": "string"
        },
        {
          "internalType": "string",
          "name": "title",
          "type": "string"
        },
        {
          "internalType": "address",
          "name": "adminAddress",
          "type": "address"
        },
        {
          "internalType": "bool",
          "name": "isClosed",
          "type": "bool"
        }
      ],
      "stateMutability": "view",
      "type": "function",
      "constant": true
    },
    {
      "inputs": [
        {
          "internalType": "address",
          "name": "",
          "type": "address"
        }
      ],
      "name": "isAdminRegistered",
      "outputs": [
        {
          "internalType": "bool",
          "name": "",
          "type": "bool"
        }
      ],
      "stateMutability": "view",
      "type": "function",
      "constant": true
    },
    {
      "inputs": [
        {
          "internalType": "string",
          "name": "",
          "type": "string"
        },
        {
          "internalType": "address",
          "name": "",
          "type": "address"
        }
      ],
      "name": "registeredVoters",
      "outputs": [
        {
          "internalType": "bytes32",
          "name": "hashedPassword",
          "type": "bytes32"
        },
        {
          "internalType": "string",
          "name": "ballotId",
          "type": "string"
        },
        {
          "internalType": "bool",
          "name": "isRegistered",
          "type": "bool"
        },
        {
          "internalType": "bool",
          "name": "hasVoted",
          "type": "bool"
        }
      ],
      "stateMutability": "view",
      "type": "function",
      "constant": true
    },
    {
      "inputs": [
        {
          "internalType": "string",
          "name": "_username",
          "type": "string"
        },
        {
          "internalType": "string",
          "name": "_password",
          "type": "string"
        }
      ],
      "name": "registerAdmin",
      "outputs": [],
      "stateMutability": "nonpayable",
      "type": "function"
    },
    {
      "inputs": [
        {
          "internalType": "string",
          "name": "_username",
          "type": "string"
        },
        {
          "internalType": "string",
          "name": "_password",
          "type": "string"
        }
      ],
      "name": "adminLogin",
      "outputs": [
        {
          "internalType": "bool",
          "name": "",
          "type": "bool"
        },
        {
          "internalType": "string[]",
          "name": "",
          "type": "string[]"
        },
        {
          "internalType": "string[]",
          "name": "",
          "type": "string[]"
        }
      ],
      "stateMutability": "view",
      "type": "function",
      "constant": true
    },
    {
      "inputs": [
        {
          "internalType": "string",
          "name": "_ballotId",
          "type": "string"
        },
        {
          "internalType": "string",
          "name": "_title",
          "type": "string"
        },
        {
          "internalType": "string[]",
          "name": "_positionNames",
          "type": "string[]"
        },
        {
          "internalType": "string[][]",
          "name": "_candidateNames",
          "type": "string[][]"
        }
      ],
      "name": "createBallot",
      "outputs": [],
      "stateMutability": "nonpayable",
      "type": "function"
    },
    {
      "inputs": [
        {
          "internalType": "address[]",
          "name": "_voterAddresses",
          "type": "address[]"
        },
        {
          "internalType": "string",
          "name": "_ballotId",
          "type": "string"
        },
        {
          "internalType": "bytes32[]",
          "name": "_hashedPasswords",
          "type": "bytes32[]"
        }
      ],
      "name": "registerMultipleVoters",
      "outputs": [],
      "stateMutability": "nonpayable",
      "type": "function"
    },
    {
      "inputs": [
        {
          "internalType": "string",
          "name": "_ballotId",
          "type": "string"
        }
      ],
      "name": "getVotersWithStatus",
      "outputs": [
        {
          "internalType": "address[]",
          "name": "",
          "type": "address[]"
        },
        {
          "internalType": "bool[]",
          "name": "",
          "type": "bool[]"
        }
      ],
      "stateMutability": "view",
      "type": "function",
      "constant": true
    },
    {
      "inputs": [
        {
          "internalType": "string",
          "name": "_ballotId",
          "type": "string"
        },
        {
          "internalType": "string",
          "name": "_password",
          "type": "string"
        }
      ],
      "name": "authenticateVoter",
      "outputs": [
        {
          "internalType": "bool",
          "name": "isAuthenticated",
          "type": "bool"
        },
        {
          "internalType": "bool",
          "name": "hasVoted",
          "type": "bool"
        },
        {
          "internalType": "string",
          "name": "ballotId",
          "type": "string"
        }
      ],
      "stateMutability": "view",
      "type": "function",
      "constant": true
    },
    {
      "inputs": [
        {
          "internalType": "string",
          "name": "_ballotId",
          "type": "string"
        },
        {
          "internalType": "uint256[]",
          "name": "_positionIndexes",
          "type": "uint256[]"
        },
        {
          "internalType": "uint256[]",
          "name": "_candidateIndexes",
          "type": "uint256[]"
        }
      ],
      "name": "voteMultiple",
      "outputs": [],
      "stateMutability": "nonpayable",
      "type": "function"
    },
    {
      "inputs": [],
      "name": "getMyBallots",
      "outputs": [
        {
          "internalType": "string[]",
          "name": "",
          "type": "string[]"
        },
        {
          "internalType": "string[]",
          "name": "",
          "type": "string[]"
        }
      ],
      "stateMutability": "view",
      "type": "function",
      "constant": true
    },
    {
      "inputs": [
        {
          "internalType": "string",
          "name": "_ballotId",
          "type": "string"
        }
      ],
      "name": "getBallotDetails",
      "outputs": [
        {
          "internalType": "string",
          "name": "",
          "type": "string"
        },
        {
          "internalType": "string",
          "name": "",
          "type": "string"
        },
        {
          "internalType": "string[]",
          "name": "",
          "type": "string[]"
        },
        {
          "internalType": "string[][]",
          "name": "",
          "type": "string[][]"
        }
      ],
      "stateMutability": "view",
      "type": "function",
      "constant": true
    },
    {
      "inputs": [
        {
          "internalType": "string",
          "name": "_ballotId",
          "type": "string"
        }
      ],
      "name": "getResults",
      "outputs": [
        {
          "internalType": "string[]",
          "name": "",
          "type": "string[]"
        },
        {
          "internalType": "string[][]",
          "name": "",
          "type": "string[][]"
        },
        {
          "internalType": "uint256[][]",
          "name": "",
          "type": "uint256[][]"
        }
      ],
      "stateMutability": "view",
      "type": "function",
      "constant": true
    },
    {
      "inputs": [
        {
          "internalType": "string",
          "name": "_ballotId",
          "type": "string"
        }
      ],
      "name": "isBallotClosed",
      "outputs": [
        {
          "internalType": "bool",
          "name": "",
          "type": "bool"
        }
      ],
      "stateMutability": "view",
      "type": "function",
      "constant": true
    },
    {
      "inputs": [
        {
          "internalType": "string",
          "name": "_ballotId",
          "type": "string"
        }
      ],
      "name": "endVoting",
      "outputs": [],
      "stateMutability": "nonpayable",
      "type": "function"
    }
  ],
  "bytecode": "0x608060405234801561001057600080fd5b50615aaa80620000216000396000f3fe608060405234801561001057600080fd5b50600436106100f55760003560e01c806374098f4611610097578063aad4c84311610066578063aad4c843146102b3578063bbbb2dba146102e4578063c715408014610317578063f8f98b7914610349576100f5565b806374098f46146102155780637437ffa1146102345780638634602e14610250578063a1b35bea14610283576100f5565b80633b00a3e3116100d35780633b00a3e31461017b5780634bba734f146101975780636a2d6877146101c75780636bdc838e146101e3576100f5565b806311e4e0a6146100fa5780632ff20f011461012d578063332918721461015f575b600080fd5b610114600480360381019061010f9190613fe7565b610365565b604051610124949392919061504f565b60405180910390f35b61014760048036038101906101429190613fa6565b61045a565b60405161015693929190614f2e565b60405180910390f35b6101796004803603810190610174919061413e565b610c52565b005b61019560048036038101906101909190613fa6565b611146565b005b6101b160048036038101906101ac9190613ee6565b61134a565b6040516101be9190614fb1565b60405180910390f35b6101e160048036038101906101dc919061403b565b61136a565b005b6101fd60048036038101906101f891906140d2565b6118ec565b60405161020c93929190615011565b60405180910390f35b61021d611c04565b60405161022b929190614f7a565b60405180910390f35b61024e60048036038101906102499190613f0f565b612055565b005b61026a60048036038101906102659190613fa6565b6125a3565b60405161027a9493929190615177565b60405180910390f35b61029d60048036038101906102989190613fa6565b612c75565b6040516102aa9190614fb1565b60405180910390f35b6102cd60048036038101906102c89190613fa6565b612d1c565b6040516102db929190614ef7565b60405180910390f35b6102fe60048036038101906102f99190613fa6565b612f5e565b60405161030e9493929190615124565b60405180910390f35b610331600480360381019061032c91906140d2565b6130e1565b60405161034093929190614fcc565b60405180910390f35b610363600480360381019061035e91906140d2565b61370c565b005b600682805160208101820180518482526020830160208501208183528095505050505050602052806000526040600020600091509150508060000154908060010180546103b1906158db565b80601f01602080910402602001604051908101604052809291908181526020018280546103dd906158db565b801561042a5780601f106103ff5761010080835404028352916020019161042a565b820191906000526020600020905b81548152906001019060200180831161040d57829003601f168201915b5050505050908060020160009054906101000a900460ff16908060020160019054906101000a900460ff16905084565b606080606060006004856040516104719190614ec9565b9081526020016040518091039020600001805461048d906158db565b9050116104cf576040517f08c379a00000000000000000000000000000000000000000000000000000000081526004016104c690615376565b60405180910390fd5b60006004856040516104e19190614ec9565b9081526020016040518091039020905060008160030180549050905060008167ffffffffffffffff81111561053f577f4e487b7100000000000000000000000000000000000000000000000000000000600052604160045260246000fd5b60405190808252806020026020018201604052801561057257816020015b606081526020019060019003908161055d5790505b50905060008267ffffffffffffffff8111156105b7577f4e487b7100000000000000000000000000000000000000000000000000000000600052604160045260246000fd5b6040519080825280602002602001820160405280156105ea57816020015b60608152602001906001900390816105d55790505b50905060008367ffffffffffffffff81111561062f577f4e487b7100000000000000000000000000000000000000000000000000000000600052604160045260246000fd5b60405190808252806020026020018201604052801561066257816020015b606081526020019060019003908161064d5790505b50905060005b84811015610c3c578560030181815481106106ac577f4e487b7100000000000000000000000000000000000000000000000000000000600052603260045260246000fd5b906000526020600020906002020160000180546106c8906158db565b80601f01602080910402602001604051908101604052809291908181526020018280546106f4906158db565b80156107415780601f1061071657610100808354040283529160200191610741565b820191906000526020600020905b81548152906001019060200180831161072457829003601f168201915b505050505084828151811061077f577f4e487b7100000000000000000000000000000000000000000000000000000000600052603260045260246000fd5b602002602001018190525060008660030182815481106107c8577f4e487b7100000000000000000000000000000000000000000000000000000000600052603260045260246000fd5b90600052602060002090600202016001018054905090508067ffffffffffffffff81111561081f577f4e487b7100000000000000000000000000000000000000000000000000000000600052604160045260246000fd5b60405190808252806020026020018201604052801561085257816020015b606081526020019060019003908161083d5790505b5084838151811061088c577f4e487b7100000000000000000000000000000000000000000000000000000000600052603260045260246000fd5b60200260200101819052508067ffffffffffffffff8111156108d7577f4e487b7100000000000000000000000000000000000000000000000000000000600052604160045260246000fd5b6040519080825280602002602001820160405280156109055781602001602082028036833780820191505090505b5083838151811061093f577f4e487b7100000000000000000000000000000000000000000000000000000000600052603260045260246000fd5b602002602001018190525060005b81811015610c2757876003018381548110610991577f4e487b7100000000000000000000000000000000000000000000000000000000600052603260045260246000fd5b906000526020600020906002020160010181815481106109da577f4e487b7100000000000000000000000000000000000000000000000000000000600052603260045260246000fd5b906000526020600020906002020160000180546109f6906158db565b80601f0160208091040260200160405190810160405280929190818152602001828054610a22906158db565b8015610a6f5780601f10610a4457610100808354040283529160200191610a6f565b820191906000526020600020905b815481529060010190602001808311610a5257829003601f168201915b5050505050858481518110610aad577f4e487b7100000000000000000000000000000000000000000000000000000000600052603260045260246000fd5b60200260200101518281518110610aed577f4e487b7100000000000000000000000000000000000000000000000000000000600052603260045260246000fd5b6020026020010181905250876003018381548110610b34577f4e487b7100000000000000000000000000000000000000000000000000000000600052603260045260246000fd5b90600052602060002090600202016001018181548110610b7d577f4e487b7100000000000000000000000000000000000000000000000000000000600052603260045260246000fd5b906000526020600020906002020160010154848481518110610bc8577f4e487b7100000000000000000000000000000000000000000000000000000000600052603260045260246000fd5b60200260200101518281518110610c08577f4e487b7100000000000000000000000000000000000000000000000000000000600052603260045260246000fd5b6020026020010181815250508080610c1f9061590d565b91505061094d565b50508080610c349061590d565b915050610668565b5082828297509750975050505050509193909250565b6008845114610c96576040517f08c379a0000000000000000000000000000000000000000000000000000000008152600401610c8d906152f6565b60405180910390fd5b6000835111610cda576040517f08c379a0000000000000000000000000000000000000000000000000000000008152600401610cd1906152d6565b60405180910390fd5b6000825111610d1e576040517f08c379a0000000000000000000000000000000000000000000000000000000008152600401610d1590615516565b60405180910390fd5b6000600485604051610d309190614ec9565b90815260200160405180910390206000018054610d4c906158db565b905014610d8e576040517f08c379a0000000000000000000000000000000000000000000000000000000008152600401610d8590615436565b60405180910390fd5b6000600485604051610da09190614ec9565b9081526020016040518091039020905084816000019080519060200190610dc8929190613acc565b5083816001019080519060200190610de1929190613acc565b50338160020160006101000a81548173ffffffffffffffffffffffffffffffffffffffff021916908373ffffffffffffffffffffffffffffffffffffffff16021790555060008160040160006101000a81548160ff02191690831515021790555060005b83518110156110755781600301600181600181540180825580915050039060005260206000209050506000826003018281548110610eac577f4e487b7100000000000000000000000000000000000000000000000000000000600052603260045260246000fd5b90600052602060002090600202019050848281518110610ef5577f4e487b7100000000000000000000000000000000000000000000000000000000600052603260045260246000fd5b6020026020010151816000019080519060200190610f14929190613acc565b5060005b848381518110610f51577f4e487b7100000000000000000000000000000000000000000000000000000000600052603260045260246000fd5b60200260200101515181101561106057816001016040518060400160405280878681518110610fa9577f4e487b7100000000000000000000000000000000000000000000000000000000600052603260045260246000fd5b60200260200101518481518110610fe9577f4e487b7100000000000000000000000000000000000000000000000000000000600052603260045260246000fd5b60200260200101518152602001600081525090806001815401808255809150506001900390600052602060002090600202016000909190919091506000820151816000019080519060200190611040929190613acc565b5060208201518160010155505080806110589061590d565b915050610f18565b5050808061106d9061590d565b915050610e45565b50600360003373ffffffffffffffffffffffffffffffffffffffff1673ffffffffffffffffffffffffffffffffffffffff168152602001908152602001600020859080600181540180825580915050600190039060005260206000200160009091909190915090805190602001906110ee929190613acc565b503373ffffffffffffffffffffffffffffffffffffffff167f5d4ff6bed055bb6bb40742ad27d6df7113d8c7b79e6d1c37071a20e2cef7326886866040516111379291906150ed565b60405180910390a25050505050565b60006004826040516111589190614ec9565b90815260200160405180910390206000018054611174906158db565b9050116111b6576040517f08c379a00000000000000000000000000000000000000000000000000000000081526004016111ad90615376565b60405180910390fd5b6004816040516111c69190614ec9565b908152602001604051809103902060020160009054906101000a900473ffffffffffffffffffffffffffffffffffffffff1673ffffffffffffffffffffffffffffffffffffffff163373ffffffffffffffffffffffffffffffffffffffff1614611265576040517f08c379a000000000000000000000000000000000000000000000000000000000815260040161125c90615336565b60405180910390fd5b6004816040516112759190614ec9565b908152602001604051809103902060040160009054906101000a900460ff16156112d4576040517f08c379a00000000000000000000000000000000000000000000000000000000081526004016112cb906152b6565b60405180910390fd5b60016004826040516112e69190614ec9565b908152602001604051809103902060040160006101000a81548160ff0219169083151502179055507f3ab689f5e761cb0d1f72addf7bf809ffc9e3651e8df6cd97c3a9f30db8b7026f813360405161133f9291906150bd565b60405180910390a150565b60026020528060005260406000206000915054906101000a900460ff1681565b600060048460405161137c9190614ec9565b90815260200160405180910390206000018054611398906158db565b9050116113da576040517f08c379a00000000000000000000000000000000000000000000000000000000081526004016113d190615536565b60405180910390fd5b6004836040516113ea9190614ec9565b908152602001604051809103902060040160009054906101000a900460ff1615611449576040517f08c379a000000000000000000000000000000000000000000000000000000000815260040161144090615356565b60405180910390fd5b600060068460405161145b9190614ec9565b908152602001604051809103902060003373ffffffffffffffffffffffffffffffffffffffff1673ffffffffffffffffffffffffffffffffffffffff16815260200190815260200160002090508060020160009054906101000a900460ff166114f9576040517f08c379a00000000000000000000000000000000000000000000000000000000081526004016114f090615316565b60405180910390fd5b8060020160019054906101000a900460ff161561154b576040517f08c379a000000000000000000000000000000000000000000000000000000000815260040161154290615396565b60405180910390fd5b815183511461158f576040517f08c379a0000000000000000000000000000000000000000000000000000000008152600401611586906154f6565b60405180910390fd5b60005b83518110156117f457600033868684815181106115d8577f4e487b7100000000000000000000000000000000000000000000000000000000600052603260045260246000fd5b60200260200101516040516020016115f293929190614e90565b6040516020818303038152906040528051906020012090506007600082815260200190815260200160002060009054906101000a900460ff161561166b576040517f08c379a000000000000000000000000000000000000000000000000000000000815260040161166290615296565b60405180910390fd5b60048660405161167b9190614ec9565b90815260200160405180910390206003018583815181106116c5577f4e487b7100000000000000000000000000000000000000000000000000000000600052603260045260246000fd5b602002602001015181548110611704577f4e487b7100000000000000000000000000000000000000000000000000000000600052603260045260246000fd5b906000526020600020906002020160010184838151811061174e577f4e487b7100000000000000000000000000000000000000000000000000000000600052603260045260246000fd5b60200260200101518154811061178d577f4e487b7100000000000000000000000000000000000000000000000000000000600052603260045260246000fd5b906000526020600020906002020160010160008154809291906117af9061590d565b919050555060016007600083815260200190815260200160002060006101000a81548160ff0219169083151502179055505080806117ec9061590d565b915050611592565b5060018160020160016101000a81548160ff0219169083151502179055503373ffffffffffffffffffffffffffffffffffffffff167f73b0bbe16a2a3b202c20b72e73b4566642f8949c86e403a6e5bcc63cf05cd1638585600081518110611885577f4e487b7100000000000000000000000000000000000000000000000000000000600052603260045260246000fd5b6020026020010151856000815181106118c7577f4e487b7100000000000000000000000000000000000000000000000000000000600052603260045260246000fd5b60200260200101516040516118de939291906151d8565b60405180910390a250505050565b60008060606008855114611935576040517f08c379a000000000000000000000000000000000000000000000000000000000815260040161192c906154d6565b60405180910390fd5b60006004866040516119479190614ec9565b90815260200160405180910390206000018054611963906158db565b9050116119a5576040517f08c379a000000000000000000000000000000000000000000000000000000000815260040161199c90615376565b60405180910390fd5b60006006866040516119b79190614ec9565b908152602001604051809103902060003373ffffffffffffffffffffffffffffffffffffffff1673ffffffffffffffffffffffffffffffffffffffff16815260200190815260200160002090508060020160009054906101000a900460ff16611a55576040517f08c379a0000000000000000000000000000000000000000000000000000000008152600401611a4c90615416565b60405180910390fd5b85604051602001611a669190614ec9565b6040516020818303038152906040528051906020012081600101604051602001611a909190614ee0565b6040516020818303038152906040528051906020012014611ae6576040517f08c379a0000000000000000000000000000000000000000000000000000000008152600401611add90615496565b60405180910390fd5b84604051602001611af79190614ec9565b60405160208183030381529060405280519060200120816000015414611b52576040517f08c379a0000000000000000000000000000000000000000000000000000000008152600401611b4990615256565b60405180910390fd5b60018160020160019054906101000a900460ff1682600101808054611b76906158db565b80601f0160208091040260200160405190810160405280929190818152602001828054611ba2906158db565b8015611bef5780601f10611bc457610100808354040283529160200191611bef565b820191906000526020600020905b815481529060010190602001808311611bd257829003601f168201915b50505050509050935093509350509250925092565b6060806000600360003373ffffffffffffffffffffffffffffffffffffffff1673ffffffffffffffffffffffffffffffffffffffff16815260200190815260200160002080549050905060008167ffffffffffffffff811115611c90577f4e487b7100000000000000000000000000000000000000000000000000000000600052604160045260246000fd5b604051908082528060200260200182016040528015611cc357816020015b6060815260200190600190039081611cae5790505b50905060008267ffffffffffffffff811115611d08577f4e487b7100000000000000000000000000000000000000000000000000000000600052604160045260246000fd5b604051908082528060200260200182016040528015611d3b57816020015b6060815260200190600190039081611d265790505b50905060005b83811015612047576000600360003373ffffffffffffffffffffffffffffffffffffffff1673ffffffffffffffffffffffffffffffffffffffff1681526020019081526020016000208281548110611dc2577f4e487b7100000000000000000000000000000000000000000000000000000000600052603260045260246000fd5b906000526020600020018054611dd7906158db565b80601f0160208091040260200160405190810160405280929190818152602001828054611e03906158db565b8015611e505780601f10611e2557610100808354040283529160200191611e50565b820191906000526020600020905b815481529060010190602001808311611e3357829003601f168201915b50505050509050600481604051611e679190614ec9565b90815260200160405180910390206000018054611e83906158db565b80601f0160208091040260200160405190810160405280929190818152602001828054611eaf906158db565b8015611efc5780601f10611ed157610100808354040283529160200191611efc565b820191906000526020600020905b815481529060010190602001808311611edf57829003601f168201915b5050505050848381518110611f3a577f4e487b7100000000000000000000000000000000000000000000000000000000600052603260045260246000fd5b6020026020010181905250600481604051611f559190614ec9565b90815260200160405180910390206001018054611f71906158db565b80601f0160208091040260200160405190810160405280929190818152602001828054611f9d906158db565b8015611fea5780601f10611fbf57610100808354040283529160200191611fea565b820191906000526020600020905b815481529060010190602001808311611fcd57829003601f168201915b5050505050838381518110612028577f4e487b7100000000000000000000000000000000000000000000000000000000600052603260045260246000fd5b602002602001018190525050808061203f9061590d565b915050611d41565b508181945094505050509091565b600260003373ffffffffffffffffffffffffffffffffffffffff1673ffffffffffffffffffffffffffffffffffffffff16815260200190815260200160002060009054906101000a900460ff166120e1576040517f08c379a00000000000000000000000000000000000000000000000000000000081526004016120d890615216565b60405180910390fd5b6008825114612125576040517f08c379a000000000000000000000000000000000000000000000000000000000815260040161211c906154d6565b60405180910390fd5b60006004836040516121379190614ec9565b90815260200160405180910390206000018054612153906158db565b905011612195576040517f08c379a000000000000000000000000000000000000000000000000000000000815260040161218c90615376565b60405180910390fd5b80518351146121d9576040517f08c379a00000000000000000000000000000000000000000000000000000000081526004016121d090615476565b60405180910390fd5b60005b835181101561259d576006836040516121f59190614ec9565b9081526020016040518091039020600085838151811061223e577f4e487b7100000000000000000000000000000000000000000000000000000000600052603260045260246000fd5b602002602001015173ffffffffffffffffffffffffffffffffffffffff1673ffffffffffffffffffffffffffffffffffffffff16815260200190815260200160002060020160009054906101000a900460ff16156122d1576040517f08c379a00000000000000000000000000000000000000000000000000000000081526004016122c890615236565b60405180910390fd5b6040518060800160405280838381518110612315577f4e487b7100000000000000000000000000000000000000000000000000000000600052603260045260246000fd5b60200260200101518152602001848152602001600115158152602001600015158152506006846040516123489190614ec9565b90815260200160405180910390206000868481518110612391577f4e487b7100000000000000000000000000000000000000000000000000000000600052603260045260246000fd5b602002602001015173ffffffffffffffffffffffffffffffffffffffff1673ffffffffffffffffffffffffffffffffffffffff1681526020019081526020016000206000820151816000015560208201518160010190805190602001906123f9929190613acc565b5060408201518160020160006101000a81548160ff02191690831515021790555060608201518160020160016101000a81548160ff02191690831515021790555090505060058360405161244d9190614ec9565b9081526020016040518091039020848281518110612494577f4e487b7100000000000000000000000000000000000000000000000000000000600052603260045260246000fd5b60200260200101519080600181540180825580915050600190039060005260206000200160009091909190916101000a81548173ffffffffffffffffffffffffffffffffffffffff021916908373ffffffffffffffffffffffffffffffffffffffff160217905550838181518110612535577f4e487b7100000000000000000000000000000000000000000000000000000000600052603260045260246000fd5b602002602001015173ffffffffffffffffffffffffffffffffffffffff167fffeb7702be7dcd8fee170d954b70afb9a7c78f7f5cff232d037e7b9d8243356a84604051612582919061509b565b60405180910390a280806125959061590d565b9150506121dc565b50505050565b60608060608060006004866040516125bb9190614ec9565b908152602001604051809103902060000180546125d7906158db565b905011612619576040517f08c379a000000000000000000000000000000000000000000000000000000000815260040161261090615376565b60405180910390fd5b600060048660405161262b9190614ec9565b9081526020016040518091039020905060008160030180549050905060008167ffffffffffffffff811115612689577f4e487b7100000000000000000000000000000000000000000000000000000000600052604160045260246000fd5b6040519080825280602002602001820160405280156126bc57816020015b60608152602001906001900390816126a75790505b50905060008267ffffffffffffffff811115612701577f4e487b7100000000000000000000000000000000000000000000000000000000600052604160045260246000fd5b60405190808252806020026020018201604052801561273457816020015b606081526020019060019003908161271f5790505b50905060005b83811015612b3f5784600301818154811061277e577f4e487b7100000000000000000000000000000000000000000000000000000000600052603260045260246000fd5b9060005260206000209060020201600001805461279a906158db565b80601f01602080910402602001604051908101604052809291908181526020018280546127c6906158db565b80156128135780601f106127e857610100808354040283529160200191612813565b820191906000526020600020905b8154815290600101906020018083116127f657829003601f168201915b5050505050838281518110612851577f4e487b7100000000000000000000000000000000000000000000000000000000600052603260045260246000fd5b6020026020010181905250600085600301828154811061289a577f4e487b7100000000000000000000000000000000000000000000000000000000600052603260045260246000fd5b90600052602060002090600202016001018054905090508067ffffffffffffffff8111156128f1577f4e487b7100000000000000000000000000000000000000000000000000000000600052604160045260246000fd5b60405190808252806020026020018201604052801561292457816020015b606081526020019060019003908161290f5790505b5083838151811061295e577f4e487b7100000000000000000000000000000000000000000000000000000000600052603260045260246000fd5b602002602001018190525060005b81811015612b2a578660030183815481106129b0577f4e487b7100000000000000000000000000000000000000000000000000000000600052603260045260246000fd5b906000526020600020906002020160010181815481106129f9577f4e487b7100000000000000000000000000000000000000000000000000000000600052603260045260246000fd5b90600052602060002090600202016000018054612a15906158db565b80601f0160208091040260200160405190810160405280929190818152602001828054612a41906158db565b8015612a8e5780601f10612a6357610100808354040283529160200191612a8e565b820191906000526020600020905b815481529060010190602001808311612a7157829003601f168201915b5050505050848481518110612acc577f4e487b7100000000000000000000000000000000000000000000000000000000600052603260045260246000fd5b60200260200101518281518110612b0c577f4e487b7100000000000000000000000000000000000000000000000000000000600052603260045260246000fd5b60200260200101819052508080612b229061590d565b91505061296c565b50508080612b379061590d565b91505061273a565b5083600001846001018383838054612b56906158db565b80601f0160208091040260200160405190810160405280929190818152602001828054612b82906158db565b8015612bcf5780601f10612ba457610100808354040283529160200191612bcf565b820191906000526020600020905b815481529060010190602001808311612bb257829003601f168201915b50505050509350828054612be2906158db565b80601f0160208091040260200160405190810160405280929190818152602001828054612c0e906158db565b8015612c5b5780601f10612c3057610100808354040283529160200191612c5b565b820191906000526020600020905b815481529060010190602001808311612c3e57829003601f168201915b505050505092509750975097509750505050509193509193565b600080600483604051612c889190614ec9565b90815260200160405180910390206000018054612ca4906158db565b905011612ce6576040517f08c379a0000000000000000000000000000000000000000000000000000000008152600401612cdd90615376565b60405180910390fd5b600482604051612cf69190614ec9565b908152602001604051809103902060040160009054906101000a900460ff169050919050565b6060806000600584604051612d319190614ec9565b9081526020016040518091039020805480602002602001604051908101604052809291908181526020018280548015612dbf57602002820191906000526020600020905b8160009054906101000a900473ffffffffffffffffffffffffffffffffffffffff1673ffffffffffffffffffffffffffffffffffffffff1681526020019060010190808311612d75575b505050505090506000815167ffffffffffffffff811115612e09577f4e487b7100000000000000000000000000000000000000000000000000000000600052604160045260246000fd5b604051908082528060200260200182016040528015612e375781602001602082028036833780820191505090505b50905060005b8251811015612f5057600686604051612e569190614ec9565b90815260200160405180910390206000848381518110612e9f577f4e487b7100000000000000000000000000000000000000000000000000000000600052603260045260246000fd5b602002602001015173ffffffffffffffffffffffffffffffffffffffff1673ffffffffffffffffffffffffffffffffffffffff16815260200190815260200160002060020160019054906101000a900460ff16828281518110612f2b577f4e487b7100000000000000000000000000000000000000000000000000000000600052603260045260246000fd5b6020026020010190151590811515815250508080612f489061590d565b915050612e3d565b508181935093505050915091565b600481805160208101820180518482526020830160208501208183528095505050505050600091509050806000018054612f97906158db565b80601f0160208091040260200160405190810160405280929190818152602001828054612fc3906158db565b80156130105780601f10612fe557610100808354040283529160200191613010565b820191906000526020600020905b815481529060010190602001808311612ff357829003601f168201915b505050505090806001018054613025906158db565b80601f0160208091040260200160405190810160405280929190818152602001828054613051906158db565b801561309e5780601f106130735761010080835404028352916020019161309e565b820191906000526020600020905b81548152906001019060200180831161308157829003601f168201915b5050505050908060020160009054906101000a900473ffffffffffffffffffffffffffffffffffffffff16908060040160009054906101000a900460ff16905084565b600060608060006001866040516130f89190614ec9565b908152602001604051809103902060009054906101000a900473ffffffffffffffffffffffffffffffffffffffff169050600073ffffffffffffffffffffffffffffffffffffffff168173ffffffffffffffffffffffffffffffffffffffff161415613199576040517f08c379a0000000000000000000000000000000000000000000000000000000008152600401613190906154b6565b60405180910390fd5b3373ffffffffffffffffffffffffffffffffffffffff168173ffffffffffffffffffffffffffffffffffffffff1614613207576040517f08c379a00000000000000000000000000000000000000000000000000000000081526004016131fe90615456565b60405180910390fd5b60008060008373ffffffffffffffffffffffffffffffffffffffff1673ffffffffffffffffffffffffffffffffffffffff16815260200190815260200160002090508560405160200161325a9190614ec9565b604051602081830303815290604052805190602001208160010154146132b5576040517f08c379a00000000000000000000000000000000000000000000000000000000081526004016132ac90615256565b60405180910390fd5b6000600360008473ffffffffffffffffffffffffffffffffffffffff1673ffffffffffffffffffffffffffffffffffffffff16815260200190815260200160002080549050905060008167ffffffffffffffff81111561333e577f4e487b7100000000000000000000000000000000000000000000000000000000600052604160045260246000fd5b60405190808252806020026020018201604052801561337157816020015b606081526020019060019003908161335c5790505b50905060008267ffffffffffffffff8111156133b6577f4e487b7100000000000000000000000000000000000000000000000000000000600052604160045260246000fd5b6040519080825280602002602001820160405280156133e957816020015b60608152602001906001900390816133d45790505b50905060005b838110156136f5576000600360008873ffffffffffffffffffffffffffffffffffffffff1673ffffffffffffffffffffffffffffffffffffffff1681526020019081526020016000208281548110613470577f4e487b7100000000000000000000000000000000000000000000000000000000600052603260045260246000fd5b906000526020600020018054613485906158db565b80601f01602080910402602001604051908101604052809291908181526020018280546134b1906158db565b80156134fe5780601f106134d3576101008083540402835291602001916134fe565b820191906000526020600020905b8154815290600101906020018083116134e157829003601f168201915b505050505090506004816040516135159190614ec9565b90815260200160405180910390206000018054613531906158db565b80601f016020809104026020016040519081016040528092919081815260200182805461355d906158db565b80156135aa5780601f1061357f576101008083540402835291602001916135aa565b820191906000526020600020905b81548152906001019060200180831161358d57829003601f168201915b50505050508483815181106135e8577f4e487b7100000000000000000000000000000000000000000000000000000000600052603260045260246000fd5b60200260200101819052506004816040516136039190614ec9565b9081526020016040518091039020600101805461361f906158db565b80601f016020809104026020016040519081016040528092919081815260200182805461364b906158db565b80156136985780601f1061366d57610100808354040283529160200191613698565b820191906000526020600020905b81548152906001019060200180831161367b57829003601f168201915b50505050508383815181106136d6577f4e487b7100000000000000000000000000000000000000000000000000000000600052603260045260246000fd5b60200260200101819052505080806136ed9061590d565b9150506133ef565b506001828297509750975050505050509250925092565b6000825111613750576040517f08c379a000000000000000000000000000000000000000000000000000000000815260040161374790615276565b60405180910390fd5b6000815111613794576040517f08c379a000000000000000000000000000000000000000000000000000000000815260040161378b906153d6565b60405180910390fd5b600073ffffffffffffffffffffffffffffffffffffffff166001836040516137bc9190614ec9565b908152602001604051809103902060009054906101000a900473ffffffffffffffffffffffffffffffffffffffff1673ffffffffffffffffffffffffffffffffffffffff1614613841576040517f08c379a0000000000000000000000000000000000000000000000000000000008152600401613838906153b6565b60405180910390fd5b600260003373ffffffffffffffffffffffffffffffffffffffff1673ffffffffffffffffffffffffffffffffffffffff16815260200190815260200160002060009054906101000a900460ff16156138ce576040517f08c379a00000000000000000000000000000000000000000000000000000000081526004016138c5906153f6565b60405180910390fd5b6000816040516020016138e19190614ec9565b60405160208183030381529060405280519060200120905060405180606001604052808481526020018281526020013373ffffffffffffffffffffffffffffffffffffffff168152506000803373ffffffffffffffffffffffffffffffffffffffff1673ffffffffffffffffffffffffffffffffffffffff1681526020019081526020016000206000820151816000019080519060200190613984929190613acc565b506020820151816001015560408201518160020160006101000a81548173ffffffffffffffffffffffffffffffffffffffff021916908373ffffffffffffffffffffffffffffffffffffffff160217905550905050336001846040516139ea9190614ec9565b908152602001604051809103902060006101000a81548173ffffffffffffffffffffffffffffffffffffffff021916908373ffffffffffffffffffffffffffffffffffffffff1602179055506001600260003373ffffffffffffffffffffffffffffffffffffffff1673ffffffffffffffffffffffffffffffffffffffff16815260200190815260200160002060006101000a81548160ff0219169083151502179055507fdc66d5625246d2f0a5a37b7a15ab06b88858e01299d7b3861ffc77ef178984518333604051613abf9291906150bd565b60405180910390a1505050565b828054613ad8906158db565b90600052602060002090601f016020900481019282613afa5760008555613b41565b82601f10613b1357805160ff1916838001178555613b41565b82800160010185558215613b41579182015b82811115613b40578251825591602001919060010190613b25565b5b509050613b4e9190613b52565b5090565b5b80821115613b6b576000816000905550600101613b53565b5090565b6000613b82613b7d84615587565b615556565b90508083825260208201905082856020860282011115613ba157600080fd5b60005b85811015613bd15781613bb78882613dab565b845260208401935060208301925050600181019050613ba4565b5050509392505050565b6000613bee613be9846155b3565b615556565b9050808382526020820190508260005b85811015613c2e5781358501613c148882613e3e565b845260208401935060208301925050600181019050613bfe565b5050509392505050565b6000613c4b613c46846155df565b615556565b90508083825260208201905082856020860282011115613c6a57600080fd5b60005b85811015613c9a5781613c808882613e92565b845260208401935060208301925050600181019050613c6d565b5050509392505050565b6000613cb7613cb28461560b565b615556565b9050808382526020820190508260005b85811015613cf75781358501613cdd8882613ea7565b845260208401935060208301925050600181019050613cc7565b5050509392505050565b6000613d14613d0f84615637565b615556565b90508083825260208201905082856020860282011115613d3357600080fd5b60005b85811015613d635781613d498882613ed1565b845260208401935060208301925050600181019050613d36565b5050509392505050565b6000613d80613d7b84615663565b615556565b905082815260208101848484011115613d9857600080fd5b613da3848285615899565b509392505050565b600081359050613dba81615a2f565b92915050565b600082601f830112613dd157600080fd5b8135613de1848260208601613b6f565b91505092915050565b600082601f830112613dfb57600080fd5b8135613e0b848260208601613bdb565b91505092915050565b600082601f830112613e2557600080fd5b8135613e35848260208601613c38565b91505092915050565b600082601f830112613e4f57600080fd5b8135613e5f848260208601613ca4565b91505092915050565b600082601f830112613e7957600080fd5b8135613e89848260208601613d01565b91505092915050565b600081359050613ea181615a46565b92915050565b600082601f830112613eb857600080fd5b8135613ec8848260208601613d6d565b91505092915050565b600081359050613ee081615a5d565b92915050565b600060208284031215613ef857600080fd5b6000613f0684828501613dab565b91505092915050565b600080600060608486031215613f2457600080fd5b600084013567ffffffffffffffff811115613f3e57600080fd5b613f4a86828701613dc0565b935050602084013567ffffffffffffffff811115613f6757600080fd5b613f7386828701613ea7565b925050604084013567ffffffffffffffff811115613f9057600080fd5b613f9c86828701613e14565b9150509250925092565b600060208284031215613fb857600080fd5b600082013567ffffffffffffffff811115613fd257600080fd5b613fde84828501613ea7565b91505092915050565b60008060408385031215613ffa57600080fd5b600083013567ffffffffffffffff81111561401457600080fd5b61402085828601613ea7565b925050602061403185828601613dab565b9150509250929050565b60008060006060848603121561405057600080fd5b600084013567ffffffffffffffff81111561406a57600080fd5b61407686828701613ea7565b935050602084013567ffffffffffffffff81111561409357600080fd5b61409f86828701613e68565b925050604084013567ffffffffffffffff8111156140bc57600080fd5b6140c886828701613e68565b9150509250925092565b600080604083850312156140e557600080fd5b600083013567ffffffffffffffff8111156140ff57600080fd5b61410b85828601613ea7565b925050602083013567ffffffffffffffff81111561412857600080fd5b61413485828601613ea7565b9150509250929050565b6000806000806080858703121561415457600080fd5b600085013567ffffffffffffffff81111561416e57600080fd5b61417a87828801613ea7565b945050602085013567ffffffffffffffff81111561419757600080fd5b6141a387828801613ea7565b935050604085013567ffffffffffffffff8111156141c057600080fd5b6141cc87828801613e3e565b925050606085013567ffffffffffffffff8111156141e957600080fd5b6141f587828801613dea565b91505092959194509250565b600061420d8383614285565b60208301905092915050565b60006142258383614460565b905092915050565b6000614239838361454a565b905092915050565b600061424d83836145a8565b60208301905092915050565b600061426583836145d5565b905092915050565b60006142798383614e5b565b60208301905092915050565b61428e81615847565b82525050565b61429d81615847565b82525050565b6142b46142af82615847565b615956565b82525050565b60006142c582615708565b6142cf81856157a3565b93506142da83615693565b8060005b8381101561430b5781516142f28882614201565b97506142fd83615755565b9250506001810190506142de565b5085935050505092915050565b600061432382615713565b61432d81856157b4565b93508360208202850161433f856156a3565b8060005b8581101561437b578484038952815161435c8582614219565b945061436783615762565b925060208a01995050600181019050614343565b50829750879550505050505092915050565b60006143988261571e565b6143a281856157c5565b9350836020820285016143b4856156b3565b8060005b858110156143f057848403895281516143d1858261422d565b94506143dc8361576f565b925060208a019950506001810190506143b8565b50829750879550505050505092915050565b600061440d82615729565b61441781856157d6565b9350614422836156c3565b8060005b8381101561445357815161443a8882614241565b97506144458361577c565b925050600181019050614426565b5085935050505092915050565b600061446b82615734565b61447581856157e7565b935083602082028501614487856156d3565b8060005b858110156144c357848403895281516144a48582614259565b94506144af83615789565b925060208a0199505060018101905061448b565b50829750879550505050505092915050565b60006144e082615734565b6144ea81856157f8565b9350836020820285016144fc856156d3565b8060005b8581101561453857848403895281516145198582614259565b945061452483615789565b925060208a01995050600181019050614500565b50829750879550505050505092915050565b60006145558261573f565b61455f8185615809565b935061456a836156e3565b8060005b8381101561459b578151614582888261426d565b975061458d83615796565b92505060018101905061456e565b5085935050505092915050565b6145b181615859565b82525050565b6145c081615859565b82525050565b6145cf81615865565b82525050565b60006145e08261574a565b6145ea818561581a565b93506145fa8185602086016158a8565b61460381615a11565b840191505092915050565b60006146198261574a565b614623818561582b565b93506146338185602086016158a8565b61463c81615a11565b840191505092915050565b60006146528261574a565b61465c818561583c565b935061466c8185602086016158a8565b80840191505092915050565b60008154614685816158db565b61468f818661583c565b945060018216600081146146aa57600181146146bb576146ee565b60ff198316865281860193506146ee565b6146c4856156f3565b60005b838110156146e6578154818901526001820191506020810190506146c7565b838801955050505b50505092915050565b6000614704601f8361582b565b91507f4f6e6c792061646d696e732063616e20726567697374657220766f74657273006000830152602082019050919050565b600061474460288361582b565b91507f566f74657220616c7265616479207265676973746572656420666f722074686960008301527f732062616c6c6f740000000000000000000000000000000000000000000000006020830152604082019050919050565b60006147aa60128361582b565b91507f496e636f72726563742070617373776f726400000000000000000000000000006000830152602082019050919050565b60006147ea60118361582b565b91507f557365726e616d652072657175697265640000000000000000000000000000006000830152602082019050919050565b600061482a601f8361582b565b91507f416c726561647920766f74656420666f72207468697320706f736974696f6e006000830152602082019050919050565b600061486a60188361582b565b91507f566f74696e6720697320616c726561647920636c6f73656400000000000000006000830152602082019050919050565b60006148aa60158361582b565b91507f42616c6c6f74207469746c6520726571756972656400000000000000000000006000830152602082019050919050565b60006148ea602b8361582b565b91507f42616c6c6f74204944206d7573742062652065786163746c792038206368617260008301527f616374657273206c6f6e670000000000000000000000000000000000000000006020830152604082019050919050565b600061495060148361582b565b91507f566f746572206e6f7420726567697374657265640000000000000000000000006000830152602082019050919050565b600061499060288361582b565b91507f4f6e6c79207468652062616c6c6f742063726561746f722063616e20636c6f7360008301527f6520766f74696e670000000000000000000000000000000000000000000000006020830152604082019050919050565b60006149f660108361582b565b91507f566f74696e672068617320656e646564000000000000000000000000000000006000830152602082019050919050565b6000614a3660188361582b565b91507f42616c6c6f7420494420646f6573206e6f7420657869737400000000000000006000830152602082019050919050565b6000614a7660218361582b565b91507f596f75206861766520616c726561647920636f6d706c6574656420766f74696e60008301527f67000000000000000000000000000000000000000000000000000000000000006020830152604082019050919050565b6000614adc60178361582b565b91507f557365726e616d6520616c7265616479206578697374730000000000000000006000830152602082019050919050565b6000614b1c60118361582b565b91507f50617373776f72642072657175697265640000000000000000000000000000006000830152602082019050919050565b6000614b5c60188361582b565b91507f41646d696e20616c7265616479207265676973746572656400000000000000006000830152602082019050919050565b6000614b9c60238361582b565b91507f566f746572206e6f74207265676973746572656420666f7220616e792062616c60008301527f6c6f7400000000000000000000000000000000000000000000000000000000006020830152604082019050919050565b6000614c0260188361582b565b91507f42616c6c6f7420494420616c72656164792065786973747300000000000000006000830152602082019050919050565b6000614c4260328361582b565b91507f556e617574686f72697a65643a2055736520796f75722072656769737465726560008301527f64204d6574614d61736b206164647265737300000000000000000000000000006020830152604082019050919050565b6000614ca860188361582b565b91507f4d69736d617463686564206172726179206c656e6774687300000000000000006000830152602082019050919050565b6000614ce860128361582b565b91507f42616c6c6f74204944206d69736d6174636800000000000000000000000000006000830152602082019050919050565b6000614d28600f8361582b565b91507f41646d696e206e6f7420666f756e6400000000000000000000000000000000006000830152602082019050919050565b6000614d6860118361582b565b91507f496e76616c69642042616c6c6f742049440000000000000000000000000000006000830152602082019050919050565b6000614da860118361582b565b91507f496e76616c696420766f746520646174610000000000000000000000000000006000830152602082019050919050565b6000614de8601e8361582b565b91507f4174206c65617374206f6e6520706f736974696f6e20726571756972656400006000830152602082019050919050565b6000614e2860118361582b565b91507f496e76616c69642062616c6c6f742049440000000000000000000000000000006000830152602082019050919050565b614e648161588f565b82525050565b614e738161588f565b82525050565b614e8a614e858261588f565b61597a565b82525050565b6000614e9c82866142a3565b601482019150614eac8285614647565b9150614eb88284614e79565b602082019150819050949350505050565b6000614ed58284614647565b915081905092915050565b6000614eec8284614678565b915081905092915050565b60006040820190508181036000830152614f1181856142ba565b90508181036020830152614f258184614402565b90509392505050565b60006060820190508181036000830152614f4881866144d5565b90508181036020830152614f5c8185614318565b90508181036040830152614f70818461438d565b9050949350505050565b60006040820190508181036000830152614f9481856144d5565b90508181036020830152614fa881846144d5565b90509392505050565b6000602082019050614fc660008301846145b7565b92915050565b6000606082019050614fe160008301866145b7565b8181036020830152614ff381856144d5565b9050818103604083015261500781846144d5565b9050949350505050565b600060608201905061502660008301866145b7565b61503360208301856145b7565b8181036040830152615045818461460e565b9050949350505050565b600060808201905061506460008301876145c6565b8181036020830152615076818661460e565b905061508560408301856145b7565b61509260608301846145b7565b95945050505050565b600060208201905081810360008301526150b5818461460e565b905092915050565b600060408201905081810360008301526150d7818561460e565b90506150e66020830184614294565b9392505050565b60006040820190508181036000830152615107818561460e565b9050818103602083015261511b818461460e565b90509392505050565b6000608082019050818103600083015261513e818761460e565b90508181036020830152615152818661460e565b90506151616040830185614294565b61516e60608301846145b7565b95945050505050565b60006080820190508181036000830152615191818761460e565b905081810360208301526151a5818661460e565b905081810360408301526151b981856144d5565b905081810360608301526151cd8184614318565b905095945050505050565b600060608201905081810360008301526151f2818661460e565b90506152016020830185614e6a565b61520e6040830184614e6a565b949350505050565b6000602082019050818103600083015261522f816146f7565b9050919050565b6000602082019050818103600083015261524f81614737565b9050919050565b6000602082019050818103600083015261526f8161479d565b9050919050565b6000602082019050818103600083015261528f816147dd565b9050919050565b600060208201905081810360008301526152af8161481d565b9050919050565b600060208201905081810360008301526152cf8161485d565b9050919050565b600060208201905081810360008301526152ef8161489d565b9050919050565b6000602082019050818103600083015261530f816148dd565b9050919050565b6000602082019050818103600083015261532f81614943565b9050919050565b6000602082019050818103600083015261534f81614983565b9050919050565b6000602082019050818103600083015261536f816149e9565b9050919050565b6000602082019050818103600083015261538f81614a29565b9050919050565b600060208201905081810360008301526153af81614a69565b9050919050565b600060208201905081810360008301526153cf81614acf565b9050919050565b600060208201905081810360008301526153ef81614b0f565b9050919050565b6000602082019050818103600083015261540f81614b4f565b9050919050565b6000602082019050818103600083015261542f81614b8f565b9050919050565b6000602082019050818103600083015261544f81614bf5565b9050919050565b6000602082019050818103600083015261546f81614c35565b9050919050565b6000602082019050818103600083015261548f81614c9b565b9050919050565b600060208201905081810360008301526154af81614cdb565b9050919050565b600060208201905081810360008301526154cf81614d1b565b9050919050565b600060208201905081810360008301526154ef81614d5b565b9050919050565b6000602082019050818103600083015261550f81614d9b565b9050919050565b6000602082019050818103600083015261552f81614ddb565b9050919050565b6000602082019050818103600083015261554f81614e1b565b9050919050565b6000604051905081810181811067ffffffffffffffff8211171561557d5761557c6159e2565b5b8060405250919050565b600067ffffffffffffffff8211156155a2576155a16159e2565b5b602082029050602081019050919050565b600067ffffffffffffffff8211156155ce576155cd6159e2565b5b602082029050602081019050919050565b600067ffffffffffffffff8211156155fa576155f96159e2565b5b602082029050602081019050919050565b600067ffffffffffffffff821115615626576156256159e2565b5b602082029050602081019050919050565b600067ffffffffffffffff821115615652576156516159e2565b5b602082029050602081019050919050565b600067ffffffffffffffff82111561567e5761567d6159e2565b5b601f19601f8301169050602081019050919050565b6000819050602082019050919050565b6000819050602082019050919050565b6000819050602082019050919050565b6000819050602082019050919050565b6000819050602082019050919050565b6000819050602082019050919050565b60008190508160005260206000209050919050565b600081519050919050565b600081519050919050565b600081519050919050565b600081519050919050565b600081519050919050565b600081519050919050565b600081519050919050565b6000602082019050919050565b6000602082019050919050565b6000602082019050919050565b6000602082019050919050565b6000602082019050919050565b6000602082019050919050565b600082825260208201905092915050565b600082825260208201905092915050565b600082825260208201905092915050565b600082825260208201905092915050565b600082825260208201905092915050565b600082825260208201905092915050565b600082825260208201905092915050565b600082825260208201905092915050565b600082825260208201905092915050565b600081905092915050565b60006158528261586f565b9050919050565b60008115159050919050565b6000819050919050565b600073ffffffffffffffffffffffffffffffffffffffff82169050919050565b6000819050919050565b82818337600083830152505050565b60005b838110156158c65780820151818401526020810190506158ab565b838111156158d5576000848401525b50505050565b600060028204905060018216806158f357607f821691505b60208210811415615907576159066159b3565b5b50919050565b60006159188261588f565b91507fffffffffffffffffffffffffffffffffffffffffffffffffffffffffffffffff82141561594b5761594a615984565b5b600182019050919050565b600061596182615968565b9050919050565b600061597382615a22565b9050919050565b6000819050919050565b7f4e487b7100000000000000000000000000000000000000000000000000000000600052601160045260246000fd5b7f4e487b7100000000000000000000000000000000000000000000000000000000600052602260045260246000fd5b7f4e487b7100000000000000000000000000000000000000000000000000000000600052604160045260246000fd5b6000601f19601f8301169050919050565b60008160601b9050919050565b615a3881615847565b8114615a4357600080fd5b50565b615a4f81615865565b8114615a5a57600080fd5b50565b615a668161588f565b8114615a7157600080fd5b5056fea2646970667358221220c306eb92f6ed28308d8869566e5411a805f1feb290e48659816f9ffee92deb4864736f6c63430008000033",
  "immutableReferences": {},
  "source": "// SPDX-License-Identifier: MIT\r\npragma solidity ^0.8.0;\r\n\r\ncontract VotingSystem {\r\n    struct Admin {\r\n        string username;\r\n        bytes32 hashedPassword;\r\n        address adminAddress;\r\n    }\r\n\r\n    struct Candidate {\r\n        string name;\r\n        uint voteCount;\r\n    }\r\n\r\n    struct Position {\r\n        string name;\r\n        Candidate[] candidates;\r\n    }\r\n\r\n    struct Ballot {\r\n        string id;\r\n        string title;\r\n        address adminAddress;\r\n        Position[] positions;\r\n        bool isClosed;\r\n    }\r\n\r\n    struct Voter {\r\n        bytes32 hashedPassword;\r\n        string ballotId;\r\n        bool isRegistered;\r\n        bool hasVoted;\r\n    }\r\n\r\n    // Admin storage\r\n    mapping(address => Admin) private admins;\r\n    mapping(string => address) private usernameToAddress;\r\n    mapping(address => bool) public isAdminRegistered;\r\n    mapping(address => string[]) private adminBallots;\r\n\r\n    // Ballot storage\r\n    mapping(string => Ballot) public ballots;\r\n    mapping(string => address[]) private ballotVoters; // Voters per ballot\r\n\r\n    // Voter storage (ballot-specific)\r\n    mapping(string => mapping(address => Voter)) public registeredVoters;\r\n\r\n    // Voting tracking\r\n    mapping(bytes32 => bool) private positionVotes;\r\n\r\n    // Events\r\n    event AdminRegistered(string username, address adminAddress);\r\n    event BallotCreated(string ballotId, string title, address indexed admin);\r\n    event VoterRegistered(address indexed voter, string ballotId);\r\n    event VoteCasted(address indexed voter, string ballotId, uint positionIndex, uint candidateIndex);\r\n    event VotingEnded(string ballotId, address admin);\r\n\r\n    // ---------------- Admin functions ----------------\r\n    function registerAdmin(string memory _username, string memory _password) public {\r\n        require(bytes(_username).length > 0, \"Username required\");\r\n        require(bytes(_password).length > 0, \"Password required\");\r\n        require(usernameToAddress[_username] == address(0), \"Username already exists\");\r\n        require(!isAdminRegistered[msg.sender], \"Admin already registered\");\r\n\r\n        bytes32 hashedPassword = keccak256(abi.encodePacked(_password));\r\n        admins[msg.sender] = Admin(_username, hashedPassword, msg.sender);\r\n        usernameToAddress[_username] = msg.sender;\r\n        isAdminRegistered[msg.sender] = true;\r\n\r\n        emit AdminRegistered(_username, msg.sender);\r\n    }\r\n\r\n    function adminLogin(string memory _username, string memory _password) \r\n        public view returns (bool, string[] memory, string[] memory) \r\n    {\r\n        address adminAddr = usernameToAddress[_username];\r\n        require(adminAddr != address(0), \"Admin not found\");\r\n        require(adminAddr == msg.sender, \"Unauthorized: Use your registered MetaMask address\");\r\n\r\n        Admin storage admin = admins[adminAddr];\r\n        require(admin.hashedPassword == keccak256(abi.encodePacked(_password)), \"Incorrect password\");\r\n\r\n        uint ballotCount = adminBallots[adminAddr].length;\r\n        string[] memory ballotIds = new string[](ballotCount);\r\n        string[] memory ballotTitles = new string[](ballotCount);\r\n\r\n        for (uint i = 0; i < ballotCount; i++) {\r\n            string memory ballotId = adminBallots[adminAddr][i];\r\n            ballotIds[i] = ballots[ballotId].id;\r\n            ballotTitles[i] = ballots[ballotId].title;\r\n        }\r\n\r\n        return (true, ballotIds, ballotTitles);\r\n    }\r\n\r\n    // ---------------- Ballot functions ----------------\r\n    function createBallot(\r\n        string memory _ballotId,\r\n        string memory _title,\r\n        string[] memory _positionNames,\r\n        string[][] memory _candidateNames\r\n    ) public {\r\n        require(bytes(_ballotId).length == 8, \"Ballot ID must be exactly 8 characters long\");\r\n        require(bytes(_title).length > 0, \"Ballot title required\");\r\n        require(_positionNames.length > 0, \"At least one position required\");\r\n        require(bytes(ballots[_ballotId].id).length == 0, \"Ballot ID already exists\");\r\n\r\n        Ballot storage newBallot = ballots[_ballotId];\r\n        newBallot.id = _ballotId;\r\n        newBallot.title = _title;\r\n        newBallot.adminAddress = msg.sender;\r\n        newBallot.isClosed = false;\r\n\r\n        for (uint i = 0; i < _positionNames.length; i++) {\r\n            newBallot.positions.push();\r\n            Position storage newPosition = newBallot.positions[i];\r\n            newPosition.name = _positionNames[i];\r\n\r\n            for (uint j = 0; j < _candidateNames[i].length; j++) {\r\n                newPosition.candidates.push(Candidate(_candidateNames[i][j], 0));\r\n            }\r\n        }\r\n\r\n        adminBallots[msg.sender].push(_ballotId);\r\n        emit BallotCreated(_ballotId, _title, msg.sender);\r\n    }\r\n\r\n    // ---------------- Voter registration ----------------\r\n    function registerMultipleVoters(\r\n        address[] memory _voterAddresses,\r\n        string memory _ballotId,\r\n        bytes32[] memory _hashedPasswords\r\n    ) public {\r\n        require(isAdminRegistered[msg.sender], \"Only admins can register voters\");\r\n        require(bytes(_ballotId).length == 8, \"Invalid Ballot ID\");\r\n        require(bytes(ballots[_ballotId].id).length > 0, \"Ballot ID does not exist\");\r\n        require(_voterAddresses.length == _hashedPasswords.length, \"Mismatched array lengths\");\r\n\r\n        for (uint i = 0; i < _voterAddresses.length; i++) {\r\n            require(!registeredVoters[_ballotId][_voterAddresses[i]].isRegistered, \r\n                \"Voter already registered for this ballot\");\r\n\r\n            registeredVoters[_ballotId][_voterAddresses[i]] = Voter({\r\n                hashedPassword: _hashedPasswords[i],\r\n                ballotId: _ballotId,\r\n                isRegistered: true,\r\n                hasVoted: false\r\n            });\r\n\r\n            ballotVoters[_ballotId].push(_voterAddresses[i]);\r\n            emit VoterRegistered(_voterAddresses[i], _ballotId);\r\n        }\r\n    }\r\n\r\n    function getVotersWithStatus(string memory _ballotId)\r\n        public\r\n        view\r\n        returns (address[] memory, bool[] memory)\r\n    {\r\n        address[] memory voters = ballotVoters[_ballotId];\r\n        bool[] memory votedStatus = new bool[](voters.length);\r\n\r\n        for (uint i = 0; i < voters.length; i++) {\r\n            votedStatus[i] = registeredVoters[_ballotId][voters[i]].hasVoted;\r\n        }\r\n\r\n        return (voters, votedStatus);\r\n    }\r\n\r\n    // ---------------- Voting ----------------\r\n    function authenticateVoter(string memory _ballotId, string memory _password) \r\n        public view returns (bool isAuthenticated, bool hasVoted, string memory ballotId) \r\n    {\r\n        require(bytes(_ballotId).length == 8, \"Invalid Ballot ID\");\r\n        require(bytes(ballots[_ballotId].id).length > 0, \"Ballot ID does not exist\");\r\n\r\n        Voter storage voter = registeredVoters[_ballotId][msg.sender];\r\n        require(voter.isRegistered, \"Voter not registered for any ballot\");\r\n        require(keccak256(abi.encodePacked(voter.ballotId)) == keccak256(abi.encodePacked(_ballotId)), \"Ballot ID mismatch\");\r\n        require(voter.hashedPassword == keccak256(abi.encodePacked(_password)), \"Incorrect password\");\r\n\r\n        return (true, voter.hasVoted, voter.ballotId);\r\n    }\r\n\r\n    function voteMultiple(string memory _ballotId, uint[] memory _positionIndexes, uint[] memory _candidateIndexes) public {\r\n        require(bytes(ballots[_ballotId].id).length > 0, \"Invalid ballot ID\");\r\n        require(!ballots[_ballotId].isClosed, \"Voting has ended\");\r\n\r\n        Voter storage voter = registeredVoters[_ballotId][msg.sender];\r\n        require(voter.isRegistered, \"Voter not registered\");\r\n        require(!voter.hasVoted, \"You have already completed voting\");\r\n        require(_positionIndexes.length == _candidateIndexes.length, \"Invalid vote data\");\r\n\r\n        for (uint i = 0; i < _positionIndexes.length; i++) {\r\n            bytes32 voteKey = keccak256(abi.encodePacked(msg.sender, _ballotId, _positionIndexes[i]));\r\n            require(!positionVotes[voteKey], \"Already voted for this position\");\r\n\r\n            ballots[_ballotId].positions[_positionIndexes[i]].candidates[_candidateIndexes[i]].voteCount++;\r\n            positionVotes[voteKey] = true;\r\n        }\r\n\r\n        voter.hasVoted = true;\r\n        emit VoteCasted(msg.sender, _ballotId, _positionIndexes[0], _candidateIndexes[0]);\r\n    }\r\n\r\n    // ---------------- Utilities ----------------\r\n    function getMyBallots() public view returns (string[] memory, string[] memory) {\r\n        uint ballotCount = adminBallots[msg.sender].length;\r\n        string[] memory ballotIds = new string[](ballotCount);\r\n        string[] memory ballotTitles = new string[](ballotCount);\r\n\r\n        for (uint i = 0; i < ballotCount; i++) {\r\n            string memory ballotId = adminBallots[msg.sender][i];\r\n            ballotIds[i] = ballots[ballotId].id;\r\n            ballotTitles[i] = ballots[ballotId].title;\r\n        }\r\n\r\n        return (ballotIds, ballotTitles);\r\n    }\r\n\r\n    function getBallotDetails(string memory _ballotId)\r\n        public\r\n        view\r\n        returns (string memory, string memory, string[] memory, string[][] memory)\r\n    {\r\n        require(bytes(ballots[_ballotId].id).length > 0, \"Ballot ID does not exist\");\r\n        Ballot storage ballot = ballots[_ballotId];\r\n\r\n        uint positionCount = ballot.positions.length;\r\n        string[] memory positionNames = new string[](positionCount);\r\n        string[][] memory candidateNames = new string[][](positionCount);\r\n\r\n        for (uint i = 0; i < positionCount; i++) {\r\n            positionNames[i] = ballot.positions[i].name;\r\n            uint candidateCount = ballot.positions[i].candidates.length;\r\n            candidateNames[i] = new string[](candidateCount);\r\n\r\n            for (uint j = 0; j < candidateCount; j++) {\r\n                candidateNames[i][j] = ballot.positions[i].candidates[j].name;\r\n            }\r\n        }\r\n\r\n        return (ballot.id, ballot.title, positionNames, candidateNames);\r\n    }\r\n\r\n    function getResults(string memory _ballotId) \r\n        public view returns (string[] memory, string[][] memory, uint[][] memory) \r\n    {\r\n        require(bytes(ballots[_ballotId].id).length > 0, \"Ballot ID does not exist\");\r\n        Ballot storage ballot = ballots[_ballotId];\r\n\r\n        uint positionCount = ballot.positions.length;\r\n        string[] memory positionNames = new string[](positionCount);\r\n        string[][] memory candidateNames = new string[][](positionCount);\r\n        uint[][] memory voteCounts = new uint[][](positionCount);\r\n\r\n        for (uint i = 0; i < positionCount; i++) {\r\n            positionNames[i] = ballot.positions[i].name;\r\n            uint candidateCount = ballot.positions[i].candidates.length;\r\n\r\n            candidateNames[i] = new string[](candidateCount);\r\n            voteCounts[i] = new uint[](candidateCount);\r\n\r\n            for (uint j = 0; j < candidateCount; j++) {\r\n                candidateNames[i][j] = ballot.positions[i].candidates[j].name;\r\n                voteCounts[i][j] = ballot.positions[i].candidates[j].voteCount;\r\n            }\r\n        }\r\n\r\n        return (positionNames, candidateNames, voteCounts);\r\n    }\r\n\r\n    function isBallotClosed(string memory _ballotId) public view returns (bool) {\r\n        require(bytes(ballots[_ballotId].id).length > 0, \"Ballot ID does not exist\");\r\n        return ballots[_ballotId].isClosed;\r\n    }\r\n\r\n    function endVoting(string memory _ballotId) public {\r\n        require(bytes(ballots[_ballotId].id).length > 0, \"Ballot ID does not exist\");\r\n        require(msg.sender == ballots[_ballotId].adminAddress, \"Only the ballot creator can close voting\");\r\n        require(!ballots[_ballotId].isClosed, \"Voting is already closed\");\r\n\r\n        ballots[_ballotId].isClosed = true;\r\n        emit VotingEnded(_ballotId, msg.sender);\r\n    }\r\n}\r\n",
  "sourcePath": "C:\\Users\\ADMIN PC\\Desktop\\The-Voting-System\\contracts\\VotingSystem.sol",
  "compiler": {
    "name": "solc",
    "version": "0.8.0+commit.c7dfd78e.Emscripten.clang"
  },
  "schemaVersion": "3.4.14",
  "updatedAt": "2025-12-23T12:32:19.923Z",
  "networkType": "ethereum",
  "devdoc": {
    "kind": "dev",
    "methods": {},
    "version": 1
  },
  "userdoc": {
    "kind": "user",
    "methods": {},
    "version": 1
  }
}