{
  "contractName": "VotingSystem",
  "abi": [
    {
      "anonymous": false,
      "inputs": [
        {
          "indexed": false,
          "internalType": "string",
          "name": "username",
          "type": "string"
        },
        {
          "indexed": false,
          "internalType": "address",
          "name": "adminAddress",
          "type": "address"
        }
      ],
      "name": "AdminRegistered",
      "type": "event"
    },
    {
      "anonymous": false,
      "inputs": [
        {
          "indexed": false,
          "internalType": "string",
          "name": "ballotId",
          "type": "string"
        },
        {
          "indexed": false,
          "internalType": "string",
          "name": "title",
          "type": "string"
        },
        {
          "indexed": true,
          "internalType": "address",
          "name": "admin",
          "type": "address"
        }
      ],
      "name": "BallotCreated",
      "type": "event"
    },
    {
      "anonymous": false,
      "inputs": [
        {
          "indexed": true,
          "internalType": "address",
          "name": "voter",
          "type": "address"
        },
        {
          "indexed": false,
          "internalType": "string",
          "name": "ballotId",
          "type": "string"
        },
        {
          "indexed": false,
          "internalType": "uint256",
          "name": "positionIndex",
          "type": "uint256"
        },
        {
          "indexed": false,
          "internalType": "uint256",
          "name": "candidateIndex",
          "type": "uint256"
        }
      ],
      "name": "VoteCasted",
      "type": "event"
    },
    {
      "anonymous": false,
      "inputs": [
        {
          "indexed": true,
          "internalType": "address",
          "name": "voter",
          "type": "address"
        },
        {
          "indexed": false,
          "internalType": "string",
          "name": "ballotId",
          "type": "string"
        }
      ],
      "name": "VoterRegistered",
      "type": "event"
    },
    {
      "anonymous": false,
      "inputs": [
        {
          "indexed": false,
          "internalType": "string",
          "name": "ballotId",
          "type": "string"
        },
        {
          "indexed": false,
          "internalType": "address",
          "name": "admin",
          "type": "address"
        }
      ],
      "name": "VotingEnded",
      "type": "event"
    },
    {
      "inputs": [
        {
          "internalType": "string",
          "name": "",
          "type": "string"
        }
      ],
      "name": "ballots",
      "outputs": [
        {
          "internalType": "string",
          "name": "id",
          "type": "string"
        },
        {
          "internalType": "string",
          "name": "title",
          "type": "string"
        },
        {
          "internalType": "address",
          "name": "adminAddress",
          "type": "address"
        },
        {
          "internalType": "bool",
          "name": "isClosed",
          "type": "bool"
        }
      ],
      "stateMutability": "view",
      "type": "function"
    },
    {
      "inputs": [
        {
          "internalType": "address",
          "name": "",
          "type": "address"
        }
      ],
      "name": "isAdminRegistered",
      "outputs": [
        {
          "internalType": "bool",
          "name": "",
          "type": "bool"
        }
      ],
      "stateMutability": "view",
      "type": "function"
    },
    {
      "inputs": [
        {
          "internalType": "string",
          "name": "",
          "type": "string"
        },
        {
          "internalType": "address",
          "name": "",
          "type": "address"
        }
      ],
      "name": "registeredVoters",
      "outputs": [
        {
          "internalType": "bytes32",
          "name": "hashedPassword",
          "type": "bytes32"
        },
        {
          "internalType": "string",
          "name": "ballotId",
          "type": "string"
        },
        {
          "internalType": "bool",
          "name": "isRegistered",
          "type": "bool"
        },
        {
          "internalType": "bool",
          "name": "hasVoted",
          "type": "bool"
        }
      ],
      "stateMutability": "view",
      "type": "function"
    },
    {
      "inputs": [
        {
          "internalType": "string",
          "name": "_username",
          "type": "string"
        },
        {
          "internalType": "string",
          "name": "_password",
          "type": "string"
        }
      ],
      "name": "registerAdmin",
      "outputs": [],
      "stateMutability": "nonpayable",
      "type": "function"
    },
    {
      "inputs": [
        {
          "internalType": "string",
          "name": "_username",
          "type": "string"
        },
        {
          "internalType": "string",
          "name": "_password",
          "type": "string"
        }
      ],
      "name": "adminLogin",
      "outputs": [
        {
          "internalType": "bool",
          "name": "",
          "type": "bool"
        },
        {
          "internalType": "string[]",
          "name": "",
          "type": "string[]"
        },
        {
          "internalType": "string[]",
          "name": "",
          "type": "string[]"
        }
      ],
      "stateMutability": "view",
      "type": "function"
    },
    {
      "inputs": [
        {
          "internalType": "string",
          "name": "_ballotId",
          "type": "string"
        },
        {
          "internalType": "string",
          "name": "_title",
          "type": "string"
        },
        {
          "internalType": "string[]",
          "name": "_positionNames",
          "type": "string[]"
        },
        {
          "internalType": "string[][]",
          "name": "_candidateNames",
          "type": "string[][]"
        }
      ],
      "name": "createBallot",
      "outputs": [],
      "stateMutability": "nonpayable",
      "type": "function"
    },
    {
      "inputs": [
        {
          "internalType": "address",
          "name": "_voter",
          "type": "address"
        },
        {
          "internalType": "string",
          "name": "_ballotId",
          "type": "string"
        },
        {
          "internalType": "bytes32",
          "name": "_hashedPassword",
          "type": "bytes32"
        }
      ],
      "name": "registerVoter",
      "outputs": [],
      "stateMutability": "nonpayable",
      "type": "function"
    },
    {
      "inputs": [
        {
          "internalType": "string",
          "name": "_ballotId",
          "type": "string"
        },
        {
          "internalType": "address",
          "name": "_voter",
          "type": "address"
        }
      ],
      "name": "getVoterStatus",
      "outputs": [
        {
          "internalType": "bool",
          "name": "isRegistered",
          "type": "bool"
        },
        {
          "internalType": "bool",
          "name": "hasVoted",
          "type": "bool"
        }
      ],
      "stateMutability": "view",
      "type": "function"
    },
    {
      "inputs": [
        {
          "internalType": "address[]",
          "name": "_voterAddresses",
          "type": "address[]"
        },
        {
          "internalType": "string",
          "name": "_ballotId",
          "type": "string"
        },
        {
          "internalType": "bytes32[]",
          "name": "_hashedPasswords",
          "type": "bytes32[]"
        }
      ],
      "name": "registerMultipleVoters",
      "outputs": [],
      "stateMutability": "nonpayable",
      "type": "function"
    },
    {
      "inputs": [
        {
          "internalType": "string",
          "name": "_ballotId",
          "type": "string"
        }
      ],
      "name": "getVotersForBallot",
      "outputs": [
        {
          "internalType": "address[]",
          "name": "",
          "type": "address[]"
        }
      ],
      "stateMutability": "view",
      "type": "function"
    },
    {
      "inputs": [
        {
          "internalType": "string",
          "name": "_ballotId",
          "type": "string"
        },
        {
          "internalType": "string",
          "name": "_password",
          "type": "string"
        }
      ],
      "name": "authenticateVoter",
      "outputs": [
        {
          "internalType": "bool",
          "name": "isAuthenticated",
          "type": "bool"
        },
        {
          "internalType": "bool",
          "name": "hasVoted",
          "type": "bool"
        },
        {
          "internalType": "string",
          "name": "ballotId",
          "type": "string"
        }
      ],
      "stateMutability": "view",
      "type": "function"
    },
    {
      "inputs": [
        {
          "internalType": "string",
          "name": "_ballotId",
          "type": "string"
        },
        {
          "internalType": "uint256[]",
          "name": "_positionIndexes",
          "type": "uint256[]"
        },
        {
          "internalType": "uint256[]",
          "name": "_candidateIndexes",
          "type": "uint256[]"
        }
      ],
      "name": "voteMultiple",
      "outputs": [],
      "stateMutability": "nonpayable",
      "type": "function"
    },
    {
      "inputs": [],
      "name": "getMyBallots",
      "outputs": [
        {
          "internalType": "string[]",
          "name": "",
          "type": "string[]"
        },
        {
          "internalType": "string[]",
          "name": "",
          "type": "string[]"
        }
      ],
      "stateMutability": "view",
      "type": "function"
    },
    {
      "inputs": [
        {
          "internalType": "string",
          "name": "_ballotId",
          "type": "string"
        }
      ],
      "name": "getBallotDetails",
      "outputs": [
        {
          "internalType": "string",
          "name": "",
          "type": "string"
        },
        {
          "internalType": "string",
          "name": "",
          "type": "string"
        },
        {
          "internalType": "string[]",
          "name": "",
          "type": "string[]"
        },
        {
          "internalType": "string[][]",
          "name": "",
          "type": "string[][]"
        }
      ],
      "stateMutability": "view",
      "type": "function"
    },
    {
      "inputs": [
        {
          "internalType": "string",
          "name": "_ballotId",
          "type": "string"
        }
      ],
      "name": "getResults",
      "outputs": [
        {
          "internalType": "string[]",
          "name": "",
          "type": "string[]"
        },
        {
          "internalType": "string[][]",
          "name": "",
          "type": "string[][]"
        },
        {
          "internalType": "uint256[][]",
          "name": "",
          "type": "uint256[][]"
        }
      ],
      "stateMutability": "view",
      "type": "function"
    },
    {
      "inputs": [
        {
          "internalType": "string",
          "name": "_ballotId",
          "type": "string"
        }
      ],
      "name": "isBallotClosed",
      "outputs": [
        {
          "internalType": "bool",
          "name": "",
          "type": "bool"
        }
      ],
      "stateMutability": "view",
      "type": "function"
    },
    {
      "inputs": [
        {
          "internalType": "string",
          "name": "_ballotId",
          "type": "string"
        }
      ],
      "name": "endVoting",
      "outputs": [],
      "stateMutability": "nonpayable",
      "type": "function"
    },
    {
      "inputs": [
        {
          "internalType": "string",
          "name": "_ballotId",
          "type": "string"
        }
      ],
      "name": "getVotersWithStatus",
      "outputs": [
        {
          "internalType": "address[]",
          "name": "",
          "type": "address[]"
        },
        {
          "internalType": "bool[]",
          "name": "",
          "type": "bool[]"
        }
      ],
      "stateMutability": "view",
      "type": "function"
    }
  ],
  "bytecode": "0x608060405234801561001057600080fd5b506161c280620000216000396000f3fe608060405234801561001057600080fd5b50600436106101165760003560e01c80637437ffa1116100a2578063bbbb2dba11610071578063bbbb2dba14610321578063c715408014610354578063e5d6b20314610386578063e6598e2d146103b7578063f8f98b79146103e757610116565b80637437ffa1146102715780638634602e1461028d578063a1b35bea146102c0578063aad4c843146102f057610116565b80633b00a3e3116100e95780633b00a3e3146101b85780634bba734f146101d45780636a2d6877146102045780636bdc838e1461022057806374098f461461025257610116565b806311e4e0a61461011b57806313e52b4e1461014e5780632ff20f011461016a578063332918721461019c575b600080fd5b610135600480360381019061013091906146b4565b610403565b6040516101459493929190615767565b60405180910390f35b61016860048036038101906101639190614575565b6104f8565b005b610184600480360381019061017f9190614673565b6108a2565b6040516101939392919061561d565b60405180910390f35b6101b660048036038101906101b1919061480b565b61109a565b005b6101d260048036038101906101cd9190614673565b61158e565b005b6101ee60048036038101906101e9919061454c565b611792565b6040516101fb91906156a0565b60405180910390f35b61021e60048036038101906102199190614708565b6117b2565b005b61023a6004803603810190610235919061479f565b611d34565b60405161024993929190615729565b60405180910390f35b61025a61204c565b604051610268929190615669565b60405180910390f35b61028b600480360381019061028691906145dc565b61249d565b005b6102a760048036038101906102a29190614673565b6129eb565b6040516102b7949392919061588f565b60405180910390f35b6102da60048036038101906102d59190614673565b6130bd565b6040516102e791906156a0565b60405180910390f35b61030a60048036038101906103059190614673565b613164565b6040516103189291906155e6565b60405180910390f35b61033b60048036038101906103369190614673565b6133a6565b60405161034b949392919061583c565b60405180910390f35b61036e6004803603810190610369919061479f565b613529565b60405161037d939291906156bb565b60405180910390f35b6103a0600480360381019061039b91906146b4565b613b54565b6040516103ae929190615700565b60405180910390f35b6103d160048036038101906103cc9190614673565b613c56565b6040516103de91906155c4565b60405180910390f35b61040160048036038101906103fc919061479f565b613d72565b005b6006828051602081018201805184825260208301602085012081835280955050505050506020528060005260406000206000915091505080600001549080600101805461044f90615ff3565b80601f016020809104026020016040519081016040528092919081815260200182805461047b90615ff3565b80156104c85780601f1061049d576101008083540402835291602001916104c8565b820191906000526020600020905b8154815290600101906020018083116104ab57829003601f168201915b5050505050908060020160009054906101000a900460ff16908060020160019054906101000a900460ff16905084565b600260003373ffffffffffffffffffffffffffffffffffffffff1673ffffffffffffffffffffffffffffffffffffffff16815260200190815260200160002060009054906101000a900460ff16610584576040517f08c379a000000000000000000000000000000000000000000000000000000000815260040161057b9061592e565b60405180910390fd5b60088251146105c8576040517f08c379a00000000000000000000000000000000000000000000000000000000081526004016105bf90615bee565b60405180910390fd5b60006004836040516105da9190615596565b908152602001604051809103902060000180546105f690615ff3565b905011610638576040517f08c379a000000000000000000000000000000000000000000000000000000000815260040161062f90615a8e565b60405180910390fd5b6006826040516106489190615596565b908152602001604051809103902060008473ffffffffffffffffffffffffffffffffffffffff1673ffffffffffffffffffffffffffffffffffffffff16815260200190815260200160002060020160009054906101000a900460ff16156106e4576040517f08c379a00000000000000000000000000000000000000000000000000000000081526004016106db9061594e565b60405180910390fd5b60405180608001604052808281526020018381526020016001151581526020016000151581525060068360405161071b9190615596565b908152602001604051809103902060008573ffffffffffffffffffffffffffffffffffffffff1673ffffffffffffffffffffffffffffffffffffffff16815260200190815260200160002060008201518160000155602082015181600101908051906020019061078c929190614132565b5060408201518160020160006101000a81548160ff02191690831515021790555060608201518160020160016101000a81548160ff0219169083151502179055509050506005826040516107e09190615596565b9081526020016040518091039020839080600181540180825580915050600190039060005260206000200160009091909190916101000a81548173ffffffffffffffffffffffffffffffffffffffff021916908373ffffffffffffffffffffffffffffffffffffffff1602179055508273ffffffffffffffffffffffffffffffffffffffff167fffeb7702be7dcd8fee170d954b70afb9a7c78f7f5cff232d037e7b9d8243356a8360405161089591906157b3565b60405180910390a2505050565b606080606060006004856040516108b99190615596565b908152602001604051809103902060000180546108d590615ff3565b905011610917576040517f08c379a000000000000000000000000000000000000000000000000000000000815260040161090e90615a8e565b60405180910390fd5b60006004856040516109299190615596565b9081526020016040518091039020905060008160030180549050905060008167ffffffffffffffff811115610987577f4e487b7100000000000000000000000000000000000000000000000000000000600052604160045260246000fd5b6040519080825280602002602001820160405280156109ba57816020015b60608152602001906001900390816109a55790505b50905060008267ffffffffffffffff8111156109ff577f4e487b7100000000000000000000000000000000000000000000000000000000600052604160045260246000fd5b604051908082528060200260200182016040528015610a3257816020015b6060815260200190600190039081610a1d5790505b50905060008367ffffffffffffffff811115610a77577f4e487b7100000000000000000000000000000000000000000000000000000000600052604160045260246000fd5b604051908082528060200260200182016040528015610aaa57816020015b6060815260200190600190039081610a955790505b50905060005b8481101561108457856003018181548110610af4577f4e487b7100000000000000000000000000000000000000000000000000000000600052603260045260246000fd5b90600052602060002090600202016000018054610b1090615ff3565b80601f0160208091040260200160405190810160405280929190818152602001828054610b3c90615ff3565b8015610b895780601f10610b5e57610100808354040283529160200191610b89565b820191906000526020600020905b815481529060010190602001808311610b6c57829003601f168201915b5050505050848281518110610bc7577f4e487b7100000000000000000000000000000000000000000000000000000000600052603260045260246000fd5b60200260200101819052506000866003018281548110610c10577f4e487b7100000000000000000000000000000000000000000000000000000000600052603260045260246000fd5b90600052602060002090600202016001018054905090508067ffffffffffffffff811115610c67577f4e487b7100000000000000000000000000000000000000000000000000000000600052604160045260246000fd5b604051908082528060200260200182016040528015610c9a57816020015b6060815260200190600190039081610c855790505b50848381518110610cd4577f4e487b7100000000000000000000000000000000000000000000000000000000600052603260045260246000fd5b60200260200101819052508067ffffffffffffffff811115610d1f577f4e487b7100000000000000000000000000000000000000000000000000000000600052604160045260246000fd5b604051908082528060200260200182016040528015610d4d5781602001602082028036833780820191505090505b50838381518110610d87577f4e487b7100000000000000000000000000000000000000000000000000000000600052603260045260246000fd5b602002602001018190525060005b8181101561106f57876003018381548110610dd9577f4e487b7100000000000000000000000000000000000000000000000000000000600052603260045260246000fd5b90600052602060002090600202016001018181548110610e22577f4e487b7100000000000000000000000000000000000000000000000000000000600052603260045260246000fd5b90600052602060002090600202016000018054610e3e90615ff3565b80601f0160208091040260200160405190810160405280929190818152602001828054610e6a90615ff3565b8015610eb75780601f10610e8c57610100808354040283529160200191610eb7565b820191906000526020600020905b815481529060010190602001808311610e9a57829003601f168201915b5050505050858481518110610ef5577f4e487b7100000000000000000000000000000000000000000000000000000000600052603260045260246000fd5b60200260200101518281518110610f35577f4e487b7100000000000000000000000000000000000000000000000000000000600052603260045260246000fd5b6020026020010181905250876003018381548110610f7c577f4e487b7100000000000000000000000000000000000000000000000000000000600052603260045260246000fd5b90600052602060002090600202016001018181548110610fc5577f4e487b7100000000000000000000000000000000000000000000000000000000600052603260045260246000fd5b906000526020600020906002020160010154848481518110611010577f4e487b7100000000000000000000000000000000000000000000000000000000600052603260045260246000fd5b60200260200101518281518110611050577f4e487b7100000000000000000000000000000000000000000000000000000000600052603260045260246000fd5b602002602001018181525050808061106790616025565b915050610d95565b5050808061107c90616025565b915050610ab0565b5082828297509750975050505050509193909250565b60088451146110de576040517f08c379a00000000000000000000000000000000000000000000000000000000081526004016110d590615a0e565b60405180910390fd5b6000835111611122576040517f08c379a0000000000000000000000000000000000000000000000000000000008152600401611119906159ee565b60405180910390fd5b6000825111611166576040517f08c379a000000000000000000000000000000000000000000000000000000000815260040161115d90615c2e565b60405180910390fd5b60006004856040516111789190615596565b9081526020016040518091039020600001805461119490615ff3565b9050146111d6576040517f08c379a00000000000000000000000000000000000000000000000000000000081526004016111cd90615b4e565b60405180910390fd5b60006004856040516111e89190615596565b9081526020016040518091039020905084816000019080519060200190611210929190614132565b5083816001019080519060200190611229929190614132565b50338160020160006101000a81548173ffffffffffffffffffffffffffffffffffffffff021916908373ffffffffffffffffffffffffffffffffffffffff16021790555060008160040160006101000a81548160ff02191690831515021790555060005b83518110156114bd57816003016001816001815401808255809150500390600052602060002090505060008260030182815481106112f4577f4e487b7100000000000000000000000000000000000000000000000000000000600052603260045260246000fd5b9060005260206000209060020201905084828151811061133d577f4e487b7100000000000000000000000000000000000000000000000000000000600052603260045260246000fd5b602002602001015181600001908051906020019061135c929190614132565b5060005b848381518110611399577f4e487b7100000000000000000000000000000000000000000000000000000000600052603260045260246000fd5b6020026020010151518110156114a8578160010160405180604001604052808786815181106113f1577f4e487b7100000000000000000000000000000000000000000000000000000000600052603260045260246000fd5b60200260200101518481518110611431577f4e487b7100000000000000000000000000000000000000000000000000000000600052603260045260246000fd5b60200260200101518152602001600081525090806001815401808255809150506001900390600052602060002090600202016000909190919091506000820151816000019080519060200190611488929190614132565b5060208201518160010155505080806114a090616025565b915050611360565b505080806114b590616025565b91505061128d565b50600360003373ffffffffffffffffffffffffffffffffffffffff1673ffffffffffffffffffffffffffffffffffffffff16815260200190815260200160002085908060018154018082558091505060019003906000526020600020016000909190919091509080519060200190611536929190614132565b503373ffffffffffffffffffffffffffffffffffffffff167f5d4ff6bed055bb6bb40742ad27d6df7113d8c7b79e6d1c37071a20e2cef73268868660405161157f929190615805565b60405180910390a25050505050565b60006004826040516115a09190615596565b908152602001604051809103902060000180546115bc90615ff3565b9050116115fe576040517f08c379a00000000000000000000000000000000000000000000000000000000081526004016115f590615a8e565b60405180910390fd5b60048160405161160e9190615596565b908152602001604051809103902060020160009054906101000a900473ffffffffffffffffffffffffffffffffffffffff1673ffffffffffffffffffffffffffffffffffffffff163373ffffffffffffffffffffffffffffffffffffffff16146116ad576040517f08c379a00000000000000000000000000000000000000000000000000000000081526004016116a490615a4e565b60405180910390fd5b6004816040516116bd9190615596565b908152602001604051809103902060040160009054906101000a900460ff161561171c576040517f08c379a0000000000000000000000000000000000000000000000000000000008152600401611713906159ce565b60405180910390fd5b600160048260405161172e9190615596565b908152602001604051809103902060040160006101000a81548160ff0219169083151502179055507f3ab689f5e761cb0d1f72addf7bf809ffc9e3651e8df6cd97c3a9f30db8b7026f81336040516117879291906157d5565b60405180910390a150565b60026020528060005260406000206000915054906101000a900460ff1681565b60006004846040516117c49190615596565b908152602001604051809103902060000180546117e090615ff3565b905011611822576040517f08c379a000000000000000000000000000000000000000000000000000000000815260040161181990615c4e565b60405180910390fd5b6004836040516118329190615596565b908152602001604051809103902060040160009054906101000a900460ff1615611891576040517f08c379a000000000000000000000000000000000000000000000000000000000815260040161188890615a6e565b60405180910390fd5b60006006846040516118a39190615596565b908152602001604051809103902060003373ffffffffffffffffffffffffffffffffffffffff1673ffffffffffffffffffffffffffffffffffffffff16815260200190815260200160002090508060020160009054906101000a900460ff16611941576040517f08c379a000000000000000000000000000000000000000000000000000000000815260040161193890615a2e565b60405180910390fd5b8060020160019054906101000a900460ff1615611993576040517f08c379a000000000000000000000000000000000000000000000000000000000815260040161198a90615aae565b60405180910390fd5b81518351146119d7576040517f08c379a00000000000000000000000000000000000000000000000000000000081526004016119ce90615c0e565b60405180910390fd5b60005b8351811015611c3c5760003386868481518110611a20577f4e487b7100000000000000000000000000000000000000000000000000000000600052603260045260246000fd5b6020026020010151604051602001611a3a9392919061555d565b6040516020818303038152906040528051906020012090506007600082815260200190815260200160002060009054906101000a900460ff1615611ab3576040517f08c379a0000000000000000000000000000000000000000000000000000000008152600401611aaa906159ae565b60405180910390fd5b600486604051611ac39190615596565b9081526020016040518091039020600301858381518110611b0d577f4e487b7100000000000000000000000000000000000000000000000000000000600052603260045260246000fd5b602002602001015181548110611b4c577f4e487b7100000000000000000000000000000000000000000000000000000000600052603260045260246000fd5b9060005260206000209060020201600101848381518110611b96577f4e487b7100000000000000000000000000000000000000000000000000000000600052603260045260246000fd5b602002602001015181548110611bd5577f4e487b7100000000000000000000000000000000000000000000000000000000600052603260045260246000fd5b90600052602060002090600202016001016000815480929190611bf790616025565b919050555060016007600083815260200190815260200160002060006101000a81548160ff021916908315150217905550508080611c3490616025565b9150506119da565b5060018160020160016101000a81548160ff0219169083151502179055503373ffffffffffffffffffffffffffffffffffffffff167f73b0bbe16a2a3b202c20b72e73b4566642f8949c86e403a6e5bcc63cf05cd1638585600081518110611ccd577f4e487b7100000000000000000000000000000000000000000000000000000000600052603260045260246000fd5b602002602001015185600081518110611d0f577f4e487b7100000000000000000000000000000000000000000000000000000000600052603260045260246000fd5b6020026020010151604051611d26939291906158f0565b60405180910390a250505050565b60008060606008855114611d7d576040517f08c379a0000000000000000000000000000000000000000000000000000000008152600401611d7490615bee565b60405180910390fd5b6000600486604051611d8f9190615596565b90815260200160405180910390206000018054611dab90615ff3565b905011611ded576040517f08c379a0000000000000000000000000000000000000000000000000000000008152600401611de490615a8e565b60405180910390fd5b6000600686604051611dff9190615596565b908152602001604051809103902060003373ffffffffffffffffffffffffffffffffffffffff1673ffffffffffffffffffffffffffffffffffffffff16815260200190815260200160002090508060020160009054906101000a900460ff16611e9d576040517f08c379a0000000000000000000000000000000000000000000000000000000008152600401611e9490615b2e565b60405180910390fd5b85604051602001611eae9190615596565b6040516020818303038152906040528051906020012081600101604051602001611ed891906155ad565b6040516020818303038152906040528051906020012014611f2e576040517f08c379a0000000000000000000000000000000000000000000000000000000008152600401611f2590615bae565b60405180910390fd5b84604051602001611f3f9190615596565b60405160208183030381529060405280519060200120816000015414611f9a576040517f08c379a0000000000000000000000000000000000000000000000000000000008152600401611f919061596e565b60405180910390fd5b60018160020160019054906101000a900460ff1682600101808054611fbe90615ff3565b80601f0160208091040260200160405190810160405280929190818152602001828054611fea90615ff3565b80156120375780601f1061200c57610100808354040283529160200191612037565b820191906000526020600020905b81548152906001019060200180831161201a57829003601f168201915b50505050509050935093509350509250925092565b6060806000600360003373ffffffffffffffffffffffffffffffffffffffff1673ffffffffffffffffffffffffffffffffffffffff16815260200190815260200160002080549050905060008167ffffffffffffffff8111156120d8577f4e487b7100000000000000000000000000000000000000000000000000000000600052604160045260246000fd5b60405190808252806020026020018201604052801561210b57816020015b60608152602001906001900390816120f65790505b50905060008267ffffffffffffffff811115612150577f4e487b7100000000000000000000000000000000000000000000000000000000600052604160045260246000fd5b60405190808252806020026020018201604052801561218357816020015b606081526020019060019003908161216e5790505b50905060005b8381101561248f576000600360003373ffffffffffffffffffffffffffffffffffffffff1673ffffffffffffffffffffffffffffffffffffffff168152602001908152602001600020828154811061220a577f4e487b7100000000000000000000000000000000000000000000000000000000600052603260045260246000fd5b90600052602060002001805461221f90615ff3565b80601f016020809104026020016040519081016040528092919081815260200182805461224b90615ff3565b80156122985780601f1061226d57610100808354040283529160200191612298565b820191906000526020600020905b81548152906001019060200180831161227b57829003601f168201915b505050505090506004816040516122af9190615596565b908152602001604051809103902060000180546122cb90615ff3565b80601f01602080910402602001604051908101604052809291908181526020018280546122f790615ff3565b80156123445780601f1061231957610100808354040283529160200191612344565b820191906000526020600020905b81548152906001019060200180831161232757829003601f168201915b5050505050848381518110612382577f4e487b7100000000000000000000000000000000000000000000000000000000600052603260045260246000fd5b602002602001018190525060048160405161239d9190615596565b908152602001604051809103902060010180546123b990615ff3565b80601f01602080910402602001604051908101604052809291908181526020018280546123e590615ff3565b80156124325780601f1061240757610100808354040283529160200191612432565b820191906000526020600020905b81548152906001019060200180831161241557829003601f168201915b5050505050838381518110612470577f4e487b7100000000000000000000000000000000000000000000000000000000600052603260045260246000fd5b602002602001018190525050808061248790616025565b915050612189565b508181945094505050509091565b600260003373ffffffffffffffffffffffffffffffffffffffff1673ffffffffffffffffffffffffffffffffffffffff16815260200190815260200160002060009054906101000a900460ff16612529576040517f08c379a00000000000000000000000000000000000000000000000000000000081526004016125209061592e565b60405180910390fd5b600882511461256d576040517f08c379a000000000000000000000000000000000000000000000000000000000815260040161256490615bee565b60405180910390fd5b600060048360405161257f9190615596565b9081526020016040518091039020600001805461259b90615ff3565b9050116125dd576040517f08c379a00000000000000000000000000000000000000000000000000000000081526004016125d490615a8e565b60405180910390fd5b8051835114612621576040517f08c379a000000000000000000000000000000000000000000000000000000000815260040161261890615b8e565b60405180910390fd5b60005b83518110156129e55760068360405161263d9190615596565b90815260200160405180910390206000858381518110612686577f4e487b7100000000000000000000000000000000000000000000000000000000600052603260045260246000fd5b602002602001015173ffffffffffffffffffffffffffffffffffffffff1673ffffffffffffffffffffffffffffffffffffffff16815260200190815260200160002060020160009054906101000a900460ff1615612719576040517f08c379a00000000000000000000000000000000000000000000000000000000081526004016127109061594e565b60405180910390fd5b604051806080016040528083838151811061275d577f4e487b7100000000000000000000000000000000000000000000000000000000600052603260045260246000fd5b60200260200101518152602001848152602001600115158152602001600015158152506006846040516127909190615596565b908152602001604051809103902060008684815181106127d9577f4e487b7100000000000000000000000000000000000000000000000000000000600052603260045260246000fd5b602002602001015173ffffffffffffffffffffffffffffffffffffffff1673ffffffffffffffffffffffffffffffffffffffff168152602001908152602001600020600082015181600001556020820151816001019080519060200190612841929190614132565b5060408201518160020160006101000a81548160ff02191690831515021790555060608201518160020160016101000a81548160ff0219169083151502179055509050506005836040516128959190615596565b90815260200160405180910390208482815181106128dc577f4e487b7100000000000000000000000000000000000000000000000000000000600052603260045260246000fd5b60200260200101519080600181540180825580915050600190039060005260206000200160009091909190916101000a81548173ffffffffffffffffffffffffffffffffffffffff021916908373ffffffffffffffffffffffffffffffffffffffff16021790555083818151811061297d577f4e487b7100000000000000000000000000000000000000000000000000000000600052603260045260246000fd5b602002602001015173ffffffffffffffffffffffffffffffffffffffff167fffeb7702be7dcd8fee170d954b70afb9a7c78f7f5cff232d037e7b9d8243356a846040516129ca91906157b3565b60405180910390a280806129dd90616025565b915050612624565b50505050565b6060806060806000600486604051612a039190615596565b90815260200160405180910390206000018054612a1f90615ff3565b905011612a61576040517f08c379a0000000000000000000000000000000000000000000000000000000008152600401612a5890615a8e565b60405180910390fd5b6000600486604051612a739190615596565b9081526020016040518091039020905060008160030180549050905060008167ffffffffffffffff811115612ad1577f4e487b7100000000000000000000000000000000000000000000000000000000600052604160045260246000fd5b604051908082528060200260200182016040528015612b0457816020015b6060815260200190600190039081612aef5790505b50905060008267ffffffffffffffff811115612b49577f4e487b7100000000000000000000000000000000000000000000000000000000600052604160045260246000fd5b604051908082528060200260200182016040528015612b7c57816020015b6060815260200190600190039081612b675790505b50905060005b83811015612f8757846003018181548110612bc6577f4e487b7100000000000000000000000000000000000000000000000000000000600052603260045260246000fd5b90600052602060002090600202016000018054612be290615ff3565b80601f0160208091040260200160405190810160405280929190818152602001828054612c0e90615ff3565b8015612c5b5780601f10612c3057610100808354040283529160200191612c5b565b820191906000526020600020905b815481529060010190602001808311612c3e57829003601f168201915b5050505050838281518110612c99577f4e487b7100000000000000000000000000000000000000000000000000000000600052603260045260246000fd5b60200260200101819052506000856003018281548110612ce2577f4e487b7100000000000000000000000000000000000000000000000000000000600052603260045260246000fd5b90600052602060002090600202016001018054905090508067ffffffffffffffff811115612d39577f4e487b7100000000000000000000000000000000000000000000000000000000600052604160045260246000fd5b604051908082528060200260200182016040528015612d6c57816020015b6060815260200190600190039081612d575790505b50838381518110612da6577f4e487b7100000000000000000000000000000000000000000000000000000000600052603260045260246000fd5b602002602001018190525060005b81811015612f7257866003018381548110612df8577f4e487b7100000000000000000000000000000000000000000000000000000000600052603260045260246000fd5b90600052602060002090600202016001018181548110612e41577f4e487b7100000000000000000000000000000000000000000000000000000000600052603260045260246000fd5b90600052602060002090600202016000018054612e5d90615ff3565b80601f0160208091040260200160405190810160405280929190818152602001828054612e8990615ff3565b8015612ed65780601f10612eab57610100808354040283529160200191612ed6565b820191906000526020600020905b815481529060010190602001808311612eb957829003601f168201915b5050505050848481518110612f14577f4e487b7100000000000000000000000000000000000000000000000000000000600052603260045260246000fd5b60200260200101518281518110612f54577f4e487b7100000000000000000000000000000000000000000000000000000000600052603260045260246000fd5b60200260200101819052508080612f6a90616025565b915050612db4565b50508080612f7f90616025565b915050612b82565b5083600001846001018383838054612f9e90615ff3565b80601f0160208091040260200160405190810160405280929190818152602001828054612fca90615ff3565b80156130175780601f10612fec57610100808354040283529160200191613017565b820191906000526020600020905b815481529060010190602001808311612ffa57829003601f168201915b5050505050935082805461302a90615ff3565b80601f016020809104026020016040519081016040528092919081815260200182805461305690615ff3565b80156130a35780601f10613078576101008083540402835291602001916130a3565b820191906000526020600020905b81548152906001019060200180831161308657829003601f168201915b505050505092509750975097509750505050509193509193565b6000806004836040516130d09190615596565b908152602001604051809103902060000180546130ec90615ff3565b90501161312e576040517f08c379a000000000000000000000000000000000000000000000000000000000815260040161312590615a8e565b60405180910390fd5b60048260405161313e9190615596565b908152602001604051809103902060040160009054906101000a900460ff169050919050565b60608060006005846040516131799190615596565b908152602001604051809103902080548060200260200160405190810160405280929190818152602001828054801561320757602002820191906000526020600020905b8160009054906101000a900473ffffffffffffffffffffffffffffffffffffffff1673ffffffffffffffffffffffffffffffffffffffff16815260200190600101908083116131bd575b505050505090506000815167ffffffffffffffff811115613251577f4e487b7100000000000000000000000000000000000000000000000000000000600052604160045260246000fd5b60405190808252806020026020018201604052801561327f5781602001602082028036833780820191505090505b50905060005b82518110156133985760068660405161329e9190615596565b908152602001604051809103902060008483815181106132e7577f4e487b7100000000000000000000000000000000000000000000000000000000600052603260045260246000fd5b602002602001015173ffffffffffffffffffffffffffffffffffffffff1673ffffffffffffffffffffffffffffffffffffffff16815260200190815260200160002060020160019054906101000a900460ff16828281518110613373577f4e487b7100000000000000000000000000000000000000000000000000000000600052603260045260246000fd5b602002602001019015159081151581525050808061339090616025565b915050613285565b508181935093505050915091565b6004818051602081018201805184825260208301602085012081835280955050505050506000915090508060000180546133df90615ff3565b80601f016020809104026020016040519081016040528092919081815260200182805461340b90615ff3565b80156134585780601f1061342d57610100808354040283529160200191613458565b820191906000526020600020905b81548152906001019060200180831161343b57829003601f168201915b50505050509080600101805461346d90615ff3565b80601f016020809104026020016040519081016040528092919081815260200182805461349990615ff3565b80156134e65780601f106134bb576101008083540402835291602001916134e6565b820191906000526020600020905b8154815290600101906020018083116134c957829003601f168201915b5050505050908060020160009054906101000a900473ffffffffffffffffffffffffffffffffffffffff16908060040160009054906101000a900460ff16905084565b600060608060006001866040516135409190615596565b908152602001604051809103902060009054906101000a900473ffffffffffffffffffffffffffffffffffffffff169050600073ffffffffffffffffffffffffffffffffffffffff168173ffffffffffffffffffffffffffffffffffffffff1614156135e1576040517f08c379a00000000000000000000000000000000000000000000000000000000081526004016135d890615bce565b60405180910390fd5b3373ffffffffffffffffffffffffffffffffffffffff168173ffffffffffffffffffffffffffffffffffffffff161461364f576040517f08c379a000000000000000000000000000000000000000000000000000000000815260040161364690615b6e565b60405180910390fd5b60008060008373ffffffffffffffffffffffffffffffffffffffff1673ffffffffffffffffffffffffffffffffffffffff1681526020019081526020016000209050856040516020016136a29190615596565b604051602081830303815290604052805190602001208160010154146136fd576040517f08c379a00000000000000000000000000000000000000000000000000000000081526004016136f49061596e565b60405180910390fd5b6000600360008473ffffffffffffffffffffffffffffffffffffffff1673ffffffffffffffffffffffffffffffffffffffff16815260200190815260200160002080549050905060008167ffffffffffffffff811115613786577f4e487b7100000000000000000000000000000000000000000000000000000000600052604160045260246000fd5b6040519080825280602002602001820160405280156137b957816020015b60608152602001906001900390816137a45790505b50905060008267ffffffffffffffff8111156137fe577f4e487b7100000000000000000000000000000000000000000000000000000000600052604160045260246000fd5b60405190808252806020026020018201604052801561383157816020015b606081526020019060019003908161381c5790505b50905060005b83811015613b3d576000600360008873ffffffffffffffffffffffffffffffffffffffff1673ffffffffffffffffffffffffffffffffffffffff16815260200190815260200160002082815481106138b8577f4e487b7100000000000000000000000000000000000000000000000000000000600052603260045260246000fd5b9060005260206000200180546138cd90615ff3565b80601f01602080910402602001604051908101604052809291908181526020018280546138f990615ff3565b80156139465780601f1061391b57610100808354040283529160200191613946565b820191906000526020600020905b81548152906001019060200180831161392957829003601f168201915b5050505050905060048160405161395d9190615596565b9081526020016040518091039020600001805461397990615ff3565b80601f01602080910402602001604051908101604052809291908181526020018280546139a590615ff3565b80156139f25780601f106139c7576101008083540402835291602001916139f2565b820191906000526020600020905b8154815290600101906020018083116139d557829003601f168201915b5050505050848381518110613a30577f4e487b7100000000000000000000000000000000000000000000000000000000600052603260045260246000fd5b6020026020010181905250600481604051613a4b9190615596565b90815260200160405180910390206001018054613a6790615ff3565b80601f0160208091040260200160405190810160405280929190818152602001828054613a9390615ff3565b8015613ae05780601f10613ab557610100808354040283529160200191613ae0565b820191906000526020600020905b815481529060010190602001808311613ac357829003601f168201915b5050505050838381518110613b1e577f4e487b7100000000000000000000000000000000000000000000000000000000600052603260045260246000fd5b6020026020010181905250508080613b3590616025565b915050613837565b506001828297509750975050505050509250925092565b6000806000600485604051613b699190615596565b90815260200160405180910390206000018054613b8590615ff3565b905011613bc7576040517f08c379a0000000000000000000000000000000000000000000000000000000008152600401613bbe90615a8e565b60405180910390fd5b6000600685604051613bd99190615596565b908152602001604051809103902060008573ffffffffffffffffffffffffffffffffffffffff1673ffffffffffffffffffffffffffffffffffffffff16815260200190815260200160002090508060020160009054906101000a900460ff168160020160019054906101000a900460ff1692509250509250929050565b60606000600483604051613c6a9190615596565b90815260200160405180910390206000018054613c8690615ff3565b905011613cc8576040517f08c379a0000000000000000000000000000000000000000000000000000000008152600401613cbf90615a8e565b60405180910390fd5b600582604051613cd89190615596565b9081526020016040518091039020805480602002602001604051908101604052809291908181526020018280548015613d6657602002820191906000526020600020905b8160009054906101000a900473ffffffffffffffffffffffffffffffffffffffff1673ffffffffffffffffffffffffffffffffffffffff1681526020019060010190808311613d1c575b50505050509050919050565b6000825111613db6576040517f08c379a0000000000000000000000000000000000000000000000000000000008152600401613dad9061598e565b60405180910390fd5b6000815111613dfa576040517f08c379a0000000000000000000000000000000000000000000000000000000008152600401613df190615aee565b60405180910390fd5b600073ffffffffffffffffffffffffffffffffffffffff16600183604051613e229190615596565b908152602001604051809103902060009054906101000a900473ffffffffffffffffffffffffffffffffffffffff1673ffffffffffffffffffffffffffffffffffffffff1614613ea7576040517f08c379a0000000000000000000000000000000000000000000000000000000008152600401613e9e90615ace565b60405180910390fd5b600260003373ffffffffffffffffffffffffffffffffffffffff1673ffffffffffffffffffffffffffffffffffffffff16815260200190815260200160002060009054906101000a900460ff1615613f34576040517f08c379a0000000000000000000000000000000000000000000000000000000008152600401613f2b90615b0e565b60405180910390fd5b600081604051602001613f479190615596565b60405160208183030381529060405280519060200120905060405180606001604052808481526020018281526020013373ffffffffffffffffffffffffffffffffffffffff168152506000803373ffffffffffffffffffffffffffffffffffffffff1673ffffffffffffffffffffffffffffffffffffffff1681526020019081526020016000206000820151816000019080519060200190613fea929190614132565b506020820151816001015560408201518160020160006101000a81548173ffffffffffffffffffffffffffffffffffffffff021916908373ffffffffffffffffffffffffffffffffffffffff160217905550905050336001846040516140509190615596565b908152602001604051809103902060006101000a81548173ffffffffffffffffffffffffffffffffffffffff021916908373ffffffffffffffffffffffffffffffffffffffff1602179055506001600260003373ffffffffffffffffffffffffffffffffffffffff1673ffffffffffffffffffffffffffffffffffffffff16815260200190815260200160002060006101000a81548160ff0219169083151502179055507fdc66d5625246d2f0a5a37b7a15ab06b88858e01299d7b3861ffc77ef1789845183336040516141259291906157d5565b60405180910390a1505050565b82805461413e90615ff3565b90600052602060002090601f01602090048101928261416057600085556141a7565b82601f1061417957805160ff19168380011785556141a7565b828001600101855582156141a7579182015b828111156141a657825182559160200191906001019061418b565b5b5090506141b491906141b8565b5090565b5b808211156141d15760008160009055506001016141b9565b5090565b60006141e86141e384615c9f565b615c6e565b9050808382526020820190508285602086028201111561420757600080fd5b60005b85811015614237578161421d8882614411565b84526020840193506020830192505060018101905061420a565b5050509392505050565b600061425461424f84615ccb565b615c6e565b9050808382526020820190508260005b85811015614294578135850161427a88826144a4565b845260208401935060208301925050600181019050614264565b5050509392505050565b60006142b16142ac84615cf7565b615c6e565b905080838252602082019050828560208602820111156142d057600080fd5b60005b8581101561430057816142e688826144f8565b8452602084019350602083019250506001810190506142d3565b5050509392505050565b600061431d61431884615d23565b615c6e565b9050808382526020820190508260005b8581101561435d5781358501614343888261450d565b84526020840193506020830192505060018101905061432d565b5050509392505050565b600061437a61437584615d4f565b615c6e565b9050808382526020820190508285602086028201111561439957600080fd5b60005b858110156143c957816143af8882614537565b84526020840193506020830192505060018101905061439c565b5050509392505050565b60006143e66143e184615d7b565b615c6e565b9050828152602081018484840111156143fe57600080fd5b614409848285615fb1565b509392505050565b60008135905061442081616147565b92915050565b600082601f83011261443757600080fd5b81356144478482602086016141d5565b91505092915050565b600082601f83011261446157600080fd5b8135614471848260208601614241565b91505092915050565b600082601f83011261448b57600080fd5b813561449b84826020860161429e565b91505092915050565b600082601f8301126144b557600080fd5b81356144c584826020860161430a565b91505092915050565b600082601f8301126144df57600080fd5b81356144ef848260208601614367565b91505092915050565b6000813590506145078161615e565b92915050565b600082601f83011261451e57600080fd5b813561452e8482602086016143d3565b91505092915050565b60008135905061454681616175565b92915050565b60006020828403121561455e57600080fd5b600061456c84828501614411565b91505092915050565b60008060006060848603121561458a57600080fd5b600061459886828701614411565b935050602084013567ffffffffffffffff8111156145b557600080fd5b6145c18682870161450d565b92505060406145d2868287016144f8565b9150509250925092565b6000806000606084860312156145f157600080fd5b600084013567ffffffffffffffff81111561460b57600080fd5b61461786828701614426565b935050602084013567ffffffffffffffff81111561463457600080fd5b6146408682870161450d565b925050604084013567ffffffffffffffff81111561465d57600080fd5b6146698682870161447a565b9150509250925092565b60006020828403121561468557600080fd5b600082013567ffffffffffffffff81111561469f57600080fd5b6146ab8482850161450d565b91505092915050565b600080604083850312156146c757600080fd5b600083013567ffffffffffffffff8111156146e157600080fd5b6146ed8582860161450d565b92505060206146fe85828601614411565b9150509250929050565b60008060006060848603121561471d57600080fd5b600084013567ffffffffffffffff81111561473757600080fd5b6147438682870161450d565b935050602084013567ffffffffffffffff81111561476057600080fd5b61476c868287016144ce565b925050604084013567ffffffffffffffff81111561478957600080fd5b614795868287016144ce565b9150509250925092565b600080604083850312156147b257600080fd5b600083013567ffffffffffffffff8111156147cc57600080fd5b6147d88582860161450d565b925050602083013567ffffffffffffffff8111156147f557600080fd5b6148018582860161450d565b9150509250929050565b6000806000806080858703121561482157600080fd5b600085013567ffffffffffffffff81111561483b57600080fd5b6148478782880161450d565b945050602085013567ffffffffffffffff81111561486457600080fd5b6148708782880161450d565b935050604085013567ffffffffffffffff81111561488d57600080fd5b614899878288016144a4565b925050606085013567ffffffffffffffff8111156148b657600080fd5b6148c287828801614450565b91505092959194509250565b60006148da8383614952565b60208301905092915050565b60006148f28383614b2d565b905092915050565b60006149068383614c17565b905092915050565b600061491a8383614c75565b60208301905092915050565b60006149328383614ca2565b905092915050565b60006149468383615528565b60208301905092915050565b61495b81615f5f565b82525050565b61496a81615f5f565b82525050565b61498161497c82615f5f565b61606e565b82525050565b600061499282615e20565b61499c8185615ebb565b93506149a783615dab565b8060005b838110156149d85781516149bf88826148ce565b97506149ca83615e6d565b9250506001810190506149ab565b5085935050505092915050565b60006149f082615e2b565b6149fa8185615ecc565b935083602082028501614a0c85615dbb565b8060005b85811015614a485784840389528151614a2985826148e6565b9450614a3483615e7a565b925060208a01995050600181019050614a10565b50829750879550505050505092915050565b6000614a6582615e36565b614a6f8185615edd565b935083602082028501614a8185615dcb565b8060005b85811015614abd5784840389528151614a9e85826148fa565b9450614aa983615e87565b925060208a01995050600181019050614a85565b50829750879550505050505092915050565b6000614ada82615e41565b614ae48185615eee565b9350614aef83615ddb565b8060005b83811015614b20578151614b07888261490e565b9750614b1283615e94565b925050600181019050614af3565b5085935050505092915050565b6000614b3882615e4c565b614b428185615eff565b935083602082028501614b5485615deb565b8060005b85811015614b905784840389528151614b718582614926565b9450614b7c83615ea1565b925060208a01995050600181019050614b58565b50829750879550505050505092915050565b6000614bad82615e4c565b614bb78185615f10565b935083602082028501614bc985615deb565b8060005b85811015614c055784840389528151614be68582614926565b9450614bf183615ea1565b925060208a01995050600181019050614bcd565b50829750879550505050505092915050565b6000614c2282615e57565b614c2c8185615f21565b9350614c3783615dfb565b8060005b83811015614c68578151614c4f888261493a565b9750614c5a83615eae565b925050600181019050614c3b565b5085935050505092915050565b614c7e81615f71565b82525050565b614c8d81615f71565b82525050565b614c9c81615f7d565b82525050565b6000614cad82615e62565b614cb78185615f32565b9350614cc7818560208601615fc0565b614cd081616129565b840191505092915050565b6000614ce682615e62565b614cf08185615f43565b9350614d00818560208601615fc0565b614d0981616129565b840191505092915050565b6000614d1f82615e62565b614d298185615f54565b9350614d39818560208601615fc0565b80840191505092915050565b60008154614d5281615ff3565b614d5c8186615f54565b94506001821660008114614d775760018114614d8857614dbb565b60ff19831686528186019350614dbb565b614d9185615e0b565b60005b83811015614db357815481890152600182019150602081019050614d94565b838801955050505b50505092915050565b6000614dd1601f83615f43565b91507f4f6e6c792061646d696e732063616e20726567697374657220766f74657273006000830152602082019050919050565b6000614e11602883615f43565b91507f566f74657220616c7265616479207265676973746572656420666f722074686960008301527f732062616c6c6f740000000000000000000000000000000000000000000000006020830152604082019050919050565b6000614e77601283615f43565b91507f496e636f72726563742070617373776f726400000000000000000000000000006000830152602082019050919050565b6000614eb7601183615f43565b91507f557365726e616d652072657175697265640000000000000000000000000000006000830152602082019050919050565b6000614ef7601f83615f43565b91507f416c726561647920766f74656420666f72207468697320706f736974696f6e006000830152602082019050919050565b6000614f37601883615f43565b91507f566f74696e6720697320616c726561647920636c6f73656400000000000000006000830152602082019050919050565b6000614f77601583615f43565b91507f42616c6c6f74207469746c6520726571756972656400000000000000000000006000830152602082019050919050565b6000614fb7602b83615f43565b91507f42616c6c6f74204944206d7573742062652065786163746c792038206368617260008301527f616374657273206c6f6e670000000000000000000000000000000000000000006020830152604082019050919050565b600061501d601483615f43565b91507f566f746572206e6f7420726567697374657265640000000000000000000000006000830152602082019050919050565b600061505d602883615f43565b91507f4f6e6c79207468652062616c6c6f742063726561746f722063616e20636c6f7360008301527f6520766f74696e670000000000000000000000000000000000000000000000006020830152604082019050919050565b60006150c3601083615f43565b91507f566f74696e672068617320656e646564000000000000000000000000000000006000830152602082019050919050565b6000615103601883615f43565b91507f42616c6c6f7420494420646f6573206e6f7420657869737400000000000000006000830152602082019050919050565b6000615143602183615f43565b91507f596f75206861766520616c726561647920636f6d706c6574656420766f74696e60008301527f67000000000000000000000000000000000000000000000000000000000000006020830152604082019050919050565b60006151a9601783615f43565b91507f557365726e616d6520616c7265616479206578697374730000000000000000006000830152602082019050919050565b60006151e9601183615f43565b91507f50617373776f72642072657175697265640000000000000000000000000000006000830152602082019050919050565b6000615229601883615f43565b91507f41646d696e20616c7265616479207265676973746572656400000000000000006000830152602082019050919050565b6000615269602383615f43565b91507f566f746572206e6f74207265676973746572656420666f7220616e792062616c60008301527f6c6f7400000000000000000000000000000000000000000000000000000000006020830152604082019050919050565b60006152cf601883615f43565b91507f42616c6c6f7420494420616c72656164792065786973747300000000000000006000830152602082019050919050565b600061530f603283615f43565b91507f556e617574686f72697a65643a2055736520796f75722072656769737465726560008301527f64204d6574614d61736b206164647265737300000000000000000000000000006020830152604082019050919050565b6000615375601883615f43565b91507f4d69736d617463686564206172726179206c656e6774687300000000000000006000830152602082019050919050565b60006153b5601283615f43565b91507f42616c6c6f74204944206d69736d6174636800000000000000000000000000006000830152602082019050919050565b60006153f5600f83615f43565b91507f41646d696e206e6f7420666f756e6400000000000000000000000000000000006000830152602082019050919050565b6000615435601183615f43565b91507f496e76616c69642042616c6c6f742049440000000000000000000000000000006000830152602082019050919050565b6000615475601183615f43565b91507f496e76616c696420766f746520646174610000000000000000000000000000006000830152602082019050919050565b60006154b5601e83615f43565b91507f4174206c65617374206f6e6520706f736974696f6e20726571756972656400006000830152602082019050919050565b60006154f5601183615f43565b91507f496e76616c69642062616c6c6f742049440000000000000000000000000000006000830152602082019050919050565b61553181615fa7565b82525050565b61554081615fa7565b82525050565b61555761555282615fa7565b616092565b82525050565b60006155698286614970565b6014820191506155798285614d14565b91506155858284615546565b602082019150819050949350505050565b60006155a28284614d14565b915081905092915050565b60006155b98284614d45565b915081905092915050565b600060208201905081810360008301526155de8184614987565b905092915050565b600060408201905081810360008301526156008185614987565b905081810360208301526156148184614acf565b90509392505050565b600060608201905081810360008301526156378186614ba2565b9050818103602083015261564b81856149e5565b9050818103604083015261565f8184614a5a565b9050949350505050565b600060408201905081810360008301526156838185614ba2565b905081810360208301526156978184614ba2565b90509392505050565b60006020820190506156b56000830184614c84565b92915050565b60006060820190506156d06000830186614c84565b81810360208301526156e28185614ba2565b905081810360408301526156f68184614ba2565b9050949350505050565b60006040820190506157156000830185614c84565b6157226020830184614c84565b9392505050565b600060608201905061573e6000830186614c84565b61574b6020830185614c84565b818103604083015261575d8184614cdb565b9050949350505050565b600060808201905061577c6000830187614c93565b818103602083015261578e8186614cdb565b905061579d6040830185614c84565b6157aa6060830184614c84565b95945050505050565b600060208201905081810360008301526157cd8184614cdb565b905092915050565b600060408201905081810360008301526157ef8185614cdb565b90506157fe6020830184614961565b9392505050565b6000604082019050818103600083015261581f8185614cdb565b905081810360208301526158338184614cdb565b90509392505050565b600060808201905081810360008301526158568187614cdb565b9050818103602083015261586a8186614cdb565b90506158796040830185614961565b6158866060830184614c84565b95945050505050565b600060808201905081810360008301526158a98187614cdb565b905081810360208301526158bd8186614cdb565b905081810360408301526158d18185614ba2565b905081810360608301526158e581846149e5565b905095945050505050565b6000606082019050818103600083015261590a8186614cdb565b90506159196020830185615537565b6159266040830184615537565b949350505050565b6000602082019050818103600083015261594781614dc4565b9050919050565b6000602082019050818103600083015261596781614e04565b9050919050565b6000602082019050818103600083015261598781614e6a565b9050919050565b600060208201905081810360008301526159a781614eaa565b9050919050565b600060208201905081810360008301526159c781614eea565b9050919050565b600060208201905081810360008301526159e781614f2a565b9050919050565b60006020820190508181036000830152615a0781614f6a565b9050919050565b60006020820190508181036000830152615a2781614faa565b9050919050565b60006020820190508181036000830152615a4781615010565b9050919050565b60006020820190508181036000830152615a6781615050565b9050919050565b60006020820190508181036000830152615a87816150b6565b9050919050565b60006020820190508181036000830152615aa7816150f6565b9050919050565b60006020820190508181036000830152615ac781615136565b9050919050565b60006020820190508181036000830152615ae78161519c565b9050919050565b60006020820190508181036000830152615b07816151dc565b9050919050565b60006020820190508181036000830152615b278161521c565b9050919050565b60006020820190508181036000830152615b478161525c565b9050919050565b60006020820190508181036000830152615b67816152c2565b9050919050565b60006020820190508181036000830152615b8781615302565b9050919050565b60006020820190508181036000830152615ba781615368565b9050919050565b60006020820190508181036000830152615bc7816153a8565b9050919050565b60006020820190508181036000830152615be7816153e8565b9050919050565b60006020820190508181036000830152615c0781615428565b9050919050565b60006020820190508181036000830152615c2781615468565b9050919050565b60006020820190508181036000830152615c47816154a8565b9050919050565b60006020820190508181036000830152615c67816154e8565b9050919050565b6000604051905081810181811067ffffffffffffffff82111715615c9557615c946160fa565b5b8060405250919050565b600067ffffffffffffffff821115615cba57615cb96160fa565b5b602082029050602081019050919050565b600067ffffffffffffffff821115615ce657615ce56160fa565b5b602082029050602081019050919050565b600067ffffffffffffffff821115615d1257615d116160fa565b5b602082029050602081019050919050565b600067ffffffffffffffff821115615d3e57615d3d6160fa565b5b602082029050602081019050919050565b600067ffffffffffffffff821115615d6a57615d696160fa565b5b602082029050602081019050919050565b600067ffffffffffffffff821115615d9657615d956160fa565b5b601f19601f8301169050602081019050919050565b6000819050602082019050919050565b6000819050602082019050919050565b6000819050602082019050919050565b6000819050602082019050919050565b6000819050602082019050919050565b6000819050602082019050919050565b60008190508160005260206000209050919050565b600081519050919050565b600081519050919050565b600081519050919050565b600081519050919050565b600081519050919050565b600081519050919050565b600081519050919050565b6000602082019050919050565b6000602082019050919050565b6000602082019050919050565b6000602082019050919050565b6000602082019050919050565b6000602082019050919050565b600082825260208201905092915050565b600082825260208201905092915050565b600082825260208201905092915050565b600082825260208201905092915050565b600082825260208201905092915050565b600082825260208201905092915050565b600082825260208201905092915050565b600082825260208201905092915050565b600082825260208201905092915050565b600081905092915050565b6000615f6a82615f87565b9050919050565b60008115159050919050565b6000819050919050565b600073ffffffffffffffffffffffffffffffffffffffff82169050919050565b6000819050919050565b82818337600083830152505050565b60005b83811015615fde578082015181840152602081019050615fc3565b83811115615fed576000848401525b50505050565b6000600282049050600182168061600b57607f821691505b6020821081141561601f5761601e6160cb565b5b50919050565b600061603082615fa7565b91507fffffffffffffffffffffffffffffffffffffffffffffffffffffffffffffffff8214156160635761606261609c565b5b600182019050919050565b600061607982616080565b9050919050565b600061608b8261613a565b9050919050565b6000819050919050565b7f4e487b7100000000000000000000000000000000000000000000000000000000600052601160045260246000fd5b7f4e487b7100000000000000000000000000000000000000000000000000000000600052602260045260246000fd5b7f4e487b7100000000000000000000000000000000000000000000000000000000600052604160045260246000fd5b6000601f19601f8301169050919050565b60008160601b9050919050565b61615081615f5f565b811461615b57600080fd5b50565b61616781615f7d565b811461617257600080fd5b50565b61617e81615fa7565b811461618957600080fd5b5056fea264697066735822122053c39125565fe5c1a827a75caa871a15ed0c49a65c9dfb46dee50f26c6cc000264736f6c63430008000033",
  "immutableReferences": {},
  "source": "// SPDX-License-Identifier: MIT\r\npragma solidity ^0.8.0;\r\n\r\ncontract VotingSystem {\r\n    struct Admin {\r\n        string username;\r\n        bytes32 hashedPassword;\r\n        address adminAddress;\r\n    }\r\n\r\n    struct Candidate {\r\n        string name;\r\n        uint voteCount;\r\n    }\r\n\r\n    struct Position {\r\n        string name;\r\n        Candidate[] candidates;\r\n    }\r\n\r\n    struct Ballot {\r\n        string id;\r\n        string title;\r\n        address adminAddress;\r\n        Position[] positions;\r\n        bool isClosed;\r\n    }\r\n\r\n    struct Voter {\r\n        bytes32 hashedPassword;\r\n        string ballotId;\r\n        bool isRegistered;\r\n        bool hasVoted;\r\n    }\r\n\r\n    // Admin storage\r\n    mapping(address => Admin) private admins;\r\n    mapping(string => address) private usernameToAddress;\r\n    mapping(address => bool) public isAdminRegistered;\r\n    mapping(address => string[]) private adminBallots;\r\n\r\n    // Ballot storage\r\n    mapping(string => Ballot) public ballots;\r\n    mapping(string => address[]) private ballotVoters; // Voters per ballot\r\n\r\n    // Voter storage (ballot-specific)\r\n    mapping(string => mapping(address => Voter)) public registeredVoters;\r\n\r\n    // Voting tracking\r\n    mapping(bytes32 => bool) private positionVotes;\r\n\r\n    // Events\r\n    event AdminRegistered(string username, address adminAddress);\r\n    event BallotCreated(string ballotId, string title, address indexed admin);\r\n    event VoterRegistered(address indexed voter, string ballotId);\r\n    event VoteCasted(address indexed voter, string ballotId, uint positionIndex, uint candidateIndex);\r\n    event VotingEnded(string ballotId, address admin);\r\n\r\n    // ---------------- Admin functions ----------------\r\n    function registerAdmin(string memory _username, string memory _password) public {\r\n        require(bytes(_username).length > 0, \"Username required\");\r\n        require(bytes(_password).length > 0, \"Password required\");\r\n        require(usernameToAddress[_username] == address(0), \"Username already exists\");\r\n        require(!isAdminRegistered[msg.sender], \"Admin already registered\");\r\n\r\n        bytes32 hashedPassword = keccak256(abi.encodePacked(_password));\r\n        admins[msg.sender] = Admin(_username, hashedPassword, msg.sender);\r\n        usernameToAddress[_username] = msg.sender;\r\n        isAdminRegistered[msg.sender] = true;\r\n\r\n        emit AdminRegistered(_username, msg.sender);\r\n    }\r\n\r\n    function adminLogin(string memory _username, string memory _password) \r\n        public view returns (bool, string[] memory, string[] memory) \r\n    {\r\n        address adminAddr = usernameToAddress[_username];\r\n        require(adminAddr != address(0), \"Admin not found\");\r\n        require(adminAddr == msg.sender, \"Unauthorized: Use your registered MetaMask address\");\r\n\r\n        Admin storage admin = admins[adminAddr];\r\n        require(admin.hashedPassword == keccak256(abi.encodePacked(_password)), \"Incorrect password\");\r\n\r\n        uint ballotCount = adminBallots[adminAddr].length;\r\n        string[] memory ballotIds = new string[](ballotCount);\r\n        string[] memory ballotTitles = new string[](ballotCount);\r\n\r\n        for (uint i = 0; i < ballotCount; i++) {\r\n            string memory ballotId = adminBallots[adminAddr][i];\r\n            ballotIds[i] = ballots[ballotId].id;\r\n            ballotTitles[i] = ballots[ballotId].title;\r\n        }\r\n\r\n        return (true, ballotIds, ballotTitles);\r\n    }\r\n\r\n    // ---------------- Ballot functions ----------------\r\n    function createBallot(\r\n        string memory _ballotId,\r\n        string memory _title,\r\n        string[] memory _positionNames,\r\n        string[][] memory _candidateNames\r\n    ) public {\r\n        require(bytes(_ballotId).length == 8, \"Ballot ID must be exactly 8 characters long\");\r\n        require(bytes(_title).length > 0, \"Ballot title required\");\r\n        require(_positionNames.length > 0, \"At least one position required\");\r\n        require(bytes(ballots[_ballotId].id).length == 0, \"Ballot ID already exists\");\r\n\r\n        Ballot storage newBallot = ballots[_ballotId];\r\n        newBallot.id = _ballotId;\r\n        newBallot.title = _title;\r\n        newBallot.adminAddress = msg.sender;\r\n        newBallot.isClosed = false;\r\n\r\n        for (uint i = 0; i < _positionNames.length; i++) {\r\n            newBallot.positions.push();\r\n            Position storage newPosition = newBallot.positions[i];\r\n            newPosition.name = _positionNames[i];\r\n\r\n            for (uint j = 0; j < _candidateNames[i].length; j++) {\r\n                newPosition.candidates.push(Candidate(_candidateNames[i][j], 0));\r\n            }\r\n        }\r\n\r\n        adminBallots[msg.sender].push(_ballotId);\r\n        emit BallotCreated(_ballotId, _title, msg.sender);\r\n    }\r\n\r\n    // ---------------- Voter registration ----------------\r\n    function registerVoter(address _voter, string memory _ballotId, bytes32 _hashedPassword) public {\r\n        require(isAdminRegistered[msg.sender], \"Only admins can register voters\");\r\n        require(bytes(_ballotId).length == 8, \"Invalid Ballot ID\");\r\n        require(bytes(ballots[_ballotId].id).length > 0, \"Ballot ID does not exist\");\r\n        require(!registeredVoters[_ballotId][_voter].isRegistered, \"Voter already registered for this ballot\");\r\n\r\n        registeredVoters[_ballotId][_voter] = Voter({\r\n            hashedPassword: _hashedPassword,\r\n            ballotId: _ballotId,\r\n            isRegistered: true,\r\n            hasVoted: false\r\n        });\r\n\r\n        ballotVoters[_ballotId].push(_voter);\r\n        emit VoterRegistered(_voter, _ballotId);\r\n    }\r\n    function getVoterStatus(string memory _ballotId, address _voter)\r\n    public\r\n    view\r\n    returns (bool isRegistered, bool hasVoted)\r\n{\r\n    require(bytes(ballots[_ballotId].id).length > 0, \"Ballot ID does not exist\");\r\n\r\n    Voter storage voter = registeredVoters[_ballotId][_voter];\r\n    return (voter.isRegistered, voter.hasVoted);\r\n}\r\n\r\n\r\n    function registerMultipleVoters(\r\n        address[] memory _voterAddresses,\r\n        string memory _ballotId,\r\n        bytes32[] memory _hashedPasswords\r\n    ) public {\r\n        require(isAdminRegistered[msg.sender], \"Only admins can register voters\");\r\n        require(bytes(_ballotId).length == 8, \"Invalid Ballot ID\");\r\n        require(bytes(ballots[_ballotId].id).length > 0, \"Ballot ID does not exist\");\r\n        require(_voterAddresses.length == _hashedPasswords.length, \"Mismatched array lengths\");\r\n\r\n        for (uint i = 0; i < _voterAddresses.length; i++) {\r\n            require(!registeredVoters[_ballotId][_voterAddresses[i]].isRegistered, \r\n                \"Voter already registered for this ballot\");\r\n\r\n            registeredVoters[_ballotId][_voterAddresses[i]] = Voter({\r\n                hashedPassword: _hashedPasswords[i],\r\n                ballotId: _ballotId,\r\n                isRegistered: true,\r\n                hasVoted: false\r\n            });\r\n\r\n            ballotVoters[_ballotId].push(_voterAddresses[i]);\r\n            emit VoterRegistered(_voterAddresses[i], _ballotId);\r\n        }\r\n    }\r\n\r\n    function getVotersForBallot(string memory _ballotId) public view returns (address[] memory) {\r\n        require(bytes(ballots[_ballotId].id).length > 0, \"Ballot ID does not exist\");\r\n        return ballotVoters[_ballotId];\r\n    }\r\n\r\n    // ---------------- Voting ----------------\r\n    function authenticateVoter(string memory _ballotId, string memory _password) \r\n        public view returns (bool isAuthenticated, bool hasVoted, string memory ballotId) \r\n    {\r\n        require(bytes(_ballotId).length == 8, \"Invalid Ballot ID\");\r\n        require(bytes(ballots[_ballotId].id).length > 0, \"Ballot ID does not exist\");\r\n\r\n        Voter storage voter = registeredVoters[_ballotId][msg.sender];\r\n        require(voter.isRegistered, \"Voter not registered for any ballot\");\r\n        require(keccak256(abi.encodePacked(voter.ballotId)) == keccak256(abi.encodePacked(_ballotId)), \"Ballot ID mismatch\");\r\n        require(voter.hashedPassword == keccak256(abi.encodePacked(_password)), \"Incorrect password\");\r\n\r\n        return (true, voter.hasVoted, voter.ballotId);\r\n    }\r\n\r\n    function voteMultiple(string memory _ballotId, uint[] memory _positionIndexes, uint[] memory _candidateIndexes) public {\r\n        require(bytes(ballots[_ballotId].id).length > 0, \"Invalid ballot ID\");\r\n        require(!ballots[_ballotId].isClosed, \"Voting has ended\");\r\n\r\n        Voter storage voter = registeredVoters[_ballotId][msg.sender];\r\n        require(voter.isRegistered, \"Voter not registered\");\r\n        require(!voter.hasVoted, \"You have already completed voting\");\r\n        require(_positionIndexes.length == _candidateIndexes.length, \"Invalid vote data\");\r\n\r\n        for (uint i = 0; i < _positionIndexes.length; i++) {\r\n            bytes32 voteKey = keccak256(abi.encodePacked(msg.sender, _ballotId, _positionIndexes[i]));\r\n            require(!positionVotes[voteKey], \"Already voted for this position\");\r\n\r\n            ballots[_ballotId].positions[_positionIndexes[i]].candidates[_candidateIndexes[i]].voteCount++;\r\n            positionVotes[voteKey] = true;\r\n        }\r\n\r\n        voter.hasVoted = true;\r\n        emit VoteCasted(msg.sender, _ballotId, _positionIndexes[0], _candidateIndexes[0]);\r\n    }\r\n\r\n    // ---------------- Utilities ----------------\r\n    function getMyBallots() public view returns (string[] memory, string[] memory) {\r\n        uint ballotCount = adminBallots[msg.sender].length;\r\n        string[] memory ballotIds = new string[](ballotCount);\r\n        string[] memory ballotTitles = new string[](ballotCount);\r\n\r\n        for (uint i = 0; i < ballotCount; i++) {\r\n            string memory ballotId = adminBallots[msg.sender][i];\r\n            ballotIds[i] = ballots[ballotId].id;\r\n            ballotTitles[i] = ballots[ballotId].title;\r\n        }\r\n\r\n        return (ballotIds, ballotTitles);\r\n    }\r\n\r\n    function getBallotDetails(string memory _ballotId)\r\n        public\r\n        view\r\n        returns (string memory, string memory, string[] memory, string[][] memory)\r\n    {\r\n        require(bytes(ballots[_ballotId].id).length > 0, \"Ballot ID does not exist\");\r\n        Ballot storage ballot = ballots[_ballotId];\r\n\r\n        uint positionCount = ballot.positions.length;\r\n        string[] memory positionNames = new string[](positionCount);\r\n        string[][] memory candidateNames = new string[][](positionCount);\r\n\r\n        for (uint i = 0; i < positionCount; i++) {\r\n            positionNames[i] = ballot.positions[i].name;\r\n            uint candidateCount = ballot.positions[i].candidates.length;\r\n            candidateNames[i] = new string[](candidateCount);\r\n\r\n            for (uint j = 0; j < candidateCount; j++) {\r\n                candidateNames[i][j] = ballot.positions[i].candidates[j].name;\r\n            }\r\n        }\r\n\r\n        return (ballot.id, ballot.title, positionNames, candidateNames);\r\n    }\r\n\r\n    function getResults(string memory _ballotId) \r\n        public view returns (string[] memory, string[][] memory, uint[][] memory) \r\n    {\r\n        require(bytes(ballots[_ballotId].id).length > 0, \"Ballot ID does not exist\");\r\n        Ballot storage ballot = ballots[_ballotId];\r\n\r\n        uint positionCount = ballot.positions.length;\r\n        string[] memory positionNames = new string[](positionCount);\r\n        string[][] memory candidateNames = new string[][](positionCount);\r\n        uint[][] memory voteCounts = new uint[][](positionCount);\r\n\r\n        for (uint i = 0; i < positionCount; i++) {\r\n            positionNames[i] = ballot.positions[i].name;\r\n            uint candidateCount = ballot.positions[i].candidates.length;\r\n\r\n            candidateNames[i] = new string[](candidateCount);\r\n            voteCounts[i] = new uint[](candidateCount);\r\n\r\n            for (uint j = 0; j < candidateCount; j++) {\r\n                candidateNames[i][j] = ballot.positions[i].candidates[j].name;\r\n                voteCounts[i][j] = ballot.positions[i].candidates[j].voteCount;\r\n            }\r\n        }\r\n\r\n        return (positionNames, candidateNames, voteCounts);\r\n    }\r\n\r\n    function isBallotClosed(string memory _ballotId) public view returns (bool) {\r\n        require(bytes(ballots[_ballotId].id).length > 0, \"Ballot ID does not exist\");\r\n        return ballots[_ballotId].isClosed;\r\n    }\r\n\r\n    function endVoting(string memory _ballotId) public {\r\n        require(bytes(ballots[_ballotId].id).length > 0, \"Ballot ID does not exist\");\r\n        require(msg.sender == ballots[_ballotId].adminAddress, \"Only the ballot creator can close voting\");\r\n        require(!ballots[_ballotId].isClosed, \"Voting is already closed\");\r\n\r\n        ballots[_ballotId].isClosed = true;\r\n        emit VotingEnded(_ballotId, msg.sender);\r\n    }\r\n    function getVotersWithStatus(string memory _ballotId)\r\n    public\r\n    view\r\n    returns (address[] memory, bool[] memory)\r\n{\r\n    address[] memory voters = ballotVoters[_ballotId];\r\n    bool[] memory votedStatus = new bool[](voters.length);\r\n\r\n    for (uint i = 0; i < voters.length; i++) {\r\n        votedStatus[i] = registeredVoters[_ballotId][voters[i]].hasVoted;\r\n    }\r\n\r\n    return (voters, votedStatus);\r\n}\r\n\r\n}\r\n",
  "sourcePath": "C:\\Users\\ADMIN PC\\Desktop\\The-Voting-System\\contracts\\VotingSystem.sol",
  "compiler": {
    "name": "solc",
    "version": "0.8.0+commit.c7dfd78e.Emscripten.clang"
  },
  "schemaVersion": "3.4.14",
  "updatedAt": "2025-12-22T16:43:22.138Z",
  "devdoc": {
    "kind": "dev",
    "methods": {},
    "version": 1
  },
  "userdoc": {
    "kind": "user",
    "methods": {},
    "version": 1
  }
}